{
	"data": {
		"bytecode": {
			"linkReferences": {},
			"object": "60c060405260018055348015610013575f5ffd5b50604051614d1d380380614d1d8339818101604052810190610035919061016f565b5f73ffffffffffffffffffffffffffffffffffffffff168173ffffffffffffffffffffffffffffffffffffffff16036100a3576040517f08c379a000000000000000000000000000000000000000000000000000000000815260040161009a906101f4565b60405180910390fd5b3373ffffffffffffffffffffffffffffffffffffffff1660808173ffffffffffffffffffffffffffffffffffffffff16815250508073ffffffffffffffffffffffffffffffffffffffff1660a08173ffffffffffffffffffffffffffffffffffffffff168152505050610212565b5f5ffd5b5f73ffffffffffffffffffffffffffffffffffffffff82169050919050565b5f61013e82610115565b9050919050565b61014e81610134565b8114610158575f5ffd5b50565b5f8151905061016981610145565b92915050565b5f6020828403121561018457610183610111565b5b5f6101918482850161015b565b91505092915050565b5f82825260208201905092915050565b7f5369676e6572207a65726f0000000000000000000000000000000000000000005f82015250565b5f6101de600b8361019a565b91506101e9826101aa565b602082019050919050565b5f6020820190508181035f83015261020b816101d2565b9050919050565b60805160a051614ace61024f5f395f8181610ca3015261286e01525f818161070f015281816114e80152818161218401526126c20152614ace5ff3fe608060405234801561000f575f5ffd5b5060043610610156575f3560e01c80638719d5a7116100c1578063bae78d7b1161007a578063bae78d7b1461043e578063c322f8101461046e578063cc0018791461048a578063e935b7b1146104a8578063f0f3f2c8146104c6578063fa6f3936146104f657610156565b80638719d5a71461033e5780639eda7d231461036e578063af3595ba1461039e578063af9344b8146103ba578063b30906d4146103ea578063b532e4cb1461042257610156565b8063305a967811610113578063305a96781461025a5780633aadc853146102765780633c1ab00f146102925780636bd06204146102c257806383100ed2146102f2578063869d785f1461032257610156565b8063107046bd1461015a57806312d491c91461018e57806321efac4c146101ac57806321f99abd146101dc578063241dd7e91461020c5780632a0acc6a1461023c575b5f5ffd5b610174600480360381019061016f9190612f0c565b610526565b604051610185959493929190613029565b60405180910390f35b61019661068f565b6040516101a39190613088565b60405180910390f35b6101c660048036038101906101c191906130cb565b61069b565b6040516101d39190613109565b60405180910390f35b6101f660048036038101906101f19190613122565b6106c5565b6040516102039190613088565b60405180910390f35b61022660048036038101906102219190613193565b6106f0565b6040516102339190613109565b60405180910390f35b61024461070d565b60405161025191906131be565b60405180910390f35b610274600480360381019061026f91906130cb565b610731565b005b610290600480360381019061028b919061322f565b610a16565b005b6102ac60048036038101906102a79190612f0c565b611105565b6040516102b99190613379565b60405180910390f35b6102dc60048036038101906102d791906133fa565b6111a1565b6040516102e99190613088565b60405180910390f35b61030c60048036038101906103079190613122565b61149e565b60405161031991906131be565b60405180910390f35b61033c60048036038101906103379190613478565b6114e6565b005b61035860048036038101906103539190613122565b611601565b6040516103659190613781565b60405180910390f35b610388600480360381019061038391906130cb565b611af9565b6040516103959190613109565b60405180910390f35b6103b860048036038101906103b391906130cb565b611b5b565b005b6103d460048036038101906103cf9190612f0c565b611e7f565b6040516103e19190613849565b60405180910390f35b61040460048036038101906103ff9190612f0c565b611ee6565b60405161041999989796959493929190613878565b60405180910390f35b61043c60048036038101906104379190613478565b612182565b005b61045860048036038101906104539190612f0c565b61229e565b6040516104659190613a12565b60405180910390f35b61048860048036038101906104839190612f0c565b6126c0565b005b61049261286c565b60405161049f91906131be565b60405180910390f35b6104b0612890565b6040516104bd9190613088565b60405180910390f35b6104e060048036038101906104db9190612f0c565b612896565b6040516104ed9190613aac565b60405180910390f35b610510600480360381019061050b9190613478565b612ab9565b60405161051d9190613109565b60405180910390f35b6002602052805f5260405f205f91509050805f015f9054906101000a900473ffffffffffffffffffffffffffffffffffffffff169080600101805461056a90613af9565b80601f016020809104026020016040519081016040528092919081815260200182805461059690613af9565b80156105e15780601f106105b8576101008083540402835291602001916105e1565b820191905f5260205f20905b8154815290600101906020018083116105c457829003601f168201915b5050505050908060020180546105f690613af9565b80601f016020809104026020016040519081016040528092919081815260200182805461062290613af9565b801561066d5780601f106106445761010080835404028352916020019161066d565b820191905f5260205f20905b81548152906001019060200180831161065057829003601f168201915b505050505090806003015490806004015f9054906101000a900460ff16905085565b5f600580549050905090565b6003602052815f5260405f20602052805f5260405f205f915091509054906101000a900460ff1681565b6006602052815f5260405f2081815481106106de575f80fd5b905f5260205f20015f91509150505481565b6007602052805f5260405f205f915054906101000a900460ff1681565b7f000000000000000000000000000000000000000000000000000000000000000081565b8160025f8281526020019081526020015f206004015f9054906101000a900460ff16610792576040517f08c379a000000000000000000000000000000000000000000000000000000000815260040161078990613b73565b60405180910390fd5b3373ffffffffffffffffffffffffffffffffffffffff1660025f8381526020019081526020015f205f015f9054906101000a900473ffffffffffffffffffffffffffffffffffffffff1673ffffffffffffffffffffffffffffffffffffffff1614610832576040517f08c379a000000000000000000000000000000000000000000000000000000000815260040161082990613bdb565b60405180910390fd5b60035f8481526020019081526020015f205f8373ffffffffffffffffffffffffffffffffffffffff1673ffffffffffffffffffffffffffffffffffffffff1681526020019081526020015f205f9054906101000a900460ff166108ca576040517f08c379a00000000000000000000000000000000000000000000000000000000081526004016108c190613c43565b60405180910390fd5b60025f8481526020019081526020015f205f015f9054906101000a900473ffffffffffffffffffffffffffffffffffffffff1673ffffffffffffffffffffffffffffffffffffffff168273ffffffffffffffffffffffffffffffffffffffff160361096a576040517f08c379a000000000000000000000000000000000000000000000000000000000815260040161096190613cab565b60405180910390fd5b5f60035f8581526020019081526020015f205f8473ffffffffffffffffffffffffffffffffffffffff1673ffffffffffffffffffffffffffffffffffffffff1681526020019081526020015f205f6101000a81548160ff0219169083151502179055508173ffffffffffffffffffffffffffffffffffffffff16837f2bc0799d3d29a0a339229cf855001db861e0818fbe4efa9e9b1bb4418366c62d60405160405180910390a3505050565b5f858060400190610a279190613cd5565b905011610a69576040517f08c379a0000000000000000000000000000000000000000000000000000000008152600401610a6090613d81565b60405180910390fd5b5f85805f0190610a799190613cd5565b905011610abb576040517f08c379a0000000000000000000000000000000000000000000000000000000008152600401610ab290613de9565b60405180910390fd5b60025f8660a0013581526020019081526020015f206004015f9054906101000a900460ff16610b1f576040517f08c379a0000000000000000000000000000000000000000000000000000000008152600401610b1690613b73565b60405180910390fd5b60035f8660a0013581526020019081526020015f205f3373ffffffffffffffffffffffffffffffffffffffff1673ffffffffffffffffffffffffffffffffffffffff1681526020019081526020015f205f9054906101000a900460ff16610bbb576040517f08c379a0000000000000000000000000000000000000000000000000000000008152600401610bb290613e51565b60405180910390fd5b5f85805f0190610bcb9190613cd5565b604051610bd9929190613eab565b6040518091039020905060075f8281526020019081526020015f205f9054906101000a900460ff1615610c41576040517f08c379a0000000000000000000000000000000000000000000000000000000008152600401610c3890613f0d565b60405180910390fd5b5f33828860a001358846604051602001610c5f959493929190613fb0565b6040516020818303038152906040528051906020012090505f81604051602001610c899190614062565b6040516020818303038152906040528051906020012090507f000000000000000000000000000000000000000000000000000000000000000073ffffffffffffffffffffffffffffffffffffffff16610ce482888888612ad5565b73ffffffffffffffffffffffffffffffffffffffff1614610d3a576040517f08c379a0000000000000000000000000000000000000000000000000000000008152600401610d31906140d1565b60405180910390fd5b5f600580549050905060056040518061014001604052808681526020018b8060200190610d679190613cd5565b8080601f0160208091040260200160405190810160405280939291908181526020018383808284375f81840152601f19601f8201169050808301925050505050505081526020018b8060400190610dbe9190613cd5565b8080601f0160208091040260200160405190810160405280939291908181526020018383808284375f81840152601f19601f8201169050808301925050505050505081526020018b8060600190610e1591906140ef565b90610e20919061431c565b81526020018b8060800190610e359190613cd5565b8080601f0160208091040260200160405190810160405280939291908181526020018383808284375f81840152601f19601f8201169050808301925050505050505081526020018b60a0013581526020013373ffffffffffffffffffffffffffffffffffffffff1681526020014281526020018b60c0016020810190610ebb919061435a565b151581526020018b805f0190610ed19190613cd5565b8080601f0160208091040260200160405190810160405280939291908181526020018383808284375f81840152601f19601f82011690508083019250505050505050815250908060018154018082558091505060019003905f5260205f2090600a02015f909190919091505f820151815f01556020820151816001019081610f599190614525565b506040820151816002019081610f6f9190614525565b506060820151816003019080519060200190610f8c929190612d4c565b506080820151816004019081610fa29190614525565b5060a0820151816005015560c0820151816006015f6101000a81548173ffffffffffffffffffffffffffffffffffffffff021916908373ffffffffffffffffffffffffffffffffffffffff16021790555060e08201518160070155610100820151816008015f6101000a81548160ff0219169083151502179055506101208201518160090190816110339190614525565b505050600160075f8681526020019081526020015f205f6101000a81548160ff02191690831515021790555060065f8a60a0013581526020019081526020015f2081908060018154018082558091505060019003905f5260205f20015f90919091909150558860a0013584827f04e650539dad9eed63c6a41177a8c1a0875a45e6aa29200c03eb679ea85ae8dd338d80602001906110d19190613cd5565b8f80604001906110e19190613cd5565b6040516110f2959493929190614620565b60405180910390a4505050505050505050565b606060045f8381526020019081526020015f2080548060200260200160405190810160405280929190818152602001828054801561119557602002820191905f5260205f20905b815f9054906101000a900473ffffffffffffffffffffffffffffffffffffffff1673ffffffffffffffffffffffffffffffffffffffff168152602001906001019080831161114c575b50505050509050919050565b5f5f85859050116111e7576040517f08c379a00000000000000000000000000000000000000000000000000000000081526004016111de90613d81565b60405180910390fd5b60015f8154809291906111f990614694565b9190505590506040518060a001604052803373ffffffffffffffffffffffffffffffffffffffff16815260200186868080601f0160208091040260200160405190810160405280939291908181526020018383808284375f81840152601f19601f82011690508083019250505050505050815260200184848080601f0160208091040260200160405190810160405280939291908181526020018383808284375f81840152601f19601f8201169050808301925050505050505081526020014281526020016001151581525060025f8381526020019081526020015f205f820151815f015f6101000a81548173ffffffffffffffffffffffffffffffffffffffff021916908373ffffffffffffffffffffffffffffffffffffffff160217905550602082015181600101908161132f9190614525565b5060408201518160020190816113459190614525565b50606082015181600301556080820151816004015f6101000a81548160ff021916908315150217905550905050600160035f8381526020019081526020015f205f3373ffffffffffffffffffffffffffffffffffffffff1673ffffffffffffffffffffffffffffffffffffffff1681526020019081526020015f205f6101000a81548160ff02191690831515021790555060045f8281526020019081526020015f2033908060018154018082558091505060019003905f5260205f20015f9091909190916101000a81548173ffffffffffffffffffffffffffffffffffffffff021916908373ffffffffffffffffffffffffffffffffffffffff1602179055503373ffffffffffffffffffffffffffffffffffffffff16817f9d9ec461f162f3f4fdb9f6d189bfe13c59e48d8acd23a4c3bfcf7cc0fe4e84ed878760405161148e9291906146db565b60405180910390a3949350505050565b6004602052815f5260405f2081815481106114b7575f80fd5b905f5260205f20015f915091509054906101000a900473ffffffffffffffffffffffffffffffffffffffff1681565b7f000000000000000000000000000000000000000000000000000000000000000073ffffffffffffffffffffffffffffffffffffffff163373ffffffffffffffffffffffffffffffffffffffff1614611574576040517f08c379a000000000000000000000000000000000000000000000000000000000815260040161156b90614747565b60405180910390fd5b5f5f5f8373ffffffffffffffffffffffffffffffffffffffff1673ffffffffffffffffffffffffffffffffffffffff1681526020019081526020015f205f6101000a81548160ff0219169083151502179055507f7a9f1e23d5426b34819d173153d59084cc3578d5a129b80bb27df683ac6b2278816040516115f691906131be565b60405180910390a150565b6060600580549050831061164a576040517f08c379a0000000000000000000000000000000000000000000000000000000008152600401611641906147af565b60405180910390fd5b5f600580549050838561165d91906147cd565b1161167357828461166e91906147cd565b61167a565b6005805490505b90505f84826116899190614800565b67ffffffffffffffff8111156116a2576116a1614151565b5b6040519080825280602002602001820160405280156116db57816020015b6116c8612da3565b8152602001906001900390816116c05790505b5090505f8590505b82811015611aed57600581815481106116ff576116fe614833565b5b905f5260205f2090600a0201604051806101400160405290815f820154815260200160018201805461173090613af9565b80601f016020809104026020016040519081016040528092919081815260200182805461175c90613af9565b80156117a75780601f1061177e576101008083540402835291602001916117a7565b820191905f5260205f20905b81548152906001019060200180831161178a57829003601f168201915b505050505081526020016002820180546117c090613af9565b80601f01602080910402602001604051908101604052809291908181526020018280546117ec90613af9565b80156118375780601f1061180e57610100808354040283529160200191611837565b820191905f5260205f20905b81548152906001019060200180831161181a57829003601f168201915b5050505050815260200160038201805480602002602001604051908101604052809291908181526020015f905b8282101561190c578382905f5260205f2001805461188190613af9565b80601f01602080910402602001604051908101604052809291908181526020018280546118ad90613af9565b80156118f85780601f106118cf576101008083540402835291602001916118f8565b820191905f5260205f20905b8154815290600101906020018083116118db57829003601f168201915b505050505081526020019060010190611864565b50505050815260200160048201805461192490613af9565b80601f016020809104026020016040519081016040528092919081815260200182805461195090613af9565b801561199b5780601f106119725761010080835404028352916020019161199b565b820191905f5260205f20905b81548152906001019060200180831161197e57829003601f168201915b5050505050815260200160058201548152602001600682015f9054906101000a900473ffffffffffffffffffffffffffffffffffffffff1673ffffffffffffffffffffffffffffffffffffffff1673ffffffffffffffffffffffffffffffffffffffff16815260200160078201548152602001600882015f9054906101000a900460ff16151515158152602001600982018054611a3790613af9565b80601f0160208091040260200160405190810160405280929190818152602001828054611a6390613af9565b8015611aae5780601f10611a8557610100808354040283529160200191611aae565b820191905f5260205f20905b815481529060010190602001808311611a9157829003601f168201915b505050505081525050828783611ac49190614800565b81518110611ad557611ad4614833565b5b602002602001018190525080806001019150506116e3565b50809250505092915050565b5f60035f8481526020019081526020015f205f8373ffffffffffffffffffffffffffffffffffffffff1673ffffffffffffffffffffffffffffffffffffffff1681526020019081526020015f205f9054906101000a900460ff16905092915050565b8160025f8281526020019081526020015f206004015f9054906101000a900460ff16611bbc576040517f08c379a0000000000000000000000000000000000000000000000000000000008152600401611bb390613b73565b60405180910390fd5b3373ffffffffffffffffffffffffffffffffffffffff1660025f8381526020019081526020015f205f015f9054906101000a900473ffffffffffffffffffffffffffffffffffffffff1673ffffffffffffffffffffffffffffffffffffffff1614611c5c576040517f08c379a0000000000000000000000000000000000000000000000000000000008152600401611c5390613bdb565b60405180910390fd5b5f73ffffffffffffffffffffffffffffffffffffffff168273ffffffffffffffffffffffffffffffffffffffff1603611cca576040517f08c379a0000000000000000000000000000000000000000000000000000000008152600401611cc1906148aa565b60405180910390fd5b60035f8481526020019081526020015f205f8373ffffffffffffffffffffffffffffffffffffffff1673ffffffffffffffffffffffffffffffffffffffff1681526020019081526020015f205f9054906101000a900460ff1615611d63576040517f08c379a0000000000000000000000000000000000000000000000000000000008152600401611d5a90614912565b60405180910390fd5b600160035f8581526020019081526020015f205f8473ffffffffffffffffffffffffffffffffffffffff1673ffffffffffffffffffffffffffffffffffffffff1681526020019081526020015f205f6101000a81548160ff02191690831515021790555060045f8481526020019081526020015f2082908060018154018082558091505060019003905f5260205f20015f9091909190916101000a81548173ffffffffffffffffffffffffffffffffffffffff021916908373ffffffffffffffffffffffffffffffffffffffff1602179055508173ffffffffffffffffffffffffffffffffffffffff16837f7c29733edbbbc7f83fc8c5fb3231ab4c21421e8da3e7bb05cddc0c2be2d0cf6560405160405180910390a3505050565b606060065f8381526020019081526020015f20805480602002602001604051908101604052809291908181526020018280548015611eda57602002820191905f5260205f20905b815481526020019060010190808311611ec6575b50505050509050919050565b60058181548110611ef5575f80fd5b905f5260205f2090600a02015f91509050805f015490806001018054611f1a90613af9565b80601f0160208091040260200160405190810160405280929190818152602001828054611f4690613af9565b8015611f915780601f10611f6857610100808354040283529160200191611f91565b820191905f5260205f20905b815481529060010190602001808311611f7457829003601f168201915b505050505090806002018054611fa690613af9565b80601f0160208091040260200160405190810160405280929190818152602001828054611fd290613af9565b801561201d5780601f10611ff45761010080835404028352916020019161201d565b820191905f5260205f20905b81548152906001019060200180831161200057829003601f168201915b50505050509080600401805461203290613af9565b80601f016020809104026020016040519081016040528092919081815260200182805461205e90613af9565b80156120a95780601f10612080576101008083540402835291602001916120a9565b820191905f5260205f20905b81548152906001019060200180831161208c57829003601f168201915b505050505090806005015490806006015f9054906101000a900473ffffffffffffffffffffffffffffffffffffffff1690806007015490806008015f9054906101000a900460ff169080600901805461210190613af9565b80601f016020809104026020016040519081016040528092919081815260200182805461212d90613af9565b80156121785780601f1061214f57610100808354040283529160200191612178565b820191905f5260205f20905b81548152906001019060200180831161215b57829003601f168201915b5050505050905089565b7f000000000000000000000000000000000000000000000000000000000000000073ffffffffffffffffffffffffffffffffffffffff163373ffffffffffffffffffffffffffffffffffffffff1614612210576040517f08c379a000000000000000000000000000000000000000000000000000000000815260040161220790614747565b60405180910390fd5b60015f5f8373ffffffffffffffffffffffffffffffffffffffff1673ffffffffffffffffffffffffffffffffffffffff1681526020019081526020015f205f6101000a81548160ff0219169083151502179055507fd378ad41c1a753fd1ba9ec0fcd7970526c175b68545b4a02d6d15e7606fe35968160405161229391906131be565b60405180910390a150565b6122a6612da3565b60058054905082106122ed576040517f08c379a00000000000000000000000000000000000000000000000000000000081526004016122e49061497a565b60405180910390fd5b6005828154811061230157612300614833565b5b905f5260205f2090600a0201604051806101400160405290815f820154815260200160018201805461233290613af9565b80601f016020809104026020016040519081016040528092919081815260200182805461235e90613af9565b80156123a95780601f10612380576101008083540402835291602001916123a9565b820191905f5260205f20905b81548152906001019060200180831161238c57829003601f168201915b505050505081526020016002820180546123c290613af9565b80601f01602080910402602001604051908101604052809291908181526020018280546123ee90613af9565b80156124395780601f1061241057610100808354040283529160200191612439565b820191905f5260205f20905b81548152906001019060200180831161241c57829003601f168201915b5050505050815260200160038201805480602002602001604051908101604052809291908181526020015f905b8282101561250e578382905f5260205f2001805461248390613af9565b80601f01602080910402602001604051908101604052809291908181526020018280546124af90613af9565b80156124fa5780601f106124d1576101008083540402835291602001916124fa565b820191905f5260205f20905b8154815290600101906020018083116124dd57829003601f168201915b505050505081526020019060010190612466565b50505050815260200160048201805461252690613af9565b80601f016020809104026020016040519081016040528092919081815260200182805461255290613af9565b801561259d5780601f106125745761010080835404028352916020019161259d565b820191905f5260205f20905b81548152906001019060200180831161258057829003601f168201915b5050505050815260200160058201548152602001600682015f9054906101000a900473ffffffffffffffffffffffffffffffffffffffff1673ffffffffffffffffffffffffffffffffffffffff1673ffffffffffffffffffffffffffffffffffffffff16815260200160078201548152602001600882015f9054906101000a900460ff1615151515815260200160098201805461263990613af9565b80601f016020809104026020016040519081016040528092919081815260200182805461266590613af9565b80156126b05780601f10612687576101008083540402835291602001916126b0565b820191905f5260205f20905b81548152906001019060200180831161269357829003601f168201915b5050505050815250509050919050565b7f000000000000000000000000000000000000000000000000000000000000000073ffffffffffffffffffffffffffffffffffffffff163373ffffffffffffffffffffffffffffffffffffffff16148061275f57505f5f3373ffffffffffffffffffffffffffffffffffffffff1673ffffffffffffffffffffffffffffffffffffffff1681526020019081526020015f205f9054906101000a900460ff165b61279e576040517f08c379a0000000000000000000000000000000000000000000000000000000008152600401612795906149e2565b60405180910390fd5b60058054905081106127e5576040517f08c379a00000000000000000000000000000000000000000000000000000000081526004016127dc9061497a565b60405180910390fd5b5f600582815481106127fa576127f9614833565b5b905f5260205f2090600a020190505f815f0154905060075f8281526020019081526020015f205f6101000a81549060ff0219169055827f1e781b78f3477088ee1531c97151f4d6bef331e35b572c88360b2d65637ddac88260405161285f9190614a00565b60405180910390a2505050565b7f000000000000000000000000000000000000000000000000000000000000000081565b60015481565b61289e612e09565b60025f8381526020019081526020015f206004015f9054906101000a900460ff166128fe576040517f08c379a00000000000000000000000000000000000000000000000000000000081526004016128f590613b73565b60405180910390fd5b60025f8381526020019081526020015f206040518060a00160405290815f82015f9054906101000a900473ffffffffffffffffffffffffffffffffffffffff1673ffffffffffffffffffffffffffffffffffffffff1673ffffffffffffffffffffffffffffffffffffffff16815260200160018201805461297e90613af9565b80601f01602080910402602001604051908101604052809291908181526020018280546129aa90613af9565b80156129f55780601f106129cc576101008083540402835291602001916129f5565b820191905f5260205f20905b8154815290600101906020018083116129d857829003601f168201915b50505050508152602001600282018054612a0e90613af9565b80601f0160208091040260200160405190810160405280929190818152602001828054612a3a90613af9565b8015612a855780601f10612a5c57610100808354040283529160200191612a85565b820191905f5260205f20905b815481529060010190602001808311612a6857829003601f168201915b5050505050815260200160038201548152602001600482015f9054906101000a900460ff1615151515815250509050919050565b5f602052805f5260405f205f915054906101000a900460ff1681565b5f5f5f5f612ae588888888612b03565b925092509250612af58282612bea565b829350505050949350505050565b5f5f5f7f7fffffffffffffffffffffffffffffff5d576e7357a4501ddfe92f46681b20a0845f1c1115612b3f575f600385925092509250612be0565b5f6001888888886040515f8152602001604052604051612b629493929190614a28565b6020604051602081039080840390855afa158015612b82573d5f5f3e3d5ffd5b5050506020604051035190505f73ffffffffffffffffffffffffffffffffffffffff168173ffffffffffffffffffffffffffffffffffffffff1603612bd3575f60015f5f1b93509350935050612be0565b805f5f5f1b935093509350505b9450945094915050565b5f6003811115612bfd57612bfc614a6b565b5b826003811115612c1057612c0f614a6b565b5b0315612d485760016003811115612c2a57612c29614a6b565b5b826003811115612c3d57612c3c614a6b565b5b03612c74576040517ff645eedf00000000000000000000000000000000000000000000000000000000815260040160405180910390fd5b60026003811115612c8857612c87614a6b565b5b826003811115612c9b57612c9a614a6b565b5b03612cdf57805f1c6040517ffce698f7000000000000000000000000000000000000000000000000000000008152600401612cd69190613088565b60405180910390fd5b600380811115612cf257612cf1614a6b565b5b826003811115612d0557612d04614a6b565b5b03612d4757806040517fd78bce0c000000000000000000000000000000000000000000000000000000008152600401612d3e9190614a00565b60405180910390fd5b5b5050565b828054828255905f5260205f20908101928215612d92579160200282015b82811115612d91578251829081612d819190614525565b5091602001919060010190612d6a565b5b509050612d9f9190612e4d565b5090565b6040518061014001604052805f8152602001606081526020016060815260200160608152602001606081526020015f81526020015f73ffffffffffffffffffffffffffffffffffffffff1681526020015f81526020015f15158152602001606081525090565b6040518060a001604052805f73ffffffffffffffffffffffffffffffffffffffff16815260200160608152602001606081526020015f81526020015f151581525090565b5b80821115612e6c575f8181612e639190612e70565b50600101612e4e565b5090565b508054612e7c90613af9565b5f825580601f10612e8d5750612eaa565b601f0160209004905f5260205f2090810190612ea99190612ead565b5b50565b5b80821115612ec4575f815f905550600101612eae565b5090565b5f604051905090565b5f5ffd5b5f5ffd5b5f819050919050565b612eeb81612ed9565b8114612ef5575f5ffd5b50565b5f81359050612f0681612ee2565b92915050565b5f60208284031215612f2157612f20612ed1565b5b5f612f2e84828501612ef8565b91505092915050565b5f73ffffffffffffffffffffffffffffffffffffffff82169050919050565b5f612f6082612f37565b9050919050565b612f7081612f56565b82525050565b5f81519050919050565b5f82825260208201905092915050565b5f5b83811015612fad578082015181840152602081019050612f92565b5f8484015250505050565b5f601f19601f8301169050919050565b5f612fd282612f76565b612fdc8185612f80565b9350612fec818560208601612f90565b612ff581612fb8565b840191505092915050565b61300981612ed9565b82525050565b5f8115159050919050565b6130238161300f565b82525050565b5f60a08201905061303c5f830188612f67565b818103602083015261304e8187612fc8565b905081810360408301526130628186612fc8565b90506130716060830185613000565b61307e608083018461301a565b9695505050505050565b5f60208201905061309b5f830184613000565b92915050565b6130aa81612f56565b81146130b4575f5ffd5b50565b5f813590506130c5816130a1565b92915050565b5f5f604083850312156130e1576130e0612ed1565b5b5f6130ee85828601612ef8565b92505060206130ff858286016130b7565b9150509250929050565b5f60208201905061311c5f83018461301a565b92915050565b5f5f6040838503121561313857613137612ed1565b5b5f61314585828601612ef8565b925050602061315685828601612ef8565b9150509250929050565b5f819050919050565b61317281613160565b811461317c575f5ffd5b50565b5f8135905061318d81613169565b92915050565b5f602082840312156131a8576131a7612ed1565b5b5f6131b58482850161317f565b91505092915050565b5f6020820190506131d15f830184612f67565b92915050565b5f5ffd5b5f60e082840312156131f0576131ef6131d7565b5b81905092915050565b5f60ff82169050919050565b61320e816131f9565b8114613218575f5ffd5b50565b5f8135905061322981613205565b92915050565b5f5f5f5f5f60a0868803121561324857613247612ed1565b5b5f86013567ffffffffffffffff81111561326557613264612ed5565b5b613271888289016131db565b955050602061328288828901612ef8565b94505060406132938882890161321b565b93505060606132a48882890161317f565b92505060806132b58882890161317f565b9150509295509295909350565b5f81519050919050565b5f82825260208201905092915050565b5f819050602082019050919050565b6132f481612f56565b82525050565b5f61330583836132eb565b60208301905092915050565b5f602082019050919050565b5f613327826132c2565b61333181856132cc565b935061333c836132dc565b805f5b8381101561336c57815161335388826132fa565b975061335e83613311565b92505060018101905061333f565b5085935050505092915050565b5f6020820190508181035f830152613391818461331d565b905092915050565b5f5ffd5b5f5ffd5b5f5ffd5b5f5f83601f8401126133ba576133b9613399565b5b8235905067ffffffffffffffff8111156133d7576133d661339d565b5b6020830191508360018202830111156133f3576133f26133a1565b5b9250929050565b5f5f5f5f6040858703121561341257613411612ed1565b5b5f85013567ffffffffffffffff81111561342f5761342e612ed5565b5b61343b878288016133a5565b9450945050602085013567ffffffffffffffff81111561345e5761345d612ed5565b5b61346a878288016133a5565b925092505092959194509250565b5f6020828403121561348d5761348c612ed1565b5b5f61349a848285016130b7565b91505092915050565b5f81519050919050565b5f82825260208201905092915050565b5f819050602082019050919050565b6134d581613160565b82525050565b5f82825260208201905092915050565b5f6134f582612f76565b6134ff81856134db565b935061350f818560208601612f90565b61351881612fb8565b840191505092915050565b5f81519050919050565b5f82825260208201905092915050565b5f819050602082019050919050565b5f61355783836134eb565b905092915050565b5f602082019050919050565b5f61357582613523565b61357f818561352d565b9350836020820285016135918561353d565b805f5b858110156135cc57848403895281516135ad858261354c565b94506135b88361355f565b925060208a01995050600181019050613594565b50829750879550505050505092915050565b6135e781612ed9565b82525050565b6135f68161300f565b82525050565b5f61014083015f8301516136125f8601826134cc565b506020830151848203602086015261362a82826134eb565b9150506040830151848203604086015261364482826134eb565b9150506060830151848203606086015261365e828261356b565b9150506080830151848203608086015261367882826134eb565b91505060a083015161368d60a08601826135de565b5060c08301516136a060c08601826132eb565b5060e08301516136b360e08601826135de565b506101008301516136c86101008601826135ed565b506101208301518482036101208601526136e282826134eb565b9150508091505092915050565b5f6136fa83836135fc565b905092915050565b5f602082019050919050565b5f613718826134a3565b61372281856134ad565b935083602082028501613734856134bd565b805f5b8581101561376f578484038952815161375085826136ef565b945061375b83613702565b925060208a01995050600181019050613737565b50829750879550505050505092915050565b5f6020820190508181035f830152613799818461370e565b905092915050565b5f81519050919050565b5f82825260208201905092915050565b5f819050602082019050919050565b5f6137d583836135de565b60208301905092915050565b5f602082019050919050565b5f6137f7826137a1565b61380181856137ab565b935061380c836137bb565b805f5b8381101561383c57815161382388826137ca565b975061382e836137e1565b92505060018101905061380f565b5085935050505092915050565b5f6020820190508181035f83015261386181846137ed565b905092915050565b61387281613160565b82525050565b5f6101208201905061388c5f83018c613869565b818103602083015261389e818b612fc8565b905081810360408301526138b2818a612fc8565b905081810360608301526138c68189612fc8565b90506138d56080830188613000565b6138e260a0830187612f67565b6138ef60c0830186613000565b6138fc60e083018561301a565b81810361010083015261390f8184612fc8565b90509a9950505050505050505050565b5f61014083015f8301516139355f8601826134cc565b506020830151848203602086015261394d82826134eb565b9150506040830151848203604086015261396782826134eb565b91505060608301518482036060860152613981828261356b565b9150506080830151848203608086015261399b82826134eb565b91505060a08301516139b060a08601826135de565b5060c08301516139c360c08601826132eb565b5060e08301516139d660e08601826135de565b506101008301516139eb6101008601826135ed565b50610120830151848203610120860152613a0582826134eb565b9150508091505092915050565b5f6020820190508181035f830152613a2a818461391f565b905092915050565b5f60a083015f830151613a475f8601826132eb565b5060208301518482036020860152613a5f82826134eb565b91505060408301518482036040860152613a7982826134eb565b9150506060830151613a8e60608601826135de565b506080830151613aa160808601826135ed565b508091505092915050565b5f6020820190508181035f830152613ac48184613a32565b905092915050565b7f4e487b71000000000000000000000000000000000000000000000000000000005f52602260045260245ffd5b5f6002820490506001821680613b1057607f821691505b602082108103613b2357613b22613acc565b5b50919050565b7f50726f6a65637420646f6573206e6f74206578697374000000000000000000005f82015250565b5f613b5d601683612f80565b9150613b6882613b29565b602082019050919050565b5f6020820190508181035f830152613b8a81613b51565b9050919050565b7f4e6f742070726f6a6563742063726561746f72000000000000000000000000005f82015250565b5f613bc5601383612f80565b9150613bd082613b91565b602082019050919050565b5f6020820190508181035f830152613bf281613bb9565b9050919050565b7f4e6f74206120636f6e7472696275746f720000000000000000000000000000005f82015250565b5f613c2d601183612f80565b9150613c3882613bf9565b602082019050919050565b5f6020820190508181035f830152613c5a81613c21565b9050919050565b7f43616e6e6f742072656d6f76652063726561746f7200000000000000000000005f82015250565b5f613c95601583612f80565b9150613ca082613c61565b602082019050919050565b5f6020820190508181035f830152613cc281613c89565b9050919050565b5f5ffd5b5f5ffd5b5f5ffd5b5f5f83356001602003843603038112613cf157613cf0613cc9565b5b80840192508235915067ffffffffffffffff821115613d1357613d12613ccd565b5b602083019250600182023603831315613d2f57613d2e613cd1565b5b509250929050565b7f5469746c652072657175697265640000000000000000000000000000000000005f82015250565b5f613d6b600e83612f80565b9150613d7682613d37565b602082019050919050565b5f6020820190508181035f830152613d9881613d5f565b9050919050565b7f456e6372797074656420626c6f622072657175697265640000000000000000005f82015250565b5f613dd3601783612f80565b9150613dde82613d9f565b602082019050919050565b5f6020820190508181035f830152613e0081613dc7565b9050919050565b7f4e6f7420617574686f72697a656420666f7220746869732070726f6a656374005f82015250565b5f613e3b601f83612f80565b9150613e4682613e07565b602082019050919050565b5f6020820190508181035f830152613e6881613e2f565b9050919050565b5f81905092915050565b828183375f83830152505050565b5f613e928385613e6f565b9350613e9f838584613e79565b82840190509392505050565b5f613eb7828486613e87565b91508190509392505050565b7f4475706c6963617465207375626d697373696f6e0000000000000000000000005f82015250565b5f613ef7601483612f80565b9150613f0282613ec3565b602082019050919050565b5f6020820190508181035f830152613f2481613eeb565b9050919050565b5f8160601b9050919050565b5f613f4182613f2b565b9050919050565b5f613f5282613f37565b9050919050565b613f6a613f6582612f56565b613f48565b82525050565b5f819050919050565b613f8a613f8582613160565b613f70565b82525050565b5f819050919050565b613faa613fa582612ed9565b613f90565b82525050565b5f613fbb8288613f59565b601482019150613fcb8287613f79565b602082019150613fdb8286613f99565b602082019150613feb8285613f99565b602082019150613ffb8284613f99565b6020820191508190509695505050505050565b5f81905092915050565b7f19457468657265756d205369676e6564204d6573736167653a0a3332000000005f82015250565b5f61404c601c8361400e565b915061405782614018565b601c82019050919050565b5f61406c82614040565b91506140788284613f79565b60208201915081905092915050565b7f496e76616c6964207369676e61747572650000000000000000000000000000005f82015250565b5f6140bb601183612f80565b91506140c682614087565b602082019050919050565b5f6020820190508181035f8301526140e8816140af565b9050919050565b5f5f8335600160200384360303811261410b5761410a613cc9565b5b80840192508235915067ffffffffffffffff82111561412d5761412c613ccd565b5b60208301925060208202360383131561414957614148613cd1565b5b509250929050565b7f4e487b71000000000000000000000000000000000000000000000000000000005f52604160045260245ffd5b61418782612fb8565b810181811067ffffffffffffffff821117156141a6576141a5614151565b5b80604052505050565b5f6141b8612ec8565b90506141c4828261417e565b919050565b5f67ffffffffffffffff8211156141e3576141e2614151565b5b602082029050602081019050919050565b5f5ffd5b5f67ffffffffffffffff82111561421257614211614151565b5b61421b82612fb8565b9050602081019050919050565b5f61423a614235846141f8565b6141af565b905082815260208101848484011115614256576142556141f4565b5b614261848285613e79565b509392505050565b5f82601f83011261427d5761427c613399565b5b813561428d848260208601614228565b91505092915050565b5f6142a86142a3846141c9565b6141af565b905080838252602082019050602084028301858111156142cb576142ca6133a1565b5b835b8181101561431257803567ffffffffffffffff8111156142f0576142ef613399565b5b8086016142fd8982614269565b855260208501945050506020810190506142cd565b5050509392505050565b5f614328368484614296565b905092915050565b6143398161300f565b8114614343575f5ffd5b50565b5f8135905061435481614330565b92915050565b5f6020828403121561436f5761436e612ed1565b5b5f61437c84828501614346565b91505092915050565b5f819050815f5260205f209050919050565b5f6020601f8301049050919050565b5f82821b905092915050565b5f600883026143e17fffffffffffffffffffffffffffffffffffffffffffffffffffffffffffffffff826143a6565b6143eb86836143a6565b95508019841693508086168417925050509392505050565b5f819050919050565b5f61442661442161441c84612ed9565b614403565b612ed9565b9050919050565b5f819050919050565b61443f8361440c565b61445361444b8261442d565b8484546143b2565b825550505050565b5f5f905090565b61446a61445b565b614475818484614436565b505050565b5b818110156144985761448d5f82614462565b60018101905061447b565b5050565b601f8211156144dd576144ae81614385565b6144b784614397565b810160208510156144c6578190505b6144da6144d285614397565b83018261447a565b50505b505050565b5f82821c905092915050565b5f6144fd5f19846008026144e2565b1980831691505092915050565b5f61451583836144ee565b9150826002028217905092915050565b61452e82612f76565b67ffffffffffffffff81111561454757614546614151565b5b6145518254613af9565b61455c82828561449c565b5f60209050601f83116001811461458d575f841561457b578287015190505b614585858261450a565b8655506145ec565b601f19841661459b86614385565b5f5b828110156145c25784890151825560018201915060208501945060208101905061459d565b868310156145df57848901516145db601f8916826144ee565b8355505b6001600288020188555050505b505050505050565b5f6145ff8385612f80565b935061460c838584613e79565b61461583612fb8565b840190509392505050565b5f6060820190506146335f830188612f67565b81810360208301526146468186886145f4565b9050818103604083015261465b8184866145f4565b90509695505050505050565b7f4e487b71000000000000000000000000000000000000000000000000000000005f52601160045260245ffd5b5f61469e82612ed9565b91507fffffffffffffffffffffffffffffffffffffffffffffffffffffffffffffffff82036146d0576146cf614667565b5b600182019050919050565b5f6020820190508181035f8301526146f48184866145f4565b90509392505050565b7f4e6f742061646d696e00000000000000000000000000000000000000000000005f82015250565b5f614731600983612f80565b915061473c826146fd565b602082019050919050565b5f6020820190508181035f83015261475e81614725565b9050919050565b7f5374617274206f7574206f6620626f756e6473000000000000000000000000005f82015250565b5f614799601383612f80565b91506147a482614765565b602082019050919050565b5f6020820190508181035f8301526147c68161478d565b9050919050565b5f6147d782612ed9565b91506147e283612ed9565b92508282019050808211156147fa576147f9614667565b5b92915050565b5f61480a82612ed9565b915061481583612ed9565b925082820390508181111561482d5761482c614667565b5b92915050565b7f4e487b71000000000000000000000000000000000000000000000000000000005f52603260045260245ffd5b7f5a65726f206164647265737300000000000000000000000000000000000000005f82015250565b5f614894600c83612f80565b915061489f82614860565b602082019050919050565b5f6020820190508181035f8301526148c181614888565b9050919050565b7f416c726561647920636f6e7472696275746f72000000000000000000000000005f82015250565b5f6148fc601383612f80565b9150614907826148c8565b602082019050919050565b5f6020820190508181035f830152614929816148f0565b9050919050565b7f496e76616c696420656e747279000000000000000000000000000000000000005f82015250565b5f614964600d83612f80565b915061496f82614930565b602082019050919050565b5f6020820190508181035f83015261499181614958565b9050919050565b7f4e6f74206d6f64657261746f72000000000000000000000000000000000000005f82015250565b5f6149cc600d83612f80565b91506149d782614998565b602082019050919050565b5f6020820190508181035f8301526149f9816149c0565b9050919050565b5f602082019050614a135f830184613869565b92915050565b614a22816131f9565b82525050565b5f608082019050614a3b5f830187613869565b614a486020830186614a19565b614a556040830185613869565b614a626060830184613869565b95945050505050565b7f4e487b71000000000000000000000000000000000000000000000000000000005f52602160045260245ffdfea2646970667358221220635a39e1bdc49193a3021956f340a31bbc10d625e02088eec702af342030f48d64736f6c634300081f0033",
			"opcodes": "PUSH1 0xC0 PUSH1 0x40 MSTORE PUSH1 0x1 DUP1 SSTORE CALLVALUE DUP1 ISZERO PUSH2 0x13 JUMPI PUSH0 PUSH0 REVERT JUMPDEST POP PUSH1 0x40 MLOAD PUSH2 0x4D1D CODESIZE SUB DUP1 PUSH2 0x4D1D DUP4 CODECOPY DUP2 DUP2 ADD PUSH1 0x40 MSTORE DUP2 ADD SWAP1 PUSH2 0x35 SWAP2 SWAP1 PUSH2 0x16F JUMP JUMPDEST PUSH0 PUSH20 0xFFFFFFFFFFFFFFFFFFFFFFFFFFFFFFFFFFFFFFFF AND DUP2 PUSH20 0xFFFFFFFFFFFFFFFFFFFFFFFFFFFFFFFFFFFFFFFF AND SUB PUSH2 0xA3 JUMPI PUSH1 0x40 MLOAD PUSH32 0x8C379A000000000000000000000000000000000000000000000000000000000 DUP2 MSTORE PUSH1 0x4 ADD PUSH2 0x9A SWAP1 PUSH2 0x1F4 JUMP JUMPDEST PUSH1 0x40 MLOAD DUP1 SWAP2 SUB SWAP1 REVERT JUMPDEST CALLER PUSH20 0xFFFFFFFFFFFFFFFFFFFFFFFFFFFFFFFFFFFFFFFF AND PUSH1 0x80 DUP2 PUSH20 0xFFFFFFFFFFFFFFFFFFFFFFFFFFFFFFFFFFFFFFFF AND DUP2 MSTORE POP POP DUP1 PUSH20 0xFFFFFFFFFFFFFFFFFFFFFFFFFFFFFFFFFFFFFFFF AND PUSH1 0xA0 DUP2 PUSH20 0xFFFFFFFFFFFFFFFFFFFFFFFFFFFFFFFFFFFFFFFF AND DUP2 MSTORE POP POP POP PUSH2 0x212 JUMP JUMPDEST PUSH0 PUSH0 REVERT JUMPDEST PUSH0 PUSH20 0xFFFFFFFFFFFFFFFFFFFFFFFFFFFFFFFFFFFFFFFF DUP3 AND SWAP1 POP SWAP2 SWAP1 POP JUMP JUMPDEST PUSH0 PUSH2 0x13E DUP3 PUSH2 0x115 JUMP JUMPDEST SWAP1 POP SWAP2 SWAP1 POP JUMP JUMPDEST PUSH2 0x14E DUP2 PUSH2 0x134 JUMP JUMPDEST DUP2 EQ PUSH2 0x158 JUMPI PUSH0 PUSH0 REVERT JUMPDEST POP JUMP JUMPDEST PUSH0 DUP2 MLOAD SWAP1 POP PUSH2 0x169 DUP2 PUSH2 0x145 JUMP JUMPDEST SWAP3 SWAP2 POP POP JUMP JUMPDEST PUSH0 PUSH1 0x20 DUP3 DUP5 SUB SLT ISZERO PUSH2 0x184 JUMPI PUSH2 0x183 PUSH2 0x111 JUMP JUMPDEST JUMPDEST PUSH0 PUSH2 0x191 DUP5 DUP3 DUP6 ADD PUSH2 0x15B JUMP JUMPDEST SWAP2 POP POP SWAP3 SWAP2 POP POP JUMP JUMPDEST PUSH0 DUP3 DUP3 MSTORE PUSH1 0x20 DUP3 ADD SWAP1 POP SWAP3 SWAP2 POP POP JUMP JUMPDEST PUSH32 0x5369676E6572207A65726F000000000000000000000000000000000000000000 PUSH0 DUP3 ADD MSTORE POP JUMP JUMPDEST PUSH0 PUSH2 0x1DE PUSH1 0xB DUP4 PUSH2 0x19A JUMP JUMPDEST SWAP2 POP PUSH2 0x1E9 DUP3 PUSH2 0x1AA JUMP JUMPDEST PUSH1 0x20 DUP3 ADD SWAP1 POP SWAP2 SWAP1 POP JUMP JUMPDEST PUSH0 PUSH1 0x20 DUP3 ADD SWAP1 POP DUP2 DUP2 SUB PUSH0 DUP4 ADD MSTORE PUSH2 0x20B DUP2 PUSH2 0x1D2 JUMP JUMPDEST SWAP1 POP SWAP2 SWAP1 POP JUMP JUMPDEST PUSH1 0x80 MLOAD PUSH1 0xA0 MLOAD PUSH2 0x4ACE PUSH2 0x24F PUSH0 CODECOPY PUSH0 DUP2 DUP2 PUSH2 0xCA3 ADD MSTORE PUSH2 0x286E ADD MSTORE PUSH0 DUP2 DUP2 PUSH2 0x70F ADD MSTORE DUP2 DUP2 PUSH2 0x14E8 ADD MSTORE DUP2 DUP2 PUSH2 0x2184 ADD MSTORE PUSH2 0x26C2 ADD MSTORE PUSH2 0x4ACE PUSH0 RETURN INVALID PUSH1 0x80 PUSH1 0x40 MSTORE CALLVALUE DUP1 ISZERO PUSH2 0xF JUMPI PUSH0 PUSH0 REVERT JUMPDEST POP PUSH1 0x4 CALLDATASIZE LT PUSH2 0x156 JUMPI PUSH0 CALLDATALOAD PUSH1 0xE0 SHR DUP1 PUSH4 0x8719D5A7 GT PUSH2 0xC1 JUMPI DUP1 PUSH4 0xBAE78D7B GT PUSH2 0x7A JUMPI DUP1 PUSH4 0xBAE78D7B EQ PUSH2 0x43E JUMPI DUP1 PUSH4 0xC322F810 EQ PUSH2 0x46E JUMPI DUP1 PUSH4 0xCC001879 EQ PUSH2 0x48A JUMPI DUP1 PUSH4 0xE935B7B1 EQ PUSH2 0x4A8 JUMPI DUP1 PUSH4 0xF0F3F2C8 EQ PUSH2 0x4C6 JUMPI DUP1 PUSH4 0xFA6F3936 EQ PUSH2 0x4F6 JUMPI PUSH2 0x156 JUMP JUMPDEST DUP1 PUSH4 0x8719D5A7 EQ PUSH2 0x33E JUMPI DUP1 PUSH4 0x9EDA7D23 EQ PUSH2 0x36E JUMPI DUP1 PUSH4 0xAF3595BA EQ PUSH2 0x39E JUMPI DUP1 PUSH4 0xAF9344B8 EQ PUSH2 0x3BA JUMPI DUP1 PUSH4 0xB30906D4 EQ PUSH2 0x3EA JUMPI DUP1 PUSH4 0xB532E4CB EQ PUSH2 0x422 JUMPI PUSH2 0x156 JUMP JUMPDEST DUP1 PUSH4 0x305A9678 GT PUSH2 0x113 JUMPI DUP1 PUSH4 0x305A9678 EQ PUSH2 0x25A JUMPI DUP1 PUSH4 0x3AADC853 EQ PUSH2 0x276 JUMPI DUP1 PUSH4 0x3C1AB00F EQ PUSH2 0x292 JUMPI DUP1 PUSH4 0x6BD06204 EQ PUSH2 0x2C2 JUMPI DUP1 PUSH4 0x83100ED2 EQ PUSH2 0x2F2 JUMPI DUP1 PUSH4 0x869D785F EQ PUSH2 0x322 JUMPI PUSH2 0x156 JUMP JUMPDEST DUP1 PUSH4 0x107046BD EQ PUSH2 0x15A JUMPI DUP1 PUSH4 0x12D491C9 EQ PUSH2 0x18E JUMPI DUP1 PUSH4 0x21EFAC4C EQ PUSH2 0x1AC JUMPI DUP1 PUSH4 0x21F99ABD EQ PUSH2 0x1DC JUMPI DUP1 PUSH4 0x241DD7E9 EQ PUSH2 0x20C JUMPI DUP1 PUSH4 0x2A0ACC6A EQ PUSH2 0x23C JUMPI JUMPDEST PUSH0 PUSH0 REVERT JUMPDEST PUSH2 0x174 PUSH1 0x4 DUP1 CALLDATASIZE SUB DUP2 ADD SWAP1 PUSH2 0x16F SWAP2 SWAP1 PUSH2 0x2F0C JUMP JUMPDEST PUSH2 0x526 JUMP JUMPDEST PUSH1 0x40 MLOAD PUSH2 0x185 SWAP6 SWAP5 SWAP4 SWAP3 SWAP2 SWAP1 PUSH2 0x3029 JUMP JUMPDEST PUSH1 0x40 MLOAD DUP1 SWAP2 SUB SWAP1 RETURN JUMPDEST PUSH2 0x196 PUSH2 0x68F JUMP JUMPDEST PUSH1 0x40 MLOAD PUSH2 0x1A3 SWAP2 SWAP1 PUSH2 0x3088 JUMP JUMPDEST PUSH1 0x40 MLOAD DUP1 SWAP2 SUB SWAP1 RETURN JUMPDEST PUSH2 0x1C6 PUSH1 0x4 DUP1 CALLDATASIZE SUB DUP2 ADD SWAP1 PUSH2 0x1C1 SWAP2 SWAP1 PUSH2 0x30CB JUMP JUMPDEST PUSH2 0x69B JUMP JUMPDEST PUSH1 0x40 MLOAD PUSH2 0x1D3 SWAP2 SWAP1 PUSH2 0x3109 JUMP JUMPDEST PUSH1 0x40 MLOAD DUP1 SWAP2 SUB SWAP1 RETURN JUMPDEST PUSH2 0x1F6 PUSH1 0x4 DUP1 CALLDATASIZE SUB DUP2 ADD SWAP1 PUSH2 0x1F1 SWAP2 SWAP1 PUSH2 0x3122 JUMP JUMPDEST PUSH2 0x6C5 JUMP JUMPDEST PUSH1 0x40 MLOAD PUSH2 0x203 SWAP2 SWAP1 PUSH2 0x3088 JUMP JUMPDEST PUSH1 0x40 MLOAD DUP1 SWAP2 SUB SWAP1 RETURN JUMPDEST PUSH2 0x226 PUSH1 0x4 DUP1 CALLDATASIZE SUB DUP2 ADD SWAP1 PUSH2 0x221 SWAP2 SWAP1 PUSH2 0x3193 JUMP JUMPDEST PUSH2 0x6F0 JUMP JUMPDEST PUSH1 0x40 MLOAD PUSH2 0x233 SWAP2 SWAP1 PUSH2 0x3109 JUMP JUMPDEST PUSH1 0x40 MLOAD DUP1 SWAP2 SUB SWAP1 RETURN JUMPDEST PUSH2 0x244 PUSH2 0x70D JUMP JUMPDEST PUSH1 0x40 MLOAD PUSH2 0x251 SWAP2 SWAP1 PUSH2 0x31BE JUMP JUMPDEST PUSH1 0x40 MLOAD DUP1 SWAP2 SUB SWAP1 RETURN JUMPDEST PUSH2 0x274 PUSH1 0x4 DUP1 CALLDATASIZE SUB DUP2 ADD SWAP1 PUSH2 0x26F SWAP2 SWAP1 PUSH2 0x30CB JUMP JUMPDEST PUSH2 0x731 JUMP JUMPDEST STOP JUMPDEST PUSH2 0x290 PUSH1 0x4 DUP1 CALLDATASIZE SUB DUP2 ADD SWAP1 PUSH2 0x28B SWAP2 SWAP1 PUSH2 0x322F JUMP JUMPDEST PUSH2 0xA16 JUMP JUMPDEST STOP JUMPDEST PUSH2 0x2AC PUSH1 0x4 DUP1 CALLDATASIZE SUB DUP2 ADD SWAP1 PUSH2 0x2A7 SWAP2 SWAP1 PUSH2 0x2F0C JUMP JUMPDEST PUSH2 0x1105 JUMP JUMPDEST PUSH1 0x40 MLOAD PUSH2 0x2B9 SWAP2 SWAP1 PUSH2 0x3379 JUMP JUMPDEST PUSH1 0x40 MLOAD DUP1 SWAP2 SUB SWAP1 RETURN JUMPDEST PUSH2 0x2DC PUSH1 0x4 DUP1 CALLDATASIZE SUB DUP2 ADD SWAP1 PUSH2 0x2D7 SWAP2 SWAP1 PUSH2 0x33FA JUMP JUMPDEST PUSH2 0x11A1 JUMP JUMPDEST PUSH1 0x40 MLOAD PUSH2 0x2E9 SWAP2 SWAP1 PUSH2 0x3088 JUMP JUMPDEST PUSH1 0x40 MLOAD DUP1 SWAP2 SUB SWAP1 RETURN JUMPDEST PUSH2 0x30C PUSH1 0x4 DUP1 CALLDATASIZE SUB DUP2 ADD SWAP1 PUSH2 0x307 SWAP2 SWAP1 PUSH2 0x3122 JUMP JUMPDEST PUSH2 0x149E JUMP JUMPDEST PUSH1 0x40 MLOAD PUSH2 0x319 SWAP2 SWAP1 PUSH2 0x31BE JUMP JUMPDEST PUSH1 0x40 MLOAD DUP1 SWAP2 SUB SWAP1 RETURN JUMPDEST PUSH2 0x33C PUSH1 0x4 DUP1 CALLDATASIZE SUB DUP2 ADD SWAP1 PUSH2 0x337 SWAP2 SWAP1 PUSH2 0x3478 JUMP JUMPDEST PUSH2 0x14E6 JUMP JUMPDEST STOP JUMPDEST PUSH2 0x358 PUSH1 0x4 DUP1 CALLDATASIZE SUB DUP2 ADD SWAP1 PUSH2 0x353 SWAP2 SWAP1 PUSH2 0x3122 JUMP JUMPDEST PUSH2 0x1601 JUMP JUMPDEST PUSH1 0x40 MLOAD PUSH2 0x365 SWAP2 SWAP1 PUSH2 0x3781 JUMP JUMPDEST PUSH1 0x40 MLOAD DUP1 SWAP2 SUB SWAP1 RETURN JUMPDEST PUSH2 0x388 PUSH1 0x4 DUP1 CALLDATASIZE SUB DUP2 ADD SWAP1 PUSH2 0x383 SWAP2 SWAP1 PUSH2 0x30CB JUMP JUMPDEST PUSH2 0x1AF9 JUMP JUMPDEST PUSH1 0x40 MLOAD PUSH2 0x395 SWAP2 SWAP1 PUSH2 0x3109 JUMP JUMPDEST PUSH1 0x40 MLOAD DUP1 SWAP2 SUB SWAP1 RETURN JUMPDEST PUSH2 0x3B8 PUSH1 0x4 DUP1 CALLDATASIZE SUB DUP2 ADD SWAP1 PUSH2 0x3B3 SWAP2 SWAP1 PUSH2 0x30CB JUMP JUMPDEST PUSH2 0x1B5B JUMP JUMPDEST STOP JUMPDEST PUSH2 0x3D4 PUSH1 0x4 DUP1 CALLDATASIZE SUB DUP2 ADD SWAP1 PUSH2 0x3CF SWAP2 SWAP1 PUSH2 0x2F0C JUMP JUMPDEST PUSH2 0x1E7F JUMP JUMPDEST PUSH1 0x40 MLOAD PUSH2 0x3E1 SWAP2 SWAP1 PUSH2 0x3849 JUMP JUMPDEST PUSH1 0x40 MLOAD DUP1 SWAP2 SUB SWAP1 RETURN JUMPDEST PUSH2 0x404 PUSH1 0x4 DUP1 CALLDATASIZE SUB DUP2 ADD SWAP1 PUSH2 0x3FF SWAP2 SWAP1 PUSH2 0x2F0C JUMP JUMPDEST PUSH2 0x1EE6 JUMP JUMPDEST PUSH1 0x40 MLOAD PUSH2 0x419 SWAP10 SWAP9 SWAP8 SWAP7 SWAP6 SWAP5 SWAP4 SWAP3 SWAP2 SWAP1 PUSH2 0x3878 JUMP JUMPDEST PUSH1 0x40 MLOAD DUP1 SWAP2 SUB SWAP1 RETURN JUMPDEST PUSH2 0x43C PUSH1 0x4 DUP1 CALLDATASIZE SUB DUP2 ADD SWAP1 PUSH2 0x437 SWAP2 SWAP1 PUSH2 0x3478 JUMP JUMPDEST PUSH2 0x2182 JUMP JUMPDEST STOP JUMPDEST PUSH2 0x458 PUSH1 0x4 DUP1 CALLDATASIZE SUB DUP2 ADD SWAP1 PUSH2 0x453 SWAP2 SWAP1 PUSH2 0x2F0C JUMP JUMPDEST PUSH2 0x229E JUMP JUMPDEST PUSH1 0x40 MLOAD PUSH2 0x465 SWAP2 SWAP1 PUSH2 0x3A12 JUMP JUMPDEST PUSH1 0x40 MLOAD DUP1 SWAP2 SUB SWAP1 RETURN JUMPDEST PUSH2 0x488 PUSH1 0x4 DUP1 CALLDATASIZE SUB DUP2 ADD SWAP1 PUSH2 0x483 SWAP2 SWAP1 PUSH2 0x2F0C JUMP JUMPDEST PUSH2 0x26C0 JUMP JUMPDEST STOP JUMPDEST PUSH2 0x492 PUSH2 0x286C JUMP JUMPDEST PUSH1 0x40 MLOAD PUSH2 0x49F SWAP2 SWAP1 PUSH2 0x31BE JUMP JUMPDEST PUSH1 0x40 MLOAD DUP1 SWAP2 SUB SWAP1 RETURN JUMPDEST PUSH2 0x4B0 PUSH2 0x2890 JUMP JUMPDEST PUSH1 0x40 MLOAD PUSH2 0x4BD SWAP2 SWAP1 PUSH2 0x3088 JUMP JUMPDEST PUSH1 0x40 MLOAD DUP1 SWAP2 SUB SWAP1 RETURN JUMPDEST PUSH2 0x4E0 PUSH1 0x4 DUP1 CALLDATASIZE SUB DUP2 ADD SWAP1 PUSH2 0x4DB SWAP2 SWAP1 PUSH2 0x2F0C JUMP JUMPDEST PUSH2 0x2896 JUMP JUMPDEST PUSH1 0x40 MLOAD PUSH2 0x4ED SWAP2 SWAP1 PUSH2 0x3AAC JUMP JUMPDEST PUSH1 0x40 MLOAD DUP1 SWAP2 SUB SWAP1 RETURN JUMPDEST PUSH2 0x510 PUSH1 0x4 DUP1 CALLDATASIZE SUB DUP2 ADD SWAP1 PUSH2 0x50B SWAP2 SWAP1 PUSH2 0x3478 JUMP JUMPDEST PUSH2 0x2AB9 JUMP JUMPDEST PUSH1 0x40 MLOAD PUSH2 0x51D SWAP2 SWAP1 PUSH2 0x3109 JUMP JUMPDEST PUSH1 0x40 MLOAD DUP1 SWAP2 SUB SWAP1 RETURN JUMPDEST PUSH1 0x2 PUSH1 0x20 MSTORE DUP1 PUSH0 MSTORE PUSH1 0x40 PUSH0 KECCAK256 PUSH0 SWAP2 POP SWAP1 POP DUP1 PUSH0 ADD PUSH0 SWAP1 SLOAD SWAP1 PUSH2 0x100 EXP SWAP1 DIV PUSH20 0xFFFFFFFFFFFFFFFFFFFFFFFFFFFFFFFFFFFFFFFF AND SWAP1 DUP1 PUSH1 0x1 ADD DUP1 SLOAD PUSH2 0x56A SWAP1 PUSH2 0x3AF9 JUMP JUMPDEST DUP1 PUSH1 0x1F ADD PUSH1 0x20 DUP1 SWAP2 DIV MUL PUSH1 0x20 ADD PUSH1 0x40 MLOAD SWAP1 DUP2 ADD PUSH1 0x40 MSTORE DUP1 SWAP3 SWAP2 SWAP1 DUP2 DUP2 MSTORE PUSH1 0x20 ADD DUP3 DUP1 SLOAD PUSH2 0x596 SWAP1 PUSH2 0x3AF9 JUMP JUMPDEST DUP1 ISZERO PUSH2 0x5E1 JUMPI DUP1 PUSH1 0x1F LT PUSH2 0x5B8 JUMPI PUSH2 0x100 DUP1 DUP4 SLOAD DIV MUL DUP4 MSTORE SWAP2 PUSH1 0x20 ADD SWAP2 PUSH2 0x5E1 JUMP JUMPDEST DUP3 ADD SWAP2 SWAP1 PUSH0 MSTORE PUSH1 0x20 PUSH0 KECCAK256 SWAP1 JUMPDEST DUP2 SLOAD DUP2 MSTORE SWAP1 PUSH1 0x1 ADD SWAP1 PUSH1 0x20 ADD DUP1 DUP4 GT PUSH2 0x5C4 JUMPI DUP3 SWAP1 SUB PUSH1 0x1F AND DUP3 ADD SWAP2 JUMPDEST POP POP POP POP POP SWAP1 DUP1 PUSH1 0x2 ADD DUP1 SLOAD PUSH2 0x5F6 SWAP1 PUSH2 0x3AF9 JUMP JUMPDEST DUP1 PUSH1 0x1F ADD PUSH1 0x20 DUP1 SWAP2 DIV MUL PUSH1 0x20 ADD PUSH1 0x40 MLOAD SWAP1 DUP2 ADD PUSH1 0x40 MSTORE DUP1 SWAP3 SWAP2 SWAP1 DUP2 DUP2 MSTORE PUSH1 0x20 ADD DUP3 DUP1 SLOAD PUSH2 0x622 SWAP1 PUSH2 0x3AF9 JUMP JUMPDEST DUP1 ISZERO PUSH2 0x66D JUMPI DUP1 PUSH1 0x1F LT PUSH2 0x644 JUMPI PUSH2 0x100 DUP1 DUP4 SLOAD DIV MUL DUP4 MSTORE SWAP2 PUSH1 0x20 ADD SWAP2 PUSH2 0x66D JUMP JUMPDEST DUP3 ADD SWAP2 SWAP1 PUSH0 MSTORE PUSH1 0x20 PUSH0 KECCAK256 SWAP1 JUMPDEST DUP2 SLOAD DUP2 MSTORE SWAP1 PUSH1 0x1 ADD SWAP1 PUSH1 0x20 ADD DUP1 DUP4 GT PUSH2 0x650 JUMPI DUP3 SWAP1 SUB PUSH1 0x1F AND DUP3 ADD SWAP2 JUMPDEST POP POP POP POP POP SWAP1 DUP1 PUSH1 0x3 ADD SLOAD SWAP1 DUP1 PUSH1 0x4 ADD PUSH0 SWAP1 SLOAD SWAP1 PUSH2 0x100 EXP SWAP1 DIV PUSH1 0xFF AND SWAP1 POP DUP6 JUMP JUMPDEST PUSH0 PUSH1 0x5 DUP1 SLOAD SWAP1 POP SWAP1 POP SWAP1 JUMP JUMPDEST PUSH1 0x3 PUSH1 0x20 MSTORE DUP2 PUSH0 MSTORE PUSH1 0x40 PUSH0 KECCAK256 PUSH1 0x20 MSTORE DUP1 PUSH0 MSTORE PUSH1 0x40 PUSH0 KECCAK256 PUSH0 SWAP2 POP SWAP2 POP SWAP1 SLOAD SWAP1 PUSH2 0x100 EXP SWAP1 DIV PUSH1 0xFF AND DUP2 JUMP JUMPDEST PUSH1 0x6 PUSH1 0x20 MSTORE DUP2 PUSH0 MSTORE PUSH1 0x40 PUSH0 KECCAK256 DUP2 DUP2 SLOAD DUP2 LT PUSH2 0x6DE JUMPI PUSH0 DUP1 REVERT JUMPDEST SWAP1 PUSH0 MSTORE PUSH1 0x20 PUSH0 KECCAK256 ADD PUSH0 SWAP2 POP SWAP2 POP POP SLOAD DUP2 JUMP JUMPDEST PUSH1 0x7 PUSH1 0x20 MSTORE DUP1 PUSH0 MSTORE PUSH1 0x40 PUSH0 KECCAK256 PUSH0 SWAP2 POP SLOAD SWAP1 PUSH2 0x100 EXP SWAP1 DIV PUSH1 0xFF AND DUP2 JUMP JUMPDEST PUSH32 0x0 DUP2 JUMP JUMPDEST DUP2 PUSH1 0x2 PUSH0 DUP3 DUP2 MSTORE PUSH1 0x20 ADD SWAP1 DUP2 MSTORE PUSH1 0x20 ADD PUSH0 KECCAK256 PUSH1 0x4 ADD PUSH0 SWAP1 SLOAD SWAP1 PUSH2 0x100 EXP SWAP1 DIV PUSH1 0xFF AND PUSH2 0x792 JUMPI PUSH1 0x40 MLOAD PUSH32 0x8C379A000000000000000000000000000000000000000000000000000000000 DUP2 MSTORE PUSH1 0x4 ADD PUSH2 0x789 SWAP1 PUSH2 0x3B73 JUMP JUMPDEST PUSH1 0x40 MLOAD DUP1 SWAP2 SUB SWAP1 REVERT JUMPDEST CALLER PUSH20 0xFFFFFFFFFFFFFFFFFFFFFFFFFFFFFFFFFFFFFFFF AND PUSH1 0x2 PUSH0 DUP4 DUP2 MSTORE PUSH1 0x20 ADD SWAP1 DUP2 MSTORE PUSH1 0x20 ADD PUSH0 KECCAK256 PUSH0 ADD PUSH0 SWAP1 SLOAD SWAP1 PUSH2 0x100 EXP SWAP1 DIV PUSH20 0xFFFFFFFFFFFFFFFFFFFFFFFFFFFFFFFFFFFFFFFF AND PUSH20 0xFFFFFFFFFFFFFFFFFFFFFFFFFFFFFFFFFFFFFFFF AND EQ PUSH2 0x832 JUMPI PUSH1 0x40 MLOAD PUSH32 0x8C379A000000000000000000000000000000000000000000000000000000000 DUP2 MSTORE PUSH1 0x4 ADD PUSH2 0x829 SWAP1 PUSH2 0x3BDB JUMP JUMPDEST PUSH1 0x40 MLOAD DUP1 SWAP2 SUB SWAP1 REVERT JUMPDEST PUSH1 0x3 PUSH0 DUP5 DUP2 MSTORE PUSH1 0x20 ADD SWAP1 DUP2 MSTORE PUSH1 0x20 ADD PUSH0 KECCAK256 PUSH0 DUP4 PUSH20 0xFFFFFFFFFFFFFFFFFFFFFFFFFFFFFFFFFFFFFFFF AND PUSH20 0xFFFFFFFFFFFFFFFFFFFFFFFFFFFFFFFFFFFFFFFF AND DUP2 MSTORE PUSH1 0x20 ADD SWAP1 DUP2 MSTORE PUSH1 0x20 ADD PUSH0 KECCAK256 PUSH0 SWAP1 SLOAD SWAP1 PUSH2 0x100 EXP SWAP1 DIV PUSH1 0xFF AND PUSH2 0x8CA JUMPI PUSH1 0x40 MLOAD PUSH32 0x8C379A000000000000000000000000000000000000000000000000000000000 DUP2 MSTORE PUSH1 0x4 ADD PUSH2 0x8C1 SWAP1 PUSH2 0x3C43 JUMP JUMPDEST PUSH1 0x40 MLOAD DUP1 SWAP2 SUB SWAP1 REVERT JUMPDEST PUSH1 0x2 PUSH0 DUP5 DUP2 MSTORE PUSH1 0x20 ADD SWAP1 DUP2 MSTORE PUSH1 0x20 ADD PUSH0 KECCAK256 PUSH0 ADD PUSH0 SWAP1 SLOAD SWAP1 PUSH2 0x100 EXP SWAP1 DIV PUSH20 0xFFFFFFFFFFFFFFFFFFFFFFFFFFFFFFFFFFFFFFFF AND PUSH20 0xFFFFFFFFFFFFFFFFFFFFFFFFFFFFFFFFFFFFFFFF AND DUP3 PUSH20 0xFFFFFFFFFFFFFFFFFFFFFFFFFFFFFFFFFFFFFFFF AND SUB PUSH2 0x96A JUMPI PUSH1 0x40 MLOAD PUSH32 0x8C379A000000000000000000000000000000000000000000000000000000000 DUP2 MSTORE PUSH1 0x4 ADD PUSH2 0x961 SWAP1 PUSH2 0x3CAB JUMP JUMPDEST PUSH1 0x40 MLOAD DUP1 SWAP2 SUB SWAP1 REVERT JUMPDEST PUSH0 PUSH1 0x3 PUSH0 DUP6 DUP2 MSTORE PUSH1 0x20 ADD SWAP1 DUP2 MSTORE PUSH1 0x20 ADD PUSH0 KECCAK256 PUSH0 DUP5 PUSH20 0xFFFFFFFFFFFFFFFFFFFFFFFFFFFFFFFFFFFFFFFF AND PUSH20 0xFFFFFFFFFFFFFFFFFFFFFFFFFFFFFFFFFFFFFFFF AND DUP2 MSTORE PUSH1 0x20 ADD SWAP1 DUP2 MSTORE PUSH1 0x20 ADD PUSH0 KECCAK256 PUSH0 PUSH2 0x100 EXP DUP2 SLOAD DUP2 PUSH1 0xFF MUL NOT AND SWAP1 DUP4 ISZERO ISZERO MUL OR SWAP1 SSTORE POP DUP2 PUSH20 0xFFFFFFFFFFFFFFFFFFFFFFFFFFFFFFFFFFFFFFFF AND DUP4 PUSH32 0x2BC0799D3D29A0A339229CF855001DB861E0818FBE4EFA9E9B1BB4418366C62D PUSH1 0x40 MLOAD PUSH1 0x40 MLOAD DUP1 SWAP2 SUB SWAP1 LOG3 POP POP POP JUMP JUMPDEST PUSH0 DUP6 DUP1 PUSH1 0x40 ADD SWAP1 PUSH2 0xA27 SWAP2 SWAP1 PUSH2 0x3CD5 JUMP JUMPDEST SWAP1 POP GT PUSH2 0xA69 JUMPI PUSH1 0x40 MLOAD PUSH32 0x8C379A000000000000000000000000000000000000000000000000000000000 DUP2 MSTORE PUSH1 0x4 ADD PUSH2 0xA60 SWAP1 PUSH2 0x3D81 JUMP JUMPDEST PUSH1 0x40 MLOAD DUP1 SWAP2 SUB SWAP1 REVERT JUMPDEST PUSH0 DUP6 DUP1 PUSH0 ADD SWAP1 PUSH2 0xA79 SWAP2 SWAP1 PUSH2 0x3CD5 JUMP JUMPDEST SWAP1 POP GT PUSH2 0xABB JUMPI PUSH1 0x40 MLOAD PUSH32 0x8C379A000000000000000000000000000000000000000000000000000000000 DUP2 MSTORE PUSH1 0x4 ADD PUSH2 0xAB2 SWAP1 PUSH2 0x3DE9 JUMP JUMPDEST PUSH1 0x40 MLOAD DUP1 SWAP2 SUB SWAP1 REVERT JUMPDEST PUSH1 0x2 PUSH0 DUP7 PUSH1 0xA0 ADD CALLDATALOAD DUP2 MSTORE PUSH1 0x20 ADD SWAP1 DUP2 MSTORE PUSH1 0x20 ADD PUSH0 KECCAK256 PUSH1 0x4 ADD PUSH0 SWAP1 SLOAD SWAP1 PUSH2 0x100 EXP SWAP1 DIV PUSH1 0xFF AND PUSH2 0xB1F JUMPI PUSH1 0x40 MLOAD PUSH32 0x8C379A000000000000000000000000000000000000000000000000000000000 DUP2 MSTORE PUSH1 0x4 ADD PUSH2 0xB16 SWAP1 PUSH2 0x3B73 JUMP JUMPDEST PUSH1 0x40 MLOAD DUP1 SWAP2 SUB SWAP1 REVERT JUMPDEST PUSH1 0x3 PUSH0 DUP7 PUSH1 0xA0 ADD CALLDATALOAD DUP2 MSTORE PUSH1 0x20 ADD SWAP1 DUP2 MSTORE PUSH1 0x20 ADD PUSH0 KECCAK256 PUSH0 CALLER PUSH20 0xFFFFFFFFFFFFFFFFFFFFFFFFFFFFFFFFFFFFFFFF AND PUSH20 0xFFFFFFFFFFFFFFFFFFFFFFFFFFFFFFFFFFFFFFFF AND DUP2 MSTORE PUSH1 0x20 ADD SWAP1 DUP2 MSTORE PUSH1 0x20 ADD PUSH0 KECCAK256 PUSH0 SWAP1 SLOAD SWAP1 PUSH2 0x100 EXP SWAP1 DIV PUSH1 0xFF AND PUSH2 0xBBB JUMPI PUSH1 0x40 MLOAD PUSH32 0x8C379A000000000000000000000000000000000000000000000000000000000 DUP2 MSTORE PUSH1 0x4 ADD PUSH2 0xBB2 SWAP1 PUSH2 0x3E51 JUMP JUMPDEST PUSH1 0x40 MLOAD DUP1 SWAP2 SUB SWAP1 REVERT JUMPDEST PUSH0 DUP6 DUP1 PUSH0 ADD SWAP1 PUSH2 0xBCB SWAP2 SWAP1 PUSH2 0x3CD5 JUMP JUMPDEST PUSH1 0x40 MLOAD PUSH2 0xBD9 SWAP3 SWAP2 SWAP1 PUSH2 0x3EAB JUMP JUMPDEST PUSH1 0x40 MLOAD DUP1 SWAP2 SUB SWAP1 KECCAK256 SWAP1 POP PUSH1 0x7 PUSH0 DUP3 DUP2 MSTORE PUSH1 0x20 ADD SWAP1 DUP2 MSTORE PUSH1 0x20 ADD PUSH0 KECCAK256 PUSH0 SWAP1 SLOAD SWAP1 PUSH2 0x100 EXP SWAP1 DIV PUSH1 0xFF AND ISZERO PUSH2 0xC41 JUMPI PUSH1 0x40 MLOAD PUSH32 0x8C379A000000000000000000000000000000000000000000000000000000000 DUP2 MSTORE PUSH1 0x4 ADD PUSH2 0xC38 SWAP1 PUSH2 0x3F0D JUMP JUMPDEST PUSH1 0x40 MLOAD DUP1 SWAP2 SUB SWAP1 REVERT JUMPDEST PUSH0 CALLER DUP3 DUP9 PUSH1 0xA0 ADD CALLDATALOAD DUP9 CHAINID PUSH1 0x40 MLOAD PUSH1 0x20 ADD PUSH2 0xC5F SWAP6 SWAP5 SWAP4 SWAP3 SWAP2 SWAP1 PUSH2 0x3FB0 JUMP JUMPDEST PUSH1 0x40 MLOAD PUSH1 0x20 DUP2 DUP4 SUB SUB DUP2 MSTORE SWAP1 PUSH1 0x40 MSTORE DUP1 MLOAD SWAP1 PUSH1 0x20 ADD KECCAK256 SWAP1 POP PUSH0 DUP2 PUSH1 0x40 MLOAD PUSH1 0x20 ADD PUSH2 0xC89 SWAP2 SWAP1 PUSH2 0x4062 JUMP JUMPDEST PUSH1 0x40 MLOAD PUSH1 0x20 DUP2 DUP4 SUB SUB DUP2 MSTORE SWAP1 PUSH1 0x40 MSTORE DUP1 MLOAD SWAP1 PUSH1 0x20 ADD KECCAK256 SWAP1 POP PUSH32 0x0 PUSH20 0xFFFFFFFFFFFFFFFFFFFFFFFFFFFFFFFFFFFFFFFF AND PUSH2 0xCE4 DUP3 DUP9 DUP9 DUP9 PUSH2 0x2AD5 JUMP JUMPDEST PUSH20 0xFFFFFFFFFFFFFFFFFFFFFFFFFFFFFFFFFFFFFFFF AND EQ PUSH2 0xD3A JUMPI PUSH1 0x40 MLOAD PUSH32 0x8C379A000000000000000000000000000000000000000000000000000000000 DUP2 MSTORE PUSH1 0x4 ADD PUSH2 0xD31 SWAP1 PUSH2 0x40D1 JUMP JUMPDEST PUSH1 0x40 MLOAD DUP1 SWAP2 SUB SWAP1 REVERT JUMPDEST PUSH0 PUSH1 0x5 DUP1 SLOAD SWAP1 POP SWAP1 POP PUSH1 0x5 PUSH1 0x40 MLOAD DUP1 PUSH2 0x140 ADD PUSH1 0x40 MSTORE DUP1 DUP7 DUP2 MSTORE PUSH1 0x20 ADD DUP12 DUP1 PUSH1 0x20 ADD SWAP1 PUSH2 0xD67 SWAP2 SWAP1 PUSH2 0x3CD5 JUMP JUMPDEST DUP1 DUP1 PUSH1 0x1F ADD PUSH1 0x20 DUP1 SWAP2 DIV MUL PUSH1 0x20 ADD PUSH1 0x40 MLOAD SWAP1 DUP2 ADD PUSH1 0x40 MSTORE DUP1 SWAP4 SWAP3 SWAP2 SWAP1 DUP2 DUP2 MSTORE PUSH1 0x20 ADD DUP4 DUP4 DUP1 DUP3 DUP5 CALLDATACOPY PUSH0 DUP2 DUP5 ADD MSTORE PUSH1 0x1F NOT PUSH1 0x1F DUP3 ADD AND SWAP1 POP DUP1 DUP4 ADD SWAP3 POP POP POP POP POP POP POP DUP2 MSTORE PUSH1 0x20 ADD DUP12 DUP1 PUSH1 0x40 ADD SWAP1 PUSH2 0xDBE SWAP2 SWAP1 PUSH2 0x3CD5 JUMP JUMPDEST DUP1 DUP1 PUSH1 0x1F ADD PUSH1 0x20 DUP1 SWAP2 DIV MUL PUSH1 0x20 ADD PUSH1 0x40 MLOAD SWAP1 DUP2 ADD PUSH1 0x40 MSTORE DUP1 SWAP4 SWAP3 SWAP2 SWAP1 DUP2 DUP2 MSTORE PUSH1 0x20 ADD DUP4 DUP4 DUP1 DUP3 DUP5 CALLDATACOPY PUSH0 DUP2 DUP5 ADD MSTORE PUSH1 0x1F NOT PUSH1 0x1F DUP3 ADD AND SWAP1 POP DUP1 DUP4 ADD SWAP3 POP POP POP POP POP POP POP DUP2 MSTORE PUSH1 0x20 ADD DUP12 DUP1 PUSH1 0x60 ADD SWAP1 PUSH2 0xE15 SWAP2 SWAP1 PUSH2 0x40EF JUMP JUMPDEST SWAP1 PUSH2 0xE20 SWAP2 SWAP1 PUSH2 0x431C JUMP JUMPDEST DUP2 MSTORE PUSH1 0x20 ADD DUP12 DUP1 PUSH1 0x80 ADD SWAP1 PUSH2 0xE35 SWAP2 SWAP1 PUSH2 0x3CD5 JUMP JUMPDEST DUP1 DUP1 PUSH1 0x1F ADD PUSH1 0x20 DUP1 SWAP2 DIV MUL PUSH1 0x20 ADD PUSH1 0x40 MLOAD SWAP1 DUP2 ADD PUSH1 0x40 MSTORE DUP1 SWAP4 SWAP3 SWAP2 SWAP1 DUP2 DUP2 MSTORE PUSH1 0x20 ADD DUP4 DUP4 DUP1 DUP3 DUP5 CALLDATACOPY PUSH0 DUP2 DUP5 ADD MSTORE PUSH1 0x1F NOT PUSH1 0x1F DUP3 ADD AND SWAP1 POP DUP1 DUP4 ADD SWAP3 POP POP POP POP POP POP POP DUP2 MSTORE PUSH1 0x20 ADD DUP12 PUSH1 0xA0 ADD CALLDATALOAD DUP2 MSTORE PUSH1 0x20 ADD CALLER PUSH20 0xFFFFFFFFFFFFFFFFFFFFFFFFFFFFFFFFFFFFFFFF AND DUP2 MSTORE PUSH1 0x20 ADD TIMESTAMP DUP2 MSTORE PUSH1 0x20 ADD DUP12 PUSH1 0xC0 ADD PUSH1 0x20 DUP2 ADD SWAP1 PUSH2 0xEBB SWAP2 SWAP1 PUSH2 0x435A JUMP JUMPDEST ISZERO ISZERO DUP2 MSTORE PUSH1 0x20 ADD DUP12 DUP1 PUSH0 ADD SWAP1 PUSH2 0xED1 SWAP2 SWAP1 PUSH2 0x3CD5 JUMP JUMPDEST DUP1 DUP1 PUSH1 0x1F ADD PUSH1 0x20 DUP1 SWAP2 DIV MUL PUSH1 0x20 ADD PUSH1 0x40 MLOAD SWAP1 DUP2 ADD PUSH1 0x40 MSTORE DUP1 SWAP4 SWAP3 SWAP2 SWAP1 DUP2 DUP2 MSTORE PUSH1 0x20 ADD DUP4 DUP4 DUP1 DUP3 DUP5 CALLDATACOPY PUSH0 DUP2 DUP5 ADD MSTORE PUSH1 0x1F NOT PUSH1 0x1F DUP3 ADD AND SWAP1 POP DUP1 DUP4 ADD SWAP3 POP POP POP POP POP POP POP DUP2 MSTORE POP SWAP1 DUP1 PUSH1 0x1 DUP2 SLOAD ADD DUP1 DUP3 SSTORE DUP1 SWAP2 POP POP PUSH1 0x1 SWAP1 SUB SWAP1 PUSH0 MSTORE PUSH1 0x20 PUSH0 KECCAK256 SWAP1 PUSH1 0xA MUL ADD PUSH0 SWAP1 SWAP2 SWAP1 SWAP2 SWAP1 SWAP2 POP PUSH0 DUP3 ADD MLOAD DUP2 PUSH0 ADD SSTORE PUSH1 0x20 DUP3 ADD MLOAD DUP2 PUSH1 0x1 ADD SWAP1 DUP2 PUSH2 0xF59 SWAP2 SWAP1 PUSH2 0x4525 JUMP JUMPDEST POP PUSH1 0x40 DUP3 ADD MLOAD DUP2 PUSH1 0x2 ADD SWAP1 DUP2 PUSH2 0xF6F SWAP2 SWAP1 PUSH2 0x4525 JUMP JUMPDEST POP PUSH1 0x60 DUP3 ADD MLOAD DUP2 PUSH1 0x3 ADD SWAP1 DUP1 MLOAD SWAP1 PUSH1 0x20 ADD SWAP1 PUSH2 0xF8C SWAP3 SWAP2 SWAP1 PUSH2 0x2D4C JUMP JUMPDEST POP PUSH1 0x80 DUP3 ADD MLOAD DUP2 PUSH1 0x4 ADD SWAP1 DUP2 PUSH2 0xFA2 SWAP2 SWAP1 PUSH2 0x4525 JUMP JUMPDEST POP PUSH1 0xA0 DUP3 ADD MLOAD DUP2 PUSH1 0x5 ADD SSTORE PUSH1 0xC0 DUP3 ADD MLOAD DUP2 PUSH1 0x6 ADD PUSH0 PUSH2 0x100 EXP DUP2 SLOAD DUP2 PUSH20 0xFFFFFFFFFFFFFFFFFFFFFFFFFFFFFFFFFFFFFFFF MUL NOT AND SWAP1 DUP4 PUSH20 0xFFFFFFFFFFFFFFFFFFFFFFFFFFFFFFFFFFFFFFFF AND MUL OR SWAP1 SSTORE POP PUSH1 0xE0 DUP3 ADD MLOAD DUP2 PUSH1 0x7 ADD SSTORE PUSH2 0x100 DUP3 ADD MLOAD DUP2 PUSH1 0x8 ADD PUSH0 PUSH2 0x100 EXP DUP2 SLOAD DUP2 PUSH1 0xFF MUL NOT AND SWAP1 DUP4 ISZERO ISZERO MUL OR SWAP1 SSTORE POP PUSH2 0x120 DUP3 ADD MLOAD DUP2 PUSH1 0x9 ADD SWAP1 DUP2 PUSH2 0x1033 SWAP2 SWAP1 PUSH2 0x4525 JUMP JUMPDEST POP POP POP PUSH1 0x1 PUSH1 0x7 PUSH0 DUP7 DUP2 MSTORE PUSH1 0x20 ADD SWAP1 DUP2 MSTORE PUSH1 0x20 ADD PUSH0 KECCAK256 PUSH0 PUSH2 0x100 EXP DUP2 SLOAD DUP2 PUSH1 0xFF MUL NOT AND SWAP1 DUP4 ISZERO ISZERO MUL OR SWAP1 SSTORE POP PUSH1 0x6 PUSH0 DUP11 PUSH1 0xA0 ADD CALLDATALOAD DUP2 MSTORE PUSH1 0x20 ADD SWAP1 DUP2 MSTORE PUSH1 0x20 ADD PUSH0 KECCAK256 DUP2 SWAP1 DUP1 PUSH1 0x1 DUP2 SLOAD ADD DUP1 DUP3 SSTORE DUP1 SWAP2 POP POP PUSH1 0x1 SWAP1 SUB SWAP1 PUSH0 MSTORE PUSH1 0x20 PUSH0 KECCAK256 ADD PUSH0 SWAP1 SWAP2 SWAP1 SWAP2 SWAP1 SWAP2 POP SSTORE DUP9 PUSH1 0xA0 ADD CALLDATALOAD DUP5 DUP3 PUSH32 0x4E650539DAD9EED63C6A41177A8C1A0875A45E6AA29200C03EB679EA85AE8DD CALLER DUP14 DUP1 PUSH1 0x20 ADD SWAP1 PUSH2 0x10D1 SWAP2 SWAP1 PUSH2 0x3CD5 JUMP JUMPDEST DUP16 DUP1 PUSH1 0x40 ADD SWAP1 PUSH2 0x10E1 SWAP2 SWAP1 PUSH2 0x3CD5 JUMP JUMPDEST PUSH1 0x40 MLOAD PUSH2 0x10F2 SWAP6 SWAP5 SWAP4 SWAP3 SWAP2 SWAP1 PUSH2 0x4620 JUMP JUMPDEST PUSH1 0x40 MLOAD DUP1 SWAP2 SUB SWAP1 LOG4 POP POP POP POP POP POP POP POP POP JUMP JUMPDEST PUSH1 0x60 PUSH1 0x4 PUSH0 DUP4 DUP2 MSTORE PUSH1 0x20 ADD SWAP1 DUP2 MSTORE PUSH1 0x20 ADD PUSH0 KECCAK256 DUP1 SLOAD DUP1 PUSH1 0x20 MUL PUSH1 0x20 ADD PUSH1 0x40 MLOAD SWAP1 DUP2 ADD PUSH1 0x40 MSTORE DUP1 SWAP3 SWAP2 SWAP1 DUP2 DUP2 MSTORE PUSH1 0x20 ADD DUP3 DUP1 SLOAD DUP1 ISZERO PUSH2 0x1195 JUMPI PUSH1 0x20 MUL DUP3 ADD SWAP2 SWAP1 PUSH0 MSTORE PUSH1 0x20 PUSH0 KECCAK256 SWAP1 JUMPDEST DUP2 PUSH0 SWAP1 SLOAD SWAP1 PUSH2 0x100 EXP SWAP1 DIV PUSH20 0xFFFFFFFFFFFFFFFFFFFFFFFFFFFFFFFFFFFFFFFF AND PUSH20 0xFFFFFFFFFFFFFFFFFFFFFFFFFFFFFFFFFFFFFFFF AND DUP2 MSTORE PUSH1 0x20 ADD SWAP1 PUSH1 0x1 ADD SWAP1 DUP1 DUP4 GT PUSH2 0x114C JUMPI JUMPDEST POP POP POP POP POP SWAP1 POP SWAP2 SWAP1 POP JUMP JUMPDEST PUSH0 PUSH0 DUP6 DUP6 SWAP1 POP GT PUSH2 0x11E7 JUMPI PUSH1 0x40 MLOAD PUSH32 0x8C379A000000000000000000000000000000000000000000000000000000000 DUP2 MSTORE PUSH1 0x4 ADD PUSH2 0x11DE SWAP1 PUSH2 0x3D81 JUMP JUMPDEST PUSH1 0x40 MLOAD DUP1 SWAP2 SUB SWAP1 REVERT JUMPDEST PUSH1 0x1 PUSH0 DUP2 SLOAD DUP1 SWAP3 SWAP2 SWAP1 PUSH2 0x11F9 SWAP1 PUSH2 0x4694 JUMP JUMPDEST SWAP2 SWAP1 POP SSTORE SWAP1 POP PUSH1 0x40 MLOAD DUP1 PUSH1 0xA0 ADD PUSH1 0x40 MSTORE DUP1 CALLER PUSH20 0xFFFFFFFFFFFFFFFFFFFFFFFFFFFFFFFFFFFFFFFF AND DUP2 MSTORE PUSH1 0x20 ADD DUP7 DUP7 DUP1 DUP1 PUSH1 0x1F ADD PUSH1 0x20 DUP1 SWAP2 DIV MUL PUSH1 0x20 ADD PUSH1 0x40 MLOAD SWAP1 DUP2 ADD PUSH1 0x40 MSTORE DUP1 SWAP4 SWAP3 SWAP2 SWAP1 DUP2 DUP2 MSTORE PUSH1 0x20 ADD DUP4 DUP4 DUP1 DUP3 DUP5 CALLDATACOPY PUSH0 DUP2 DUP5 ADD MSTORE PUSH1 0x1F NOT PUSH1 0x1F DUP3 ADD AND SWAP1 POP DUP1 DUP4 ADD SWAP3 POP POP POP POP POP POP POP DUP2 MSTORE PUSH1 0x20 ADD DUP5 DUP5 DUP1 DUP1 PUSH1 0x1F ADD PUSH1 0x20 DUP1 SWAP2 DIV MUL PUSH1 0x20 ADD PUSH1 0x40 MLOAD SWAP1 DUP2 ADD PUSH1 0x40 MSTORE DUP1 SWAP4 SWAP3 SWAP2 SWAP1 DUP2 DUP2 MSTORE PUSH1 0x20 ADD DUP4 DUP4 DUP1 DUP3 DUP5 CALLDATACOPY PUSH0 DUP2 DUP5 ADD MSTORE PUSH1 0x1F NOT PUSH1 0x1F DUP3 ADD AND SWAP1 POP DUP1 DUP4 ADD SWAP3 POP POP POP POP POP POP POP DUP2 MSTORE PUSH1 0x20 ADD TIMESTAMP DUP2 MSTORE PUSH1 0x20 ADD PUSH1 0x1 ISZERO ISZERO DUP2 MSTORE POP PUSH1 0x2 PUSH0 DUP4 DUP2 MSTORE PUSH1 0x20 ADD SWAP1 DUP2 MSTORE PUSH1 0x20 ADD PUSH0 KECCAK256 PUSH0 DUP3 ADD MLOAD DUP2 PUSH0 ADD PUSH0 PUSH2 0x100 EXP DUP2 SLOAD DUP2 PUSH20 0xFFFFFFFFFFFFFFFFFFFFFFFFFFFFFFFFFFFFFFFF MUL NOT AND SWAP1 DUP4 PUSH20 0xFFFFFFFFFFFFFFFFFFFFFFFFFFFFFFFFFFFFFFFF AND MUL OR SWAP1 SSTORE POP PUSH1 0x20 DUP3 ADD MLOAD DUP2 PUSH1 0x1 ADD SWAP1 DUP2 PUSH2 0x132F SWAP2 SWAP1 PUSH2 0x4525 JUMP JUMPDEST POP PUSH1 0x40 DUP3 ADD MLOAD DUP2 PUSH1 0x2 ADD SWAP1 DUP2 PUSH2 0x1345 SWAP2 SWAP1 PUSH2 0x4525 JUMP JUMPDEST POP PUSH1 0x60 DUP3 ADD MLOAD DUP2 PUSH1 0x3 ADD SSTORE PUSH1 0x80 DUP3 ADD MLOAD DUP2 PUSH1 0x4 ADD PUSH0 PUSH2 0x100 EXP DUP2 SLOAD DUP2 PUSH1 0xFF MUL NOT AND SWAP1 DUP4 ISZERO ISZERO MUL OR SWAP1 SSTORE POP SWAP1 POP POP PUSH1 0x1 PUSH1 0x3 PUSH0 DUP4 DUP2 MSTORE PUSH1 0x20 ADD SWAP1 DUP2 MSTORE PUSH1 0x20 ADD PUSH0 KECCAK256 PUSH0 CALLER PUSH20 0xFFFFFFFFFFFFFFFFFFFFFFFFFFFFFFFFFFFFFFFF AND PUSH20 0xFFFFFFFFFFFFFFFFFFFFFFFFFFFFFFFFFFFFFFFF AND DUP2 MSTORE PUSH1 0x20 ADD SWAP1 DUP2 MSTORE PUSH1 0x20 ADD PUSH0 KECCAK256 PUSH0 PUSH2 0x100 EXP DUP2 SLOAD DUP2 PUSH1 0xFF MUL NOT AND SWAP1 DUP4 ISZERO ISZERO MUL OR SWAP1 SSTORE POP PUSH1 0x4 PUSH0 DUP3 DUP2 MSTORE PUSH1 0x20 ADD SWAP1 DUP2 MSTORE PUSH1 0x20 ADD PUSH0 KECCAK256 CALLER SWAP1 DUP1 PUSH1 0x1 DUP2 SLOAD ADD DUP1 DUP3 SSTORE DUP1 SWAP2 POP POP PUSH1 0x1 SWAP1 SUB SWAP1 PUSH0 MSTORE PUSH1 0x20 PUSH0 KECCAK256 ADD PUSH0 SWAP1 SWAP2 SWAP1 SWAP2 SWAP1 SWAP2 PUSH2 0x100 EXP DUP2 SLOAD DUP2 PUSH20 0xFFFFFFFFFFFFFFFFFFFFFFFFFFFFFFFFFFFFFFFF MUL NOT AND SWAP1 DUP4 PUSH20 0xFFFFFFFFFFFFFFFFFFFFFFFFFFFFFFFFFFFFFFFF AND MUL OR SWAP1 SSTORE POP CALLER PUSH20 0xFFFFFFFFFFFFFFFFFFFFFFFFFFFFFFFFFFFFFFFF AND DUP2 PUSH32 0x9D9EC461F162F3F4FDB9F6D189BFE13C59E48D8ACD23A4C3BFCF7CC0FE4E84ED DUP8 DUP8 PUSH1 0x40 MLOAD PUSH2 0x148E SWAP3 SWAP2 SWAP1 PUSH2 0x46DB JUMP JUMPDEST PUSH1 0x40 MLOAD DUP1 SWAP2 SUB SWAP1 LOG3 SWAP5 SWAP4 POP POP POP POP JUMP JUMPDEST PUSH1 0x4 PUSH1 0x20 MSTORE DUP2 PUSH0 MSTORE PUSH1 0x40 PUSH0 KECCAK256 DUP2 DUP2 SLOAD DUP2 LT PUSH2 0x14B7 JUMPI PUSH0 DUP1 REVERT JUMPDEST SWAP1 PUSH0 MSTORE PUSH1 0x20 PUSH0 KECCAK256 ADD PUSH0 SWAP2 POP SWAP2 POP SWAP1 SLOAD SWAP1 PUSH2 0x100 EXP SWAP1 DIV PUSH20 0xFFFFFFFFFFFFFFFFFFFFFFFFFFFFFFFFFFFFFFFF AND DUP2 JUMP JUMPDEST PUSH32 0x0 PUSH20 0xFFFFFFFFFFFFFFFFFFFFFFFFFFFFFFFFFFFFFFFF AND CALLER PUSH20 0xFFFFFFFFFFFFFFFFFFFFFFFFFFFFFFFFFFFFFFFF AND EQ PUSH2 0x1574 JUMPI PUSH1 0x40 MLOAD PUSH32 0x8C379A000000000000000000000000000000000000000000000000000000000 DUP2 MSTORE PUSH1 0x4 ADD PUSH2 0x156B SWAP1 PUSH2 0x4747 JUMP JUMPDEST PUSH1 0x40 MLOAD DUP1 SWAP2 SUB SWAP1 REVERT JUMPDEST PUSH0 PUSH0 PUSH0 DUP4 PUSH20 0xFFFFFFFFFFFFFFFFFFFFFFFFFFFFFFFFFFFFFFFF AND PUSH20 0xFFFFFFFFFFFFFFFFFFFFFFFFFFFFFFFFFFFFFFFF AND DUP2 MSTORE PUSH1 0x20 ADD SWAP1 DUP2 MSTORE PUSH1 0x20 ADD PUSH0 KECCAK256 PUSH0 PUSH2 0x100 EXP DUP2 SLOAD DUP2 PUSH1 0xFF MUL NOT AND SWAP1 DUP4 ISZERO ISZERO MUL OR SWAP1 SSTORE POP PUSH32 0x7A9F1E23D5426B34819D173153D59084CC3578D5A129B80BB27DF683AC6B2278 DUP2 PUSH1 0x40 MLOAD PUSH2 0x15F6 SWAP2 SWAP1 PUSH2 0x31BE JUMP JUMPDEST PUSH1 0x40 MLOAD DUP1 SWAP2 SUB SWAP1 LOG1 POP JUMP JUMPDEST PUSH1 0x60 PUSH1 0x5 DUP1 SLOAD SWAP1 POP DUP4 LT PUSH2 0x164A JUMPI PUSH1 0x40 MLOAD PUSH32 0x8C379A000000000000000000000000000000000000000000000000000000000 DUP2 MSTORE PUSH1 0x4 ADD PUSH2 0x1641 SWAP1 PUSH2 0x47AF JUMP JUMPDEST PUSH1 0x40 MLOAD DUP1 SWAP2 SUB SWAP1 REVERT JUMPDEST PUSH0 PUSH1 0x5 DUP1 SLOAD SWAP1 POP DUP4 DUP6 PUSH2 0x165D SWAP2 SWAP1 PUSH2 0x47CD JUMP JUMPDEST GT PUSH2 0x1673 JUMPI DUP3 DUP5 PUSH2 0x166E SWAP2 SWAP1 PUSH2 0x47CD JUMP JUMPDEST PUSH2 0x167A JUMP JUMPDEST PUSH1 0x5 DUP1 SLOAD SWAP1 POP JUMPDEST SWAP1 POP PUSH0 DUP5 DUP3 PUSH2 0x1689 SWAP2 SWAP1 PUSH2 0x4800 JUMP JUMPDEST PUSH8 0xFFFFFFFFFFFFFFFF DUP2 GT ISZERO PUSH2 0x16A2 JUMPI PUSH2 0x16A1 PUSH2 0x4151 JUMP JUMPDEST JUMPDEST PUSH1 0x40 MLOAD SWAP1 DUP1 DUP3 MSTORE DUP1 PUSH1 0x20 MUL PUSH1 0x20 ADD DUP3 ADD PUSH1 0x40 MSTORE DUP1 ISZERO PUSH2 0x16DB JUMPI DUP2 PUSH1 0x20 ADD JUMPDEST PUSH2 0x16C8 PUSH2 0x2DA3 JUMP JUMPDEST DUP2 MSTORE PUSH1 0x20 ADD SWAP1 PUSH1 0x1 SWAP1 SUB SWAP1 DUP2 PUSH2 0x16C0 JUMPI SWAP1 POP JUMPDEST POP SWAP1 POP PUSH0 DUP6 SWAP1 POP JUMPDEST DUP3 DUP2 LT ISZERO PUSH2 0x1AED JUMPI PUSH1 0x5 DUP2 DUP2 SLOAD DUP2 LT PUSH2 0x16FF JUMPI PUSH2 0x16FE PUSH2 0x4833 JUMP JUMPDEST JUMPDEST SWAP1 PUSH0 MSTORE PUSH1 0x20 PUSH0 KECCAK256 SWAP1 PUSH1 0xA MUL ADD PUSH1 0x40 MLOAD DUP1 PUSH2 0x140 ADD PUSH1 0x40 MSTORE SWAP1 DUP2 PUSH0 DUP3 ADD SLOAD DUP2 MSTORE PUSH1 0x20 ADD PUSH1 0x1 DUP3 ADD DUP1 SLOAD PUSH2 0x1730 SWAP1 PUSH2 0x3AF9 JUMP JUMPDEST DUP1 PUSH1 0x1F ADD PUSH1 0x20 DUP1 SWAP2 DIV MUL PUSH1 0x20 ADD PUSH1 0x40 MLOAD SWAP1 DUP2 ADD PUSH1 0x40 MSTORE DUP1 SWAP3 SWAP2 SWAP1 DUP2 DUP2 MSTORE PUSH1 0x20 ADD DUP3 DUP1 SLOAD PUSH2 0x175C SWAP1 PUSH2 0x3AF9 JUMP JUMPDEST DUP1 ISZERO PUSH2 0x17A7 JUMPI DUP1 PUSH1 0x1F LT PUSH2 0x177E JUMPI PUSH2 0x100 DUP1 DUP4 SLOAD DIV MUL DUP4 MSTORE SWAP2 PUSH1 0x20 ADD SWAP2 PUSH2 0x17A7 JUMP JUMPDEST DUP3 ADD SWAP2 SWAP1 PUSH0 MSTORE PUSH1 0x20 PUSH0 KECCAK256 SWAP1 JUMPDEST DUP2 SLOAD DUP2 MSTORE SWAP1 PUSH1 0x1 ADD SWAP1 PUSH1 0x20 ADD DUP1 DUP4 GT PUSH2 0x178A JUMPI DUP3 SWAP1 SUB PUSH1 0x1F AND DUP3 ADD SWAP2 JUMPDEST POP POP POP POP POP DUP2 MSTORE PUSH1 0x20 ADD PUSH1 0x2 DUP3 ADD DUP1 SLOAD PUSH2 0x17C0 SWAP1 PUSH2 0x3AF9 JUMP JUMPDEST DUP1 PUSH1 0x1F ADD PUSH1 0x20 DUP1 SWAP2 DIV MUL PUSH1 0x20 ADD PUSH1 0x40 MLOAD SWAP1 DUP2 ADD PUSH1 0x40 MSTORE DUP1 SWAP3 SWAP2 SWAP1 DUP2 DUP2 MSTORE PUSH1 0x20 ADD DUP3 DUP1 SLOAD PUSH2 0x17EC SWAP1 PUSH2 0x3AF9 JUMP JUMPDEST DUP1 ISZERO PUSH2 0x1837 JUMPI DUP1 PUSH1 0x1F LT PUSH2 0x180E JUMPI PUSH2 0x100 DUP1 DUP4 SLOAD DIV MUL DUP4 MSTORE SWAP2 PUSH1 0x20 ADD SWAP2 PUSH2 0x1837 JUMP JUMPDEST DUP3 ADD SWAP2 SWAP1 PUSH0 MSTORE PUSH1 0x20 PUSH0 KECCAK256 SWAP1 JUMPDEST DUP2 SLOAD DUP2 MSTORE SWAP1 PUSH1 0x1 ADD SWAP1 PUSH1 0x20 ADD DUP1 DUP4 GT PUSH2 0x181A JUMPI DUP3 SWAP1 SUB PUSH1 0x1F AND DUP3 ADD SWAP2 JUMPDEST POP POP POP POP POP DUP2 MSTORE PUSH1 0x20 ADD PUSH1 0x3 DUP3 ADD DUP1 SLOAD DUP1 PUSH1 0x20 MUL PUSH1 0x20 ADD PUSH1 0x40 MLOAD SWAP1 DUP2 ADD PUSH1 0x40 MSTORE DUP1 SWAP3 SWAP2 SWAP1 DUP2 DUP2 MSTORE PUSH1 0x20 ADD PUSH0 SWAP1 JUMPDEST DUP3 DUP3 LT ISZERO PUSH2 0x190C JUMPI DUP4 DUP3 SWAP1 PUSH0 MSTORE PUSH1 0x20 PUSH0 KECCAK256 ADD DUP1 SLOAD PUSH2 0x1881 SWAP1 PUSH2 0x3AF9 JUMP JUMPDEST DUP1 PUSH1 0x1F ADD PUSH1 0x20 DUP1 SWAP2 DIV MUL PUSH1 0x20 ADD PUSH1 0x40 MLOAD SWAP1 DUP2 ADD PUSH1 0x40 MSTORE DUP1 SWAP3 SWAP2 SWAP1 DUP2 DUP2 MSTORE PUSH1 0x20 ADD DUP3 DUP1 SLOAD PUSH2 0x18AD SWAP1 PUSH2 0x3AF9 JUMP JUMPDEST DUP1 ISZERO PUSH2 0x18F8 JUMPI DUP1 PUSH1 0x1F LT PUSH2 0x18CF JUMPI PUSH2 0x100 DUP1 DUP4 SLOAD DIV MUL DUP4 MSTORE SWAP2 PUSH1 0x20 ADD SWAP2 PUSH2 0x18F8 JUMP JUMPDEST DUP3 ADD SWAP2 SWAP1 PUSH0 MSTORE PUSH1 0x20 PUSH0 KECCAK256 SWAP1 JUMPDEST DUP2 SLOAD DUP2 MSTORE SWAP1 PUSH1 0x1 ADD SWAP1 PUSH1 0x20 ADD DUP1 DUP4 GT PUSH2 0x18DB JUMPI DUP3 SWAP1 SUB PUSH1 0x1F AND DUP3 ADD SWAP2 JUMPDEST POP POP POP POP POP DUP2 MSTORE PUSH1 0x20 ADD SWAP1 PUSH1 0x1 ADD SWAP1 PUSH2 0x1864 JUMP JUMPDEST POP POP POP POP DUP2 MSTORE PUSH1 0x20 ADD PUSH1 0x4 DUP3 ADD DUP1 SLOAD PUSH2 0x1924 SWAP1 PUSH2 0x3AF9 JUMP JUMPDEST DUP1 PUSH1 0x1F ADD PUSH1 0x20 DUP1 SWAP2 DIV MUL PUSH1 0x20 ADD PUSH1 0x40 MLOAD SWAP1 DUP2 ADD PUSH1 0x40 MSTORE DUP1 SWAP3 SWAP2 SWAP1 DUP2 DUP2 MSTORE PUSH1 0x20 ADD DUP3 DUP1 SLOAD PUSH2 0x1950 SWAP1 PUSH2 0x3AF9 JUMP JUMPDEST DUP1 ISZERO PUSH2 0x199B JUMPI DUP1 PUSH1 0x1F LT PUSH2 0x1972 JUMPI PUSH2 0x100 DUP1 DUP4 SLOAD DIV MUL DUP4 MSTORE SWAP2 PUSH1 0x20 ADD SWAP2 PUSH2 0x199B JUMP JUMPDEST DUP3 ADD SWAP2 SWAP1 PUSH0 MSTORE PUSH1 0x20 PUSH0 KECCAK256 SWAP1 JUMPDEST DUP2 SLOAD DUP2 MSTORE SWAP1 PUSH1 0x1 ADD SWAP1 PUSH1 0x20 ADD DUP1 DUP4 GT PUSH2 0x197E JUMPI DUP3 SWAP1 SUB PUSH1 0x1F AND DUP3 ADD SWAP2 JUMPDEST POP POP POP POP POP DUP2 MSTORE PUSH1 0x20 ADD PUSH1 0x5 DUP3 ADD SLOAD DUP2 MSTORE PUSH1 0x20 ADD PUSH1 0x6 DUP3 ADD PUSH0 SWAP1 SLOAD SWAP1 PUSH2 0x100 EXP SWAP1 DIV PUSH20 0xFFFFFFFFFFFFFFFFFFFFFFFFFFFFFFFFFFFFFFFF AND PUSH20 0xFFFFFFFFFFFFFFFFFFFFFFFFFFFFFFFFFFFFFFFF AND PUSH20 0xFFFFFFFFFFFFFFFFFFFFFFFFFFFFFFFFFFFFFFFF AND DUP2 MSTORE PUSH1 0x20 ADD PUSH1 0x7 DUP3 ADD SLOAD DUP2 MSTORE PUSH1 0x20 ADD PUSH1 0x8 DUP3 ADD PUSH0 SWAP1 SLOAD SWAP1 PUSH2 0x100 EXP SWAP1 DIV PUSH1 0xFF AND ISZERO ISZERO ISZERO ISZERO DUP2 MSTORE PUSH1 0x20 ADD PUSH1 0x9 DUP3 ADD DUP1 SLOAD PUSH2 0x1A37 SWAP1 PUSH2 0x3AF9 JUMP JUMPDEST DUP1 PUSH1 0x1F ADD PUSH1 0x20 DUP1 SWAP2 DIV MUL PUSH1 0x20 ADD PUSH1 0x40 MLOAD SWAP1 DUP2 ADD PUSH1 0x40 MSTORE DUP1 SWAP3 SWAP2 SWAP1 DUP2 DUP2 MSTORE PUSH1 0x20 ADD DUP3 DUP1 SLOAD PUSH2 0x1A63 SWAP1 PUSH2 0x3AF9 JUMP JUMPDEST DUP1 ISZERO PUSH2 0x1AAE JUMPI DUP1 PUSH1 0x1F LT PUSH2 0x1A85 JUMPI PUSH2 0x100 DUP1 DUP4 SLOAD DIV MUL DUP4 MSTORE SWAP2 PUSH1 0x20 ADD SWAP2 PUSH2 0x1AAE JUMP JUMPDEST DUP3 ADD SWAP2 SWAP1 PUSH0 MSTORE PUSH1 0x20 PUSH0 KECCAK256 SWAP1 JUMPDEST DUP2 SLOAD DUP2 MSTORE SWAP1 PUSH1 0x1 ADD SWAP1 PUSH1 0x20 ADD DUP1 DUP4 GT PUSH2 0x1A91 JUMPI DUP3 SWAP1 SUB PUSH1 0x1F AND DUP3 ADD SWAP2 JUMPDEST POP POP POP POP POP DUP2 MSTORE POP POP DUP3 DUP8 DUP4 PUSH2 0x1AC4 SWAP2 SWAP1 PUSH2 0x4800 JUMP JUMPDEST DUP2 MLOAD DUP2 LT PUSH2 0x1AD5 JUMPI PUSH2 0x1AD4 PUSH2 0x4833 JUMP JUMPDEST JUMPDEST PUSH1 0x20 MUL PUSH1 0x20 ADD ADD DUP2 SWAP1 MSTORE POP DUP1 DUP1 PUSH1 0x1 ADD SWAP2 POP POP PUSH2 0x16E3 JUMP JUMPDEST POP DUP1 SWAP3 POP POP POP SWAP3 SWAP2 POP POP JUMP JUMPDEST PUSH0 PUSH1 0x3 PUSH0 DUP5 DUP2 MSTORE PUSH1 0x20 ADD SWAP1 DUP2 MSTORE PUSH1 0x20 ADD PUSH0 KECCAK256 PUSH0 DUP4 PUSH20 0xFFFFFFFFFFFFFFFFFFFFFFFFFFFFFFFFFFFFFFFF AND PUSH20 0xFFFFFFFFFFFFFFFFFFFFFFFFFFFFFFFFFFFFFFFF AND DUP2 MSTORE PUSH1 0x20 ADD SWAP1 DUP2 MSTORE PUSH1 0x20 ADD PUSH0 KECCAK256 PUSH0 SWAP1 SLOAD SWAP1 PUSH2 0x100 EXP SWAP1 DIV PUSH1 0xFF AND SWAP1 POP SWAP3 SWAP2 POP POP JUMP JUMPDEST DUP2 PUSH1 0x2 PUSH0 DUP3 DUP2 MSTORE PUSH1 0x20 ADD SWAP1 DUP2 MSTORE PUSH1 0x20 ADD PUSH0 KECCAK256 PUSH1 0x4 ADD PUSH0 SWAP1 SLOAD SWAP1 PUSH2 0x100 EXP SWAP1 DIV PUSH1 0xFF AND PUSH2 0x1BBC JUMPI PUSH1 0x40 MLOAD PUSH32 0x8C379A000000000000000000000000000000000000000000000000000000000 DUP2 MSTORE PUSH1 0x4 ADD PUSH2 0x1BB3 SWAP1 PUSH2 0x3B73 JUMP JUMPDEST PUSH1 0x40 MLOAD DUP1 SWAP2 SUB SWAP1 REVERT JUMPDEST CALLER PUSH20 0xFFFFFFFFFFFFFFFFFFFFFFFFFFFFFFFFFFFFFFFF AND PUSH1 0x2 PUSH0 DUP4 DUP2 MSTORE PUSH1 0x20 ADD SWAP1 DUP2 MSTORE PUSH1 0x20 ADD PUSH0 KECCAK256 PUSH0 ADD PUSH0 SWAP1 SLOAD SWAP1 PUSH2 0x100 EXP SWAP1 DIV PUSH20 0xFFFFFFFFFFFFFFFFFFFFFFFFFFFFFFFFFFFFFFFF AND PUSH20 0xFFFFFFFFFFFFFFFFFFFFFFFFFFFFFFFFFFFFFFFF AND EQ PUSH2 0x1C5C JUMPI PUSH1 0x40 MLOAD PUSH32 0x8C379A000000000000000000000000000000000000000000000000000000000 DUP2 MSTORE PUSH1 0x4 ADD PUSH2 0x1C53 SWAP1 PUSH2 0x3BDB JUMP JUMPDEST PUSH1 0x40 MLOAD DUP1 SWAP2 SUB SWAP1 REVERT JUMPDEST PUSH0 PUSH20 0xFFFFFFFFFFFFFFFFFFFFFFFFFFFFFFFFFFFFFFFF AND DUP3 PUSH20 0xFFFFFFFFFFFFFFFFFFFFFFFFFFFFFFFFFFFFFFFF AND SUB PUSH2 0x1CCA JUMPI PUSH1 0x40 MLOAD PUSH32 0x8C379A000000000000000000000000000000000000000000000000000000000 DUP2 MSTORE PUSH1 0x4 ADD PUSH2 0x1CC1 SWAP1 PUSH2 0x48AA JUMP JUMPDEST PUSH1 0x40 MLOAD DUP1 SWAP2 SUB SWAP1 REVERT JUMPDEST PUSH1 0x3 PUSH0 DUP5 DUP2 MSTORE PUSH1 0x20 ADD SWAP1 DUP2 MSTORE PUSH1 0x20 ADD PUSH0 KECCAK256 PUSH0 DUP4 PUSH20 0xFFFFFFFFFFFFFFFFFFFFFFFFFFFFFFFFFFFFFFFF AND PUSH20 0xFFFFFFFFFFFFFFFFFFFFFFFFFFFFFFFFFFFFFFFF AND DUP2 MSTORE PUSH1 0x20 ADD SWAP1 DUP2 MSTORE PUSH1 0x20 ADD PUSH0 KECCAK256 PUSH0 SWAP1 SLOAD SWAP1 PUSH2 0x100 EXP SWAP1 DIV PUSH1 0xFF AND ISZERO PUSH2 0x1D63 JUMPI PUSH1 0x40 MLOAD PUSH32 0x8C379A000000000000000000000000000000000000000000000000000000000 DUP2 MSTORE PUSH1 0x4 ADD PUSH2 0x1D5A SWAP1 PUSH2 0x4912 JUMP JUMPDEST PUSH1 0x40 MLOAD DUP1 SWAP2 SUB SWAP1 REVERT JUMPDEST PUSH1 0x1 PUSH1 0x3 PUSH0 DUP6 DUP2 MSTORE PUSH1 0x20 ADD SWAP1 DUP2 MSTORE PUSH1 0x20 ADD PUSH0 KECCAK256 PUSH0 DUP5 PUSH20 0xFFFFFFFFFFFFFFFFFFFFFFFFFFFFFFFFFFFFFFFF AND PUSH20 0xFFFFFFFFFFFFFFFFFFFFFFFFFFFFFFFFFFFFFFFF AND DUP2 MSTORE PUSH1 0x20 ADD SWAP1 DUP2 MSTORE PUSH1 0x20 ADD PUSH0 KECCAK256 PUSH0 PUSH2 0x100 EXP DUP2 SLOAD DUP2 PUSH1 0xFF MUL NOT AND SWAP1 DUP4 ISZERO ISZERO MUL OR SWAP1 SSTORE POP PUSH1 0x4 PUSH0 DUP5 DUP2 MSTORE PUSH1 0x20 ADD SWAP1 DUP2 MSTORE PUSH1 0x20 ADD PUSH0 KECCAK256 DUP3 SWAP1 DUP1 PUSH1 0x1 DUP2 SLOAD ADD DUP1 DUP3 SSTORE DUP1 SWAP2 POP POP PUSH1 0x1 SWAP1 SUB SWAP1 PUSH0 MSTORE PUSH1 0x20 PUSH0 KECCAK256 ADD PUSH0 SWAP1 SWAP2 SWAP1 SWAP2 SWAP1 SWAP2 PUSH2 0x100 EXP DUP2 SLOAD DUP2 PUSH20 0xFFFFFFFFFFFFFFFFFFFFFFFFFFFFFFFFFFFFFFFF MUL NOT AND SWAP1 DUP4 PUSH20 0xFFFFFFFFFFFFFFFFFFFFFFFFFFFFFFFFFFFFFFFF AND MUL OR SWAP1 SSTORE POP DUP2 PUSH20 0xFFFFFFFFFFFFFFFFFFFFFFFFFFFFFFFFFFFFFFFF AND DUP4 PUSH32 0x7C29733EDBBBC7F83FC8C5FB3231AB4C21421E8DA3E7BB05CDDC0C2BE2D0CF65 PUSH1 0x40 MLOAD PUSH1 0x40 MLOAD DUP1 SWAP2 SUB SWAP1 LOG3 POP POP POP JUMP JUMPDEST PUSH1 0x60 PUSH1 0x6 PUSH0 DUP4 DUP2 MSTORE PUSH1 0x20 ADD SWAP1 DUP2 MSTORE PUSH1 0x20 ADD PUSH0 KECCAK256 DUP1 SLOAD DUP1 PUSH1 0x20 MUL PUSH1 0x20 ADD PUSH1 0x40 MLOAD SWAP1 DUP2 ADD PUSH1 0x40 MSTORE DUP1 SWAP3 SWAP2 SWAP1 DUP2 DUP2 MSTORE PUSH1 0x20 ADD DUP3 DUP1 SLOAD DUP1 ISZERO PUSH2 0x1EDA JUMPI PUSH1 0x20 MUL DUP3 ADD SWAP2 SWAP1 PUSH0 MSTORE PUSH1 0x20 PUSH0 KECCAK256 SWAP1 JUMPDEST DUP2 SLOAD DUP2 MSTORE PUSH1 0x20 ADD SWAP1 PUSH1 0x1 ADD SWAP1 DUP1 DUP4 GT PUSH2 0x1EC6 JUMPI JUMPDEST POP POP POP POP POP SWAP1 POP SWAP2 SWAP1 POP JUMP JUMPDEST PUSH1 0x5 DUP2 DUP2 SLOAD DUP2 LT PUSH2 0x1EF5 JUMPI PUSH0 DUP1 REVERT JUMPDEST SWAP1 PUSH0 MSTORE PUSH1 0x20 PUSH0 KECCAK256 SWAP1 PUSH1 0xA MUL ADD PUSH0 SWAP2 POP SWAP1 POP DUP1 PUSH0 ADD SLOAD SWAP1 DUP1 PUSH1 0x1 ADD DUP1 SLOAD PUSH2 0x1F1A SWAP1 PUSH2 0x3AF9 JUMP JUMPDEST DUP1 PUSH1 0x1F ADD PUSH1 0x20 DUP1 SWAP2 DIV MUL PUSH1 0x20 ADD PUSH1 0x40 MLOAD SWAP1 DUP2 ADD PUSH1 0x40 MSTORE DUP1 SWAP3 SWAP2 SWAP1 DUP2 DUP2 MSTORE PUSH1 0x20 ADD DUP3 DUP1 SLOAD PUSH2 0x1F46 SWAP1 PUSH2 0x3AF9 JUMP JUMPDEST DUP1 ISZERO PUSH2 0x1F91 JUMPI DUP1 PUSH1 0x1F LT PUSH2 0x1F68 JUMPI PUSH2 0x100 DUP1 DUP4 SLOAD DIV MUL DUP4 MSTORE SWAP2 PUSH1 0x20 ADD SWAP2 PUSH2 0x1F91 JUMP JUMPDEST DUP3 ADD SWAP2 SWAP1 PUSH0 MSTORE PUSH1 0x20 PUSH0 KECCAK256 SWAP1 JUMPDEST DUP2 SLOAD DUP2 MSTORE SWAP1 PUSH1 0x1 ADD SWAP1 PUSH1 0x20 ADD DUP1 DUP4 GT PUSH2 0x1F74 JUMPI DUP3 SWAP1 SUB PUSH1 0x1F AND DUP3 ADD SWAP2 JUMPDEST POP POP POP POP POP SWAP1 DUP1 PUSH1 0x2 ADD DUP1 SLOAD PUSH2 0x1FA6 SWAP1 PUSH2 0x3AF9 JUMP JUMPDEST DUP1 PUSH1 0x1F ADD PUSH1 0x20 DUP1 SWAP2 DIV MUL PUSH1 0x20 ADD PUSH1 0x40 MLOAD SWAP1 DUP2 ADD PUSH1 0x40 MSTORE DUP1 SWAP3 SWAP2 SWAP1 DUP2 DUP2 MSTORE PUSH1 0x20 ADD DUP3 DUP1 SLOAD PUSH2 0x1FD2 SWAP1 PUSH2 0x3AF9 JUMP JUMPDEST DUP1 ISZERO PUSH2 0x201D JUMPI DUP1 PUSH1 0x1F LT PUSH2 0x1FF4 JUMPI PUSH2 0x100 DUP1 DUP4 SLOAD DIV MUL DUP4 MSTORE SWAP2 PUSH1 0x20 ADD SWAP2 PUSH2 0x201D JUMP JUMPDEST DUP3 ADD SWAP2 SWAP1 PUSH0 MSTORE PUSH1 0x20 PUSH0 KECCAK256 SWAP1 JUMPDEST DUP2 SLOAD DUP2 MSTORE SWAP1 PUSH1 0x1 ADD SWAP1 PUSH1 0x20 ADD DUP1 DUP4 GT PUSH2 0x2000 JUMPI DUP3 SWAP1 SUB PUSH1 0x1F AND DUP3 ADD SWAP2 JUMPDEST POP POP POP POP POP SWAP1 DUP1 PUSH1 0x4 ADD DUP1 SLOAD PUSH2 0x2032 SWAP1 PUSH2 0x3AF9 JUMP JUMPDEST DUP1 PUSH1 0x1F ADD PUSH1 0x20 DUP1 SWAP2 DIV MUL PUSH1 0x20 ADD PUSH1 0x40 MLOAD SWAP1 DUP2 ADD PUSH1 0x40 MSTORE DUP1 SWAP3 SWAP2 SWAP1 DUP2 DUP2 MSTORE PUSH1 0x20 ADD DUP3 DUP1 SLOAD PUSH2 0x205E SWAP1 PUSH2 0x3AF9 JUMP JUMPDEST DUP1 ISZERO PUSH2 0x20A9 JUMPI DUP1 PUSH1 0x1F LT PUSH2 0x2080 JUMPI PUSH2 0x100 DUP1 DUP4 SLOAD DIV MUL DUP4 MSTORE SWAP2 PUSH1 0x20 ADD SWAP2 PUSH2 0x20A9 JUMP JUMPDEST DUP3 ADD SWAP2 SWAP1 PUSH0 MSTORE PUSH1 0x20 PUSH0 KECCAK256 SWAP1 JUMPDEST DUP2 SLOAD DUP2 MSTORE SWAP1 PUSH1 0x1 ADD SWAP1 PUSH1 0x20 ADD DUP1 DUP4 GT PUSH2 0x208C JUMPI DUP3 SWAP1 SUB PUSH1 0x1F AND DUP3 ADD SWAP2 JUMPDEST POP POP POP POP POP SWAP1 DUP1 PUSH1 0x5 ADD SLOAD SWAP1 DUP1 PUSH1 0x6 ADD PUSH0 SWAP1 SLOAD SWAP1 PUSH2 0x100 EXP SWAP1 DIV PUSH20 0xFFFFFFFFFFFFFFFFFFFFFFFFFFFFFFFFFFFFFFFF AND SWAP1 DUP1 PUSH1 0x7 ADD SLOAD SWAP1 DUP1 PUSH1 0x8 ADD PUSH0 SWAP1 SLOAD SWAP1 PUSH2 0x100 EXP SWAP1 DIV PUSH1 0xFF AND SWAP1 DUP1 PUSH1 0x9 ADD DUP1 SLOAD PUSH2 0x2101 SWAP1 PUSH2 0x3AF9 JUMP JUMPDEST DUP1 PUSH1 0x1F ADD PUSH1 0x20 DUP1 SWAP2 DIV MUL PUSH1 0x20 ADD PUSH1 0x40 MLOAD SWAP1 DUP2 ADD PUSH1 0x40 MSTORE DUP1 SWAP3 SWAP2 SWAP1 DUP2 DUP2 MSTORE PUSH1 0x20 ADD DUP3 DUP1 SLOAD PUSH2 0x212D SWAP1 PUSH2 0x3AF9 JUMP JUMPDEST DUP1 ISZERO PUSH2 0x2178 JUMPI DUP1 PUSH1 0x1F LT PUSH2 0x214F JUMPI PUSH2 0x100 DUP1 DUP4 SLOAD DIV MUL DUP4 MSTORE SWAP2 PUSH1 0x20 ADD SWAP2 PUSH2 0x2178 JUMP JUMPDEST DUP3 ADD SWAP2 SWAP1 PUSH0 MSTORE PUSH1 0x20 PUSH0 KECCAK256 SWAP1 JUMPDEST DUP2 SLOAD DUP2 MSTORE SWAP1 PUSH1 0x1 ADD SWAP1 PUSH1 0x20 ADD DUP1 DUP4 GT PUSH2 0x215B JUMPI DUP3 SWAP1 SUB PUSH1 0x1F AND DUP3 ADD SWAP2 JUMPDEST POP POP POP POP POP SWAP1 POP DUP10 JUMP JUMPDEST PUSH32 0x0 PUSH20 0xFFFFFFFFFFFFFFFFFFFFFFFFFFFFFFFFFFFFFFFF AND CALLER PUSH20 0xFFFFFFFFFFFFFFFFFFFFFFFFFFFFFFFFFFFFFFFF AND EQ PUSH2 0x2210 JUMPI PUSH1 0x40 MLOAD PUSH32 0x8C379A000000000000000000000000000000000000000000000000000000000 DUP2 MSTORE PUSH1 0x4 ADD PUSH2 0x2207 SWAP1 PUSH2 0x4747 JUMP JUMPDEST PUSH1 0x40 MLOAD DUP1 SWAP2 SUB SWAP1 REVERT JUMPDEST PUSH1 0x1 PUSH0 PUSH0 DUP4 PUSH20 0xFFFFFFFFFFFFFFFFFFFFFFFFFFFFFFFFFFFFFFFF AND PUSH20 0xFFFFFFFFFFFFFFFFFFFFFFFFFFFFFFFFFFFFFFFF AND DUP2 MSTORE PUSH1 0x20 ADD SWAP1 DUP2 MSTORE PUSH1 0x20 ADD PUSH0 KECCAK256 PUSH0 PUSH2 0x100 EXP DUP2 SLOAD DUP2 PUSH1 0xFF MUL NOT AND SWAP1 DUP4 ISZERO ISZERO MUL OR SWAP1 SSTORE POP PUSH32 0xD378AD41C1A753FD1BA9EC0FCD7970526C175B68545B4A02D6D15E7606FE3596 DUP2 PUSH1 0x40 MLOAD PUSH2 0x2293 SWAP2 SWAP1 PUSH2 0x31BE JUMP JUMPDEST PUSH1 0x40 MLOAD DUP1 SWAP2 SUB SWAP1 LOG1 POP JUMP JUMPDEST PUSH2 0x22A6 PUSH2 0x2DA3 JUMP JUMPDEST PUSH1 0x5 DUP1 SLOAD SWAP1 POP DUP3 LT PUSH2 0x22ED JUMPI PUSH1 0x40 MLOAD PUSH32 0x8C379A000000000000000000000000000000000000000000000000000000000 DUP2 MSTORE PUSH1 0x4 ADD PUSH2 0x22E4 SWAP1 PUSH2 0x497A JUMP JUMPDEST PUSH1 0x40 MLOAD DUP1 SWAP2 SUB SWAP1 REVERT JUMPDEST PUSH1 0x5 DUP3 DUP2 SLOAD DUP2 LT PUSH2 0x2301 JUMPI PUSH2 0x2300 PUSH2 0x4833 JUMP JUMPDEST JUMPDEST SWAP1 PUSH0 MSTORE PUSH1 0x20 PUSH0 KECCAK256 SWAP1 PUSH1 0xA MUL ADD PUSH1 0x40 MLOAD DUP1 PUSH2 0x140 ADD PUSH1 0x40 MSTORE SWAP1 DUP2 PUSH0 DUP3 ADD SLOAD DUP2 MSTORE PUSH1 0x20 ADD PUSH1 0x1 DUP3 ADD DUP1 SLOAD PUSH2 0x2332 SWAP1 PUSH2 0x3AF9 JUMP JUMPDEST DUP1 PUSH1 0x1F ADD PUSH1 0x20 DUP1 SWAP2 DIV MUL PUSH1 0x20 ADD PUSH1 0x40 MLOAD SWAP1 DUP2 ADD PUSH1 0x40 MSTORE DUP1 SWAP3 SWAP2 SWAP1 DUP2 DUP2 MSTORE PUSH1 0x20 ADD DUP3 DUP1 SLOAD PUSH2 0x235E SWAP1 PUSH2 0x3AF9 JUMP JUMPDEST DUP1 ISZERO PUSH2 0x23A9 JUMPI DUP1 PUSH1 0x1F LT PUSH2 0x2380 JUMPI PUSH2 0x100 DUP1 DUP4 SLOAD DIV MUL DUP4 MSTORE SWAP2 PUSH1 0x20 ADD SWAP2 PUSH2 0x23A9 JUMP JUMPDEST DUP3 ADD SWAP2 SWAP1 PUSH0 MSTORE PUSH1 0x20 PUSH0 KECCAK256 SWAP1 JUMPDEST DUP2 SLOAD DUP2 MSTORE SWAP1 PUSH1 0x1 ADD SWAP1 PUSH1 0x20 ADD DUP1 DUP4 GT PUSH2 0x238C JUMPI DUP3 SWAP1 SUB PUSH1 0x1F AND DUP3 ADD SWAP2 JUMPDEST POP POP POP POP POP DUP2 MSTORE PUSH1 0x20 ADD PUSH1 0x2 DUP3 ADD DUP1 SLOAD PUSH2 0x23C2 SWAP1 PUSH2 0x3AF9 JUMP JUMPDEST DUP1 PUSH1 0x1F ADD PUSH1 0x20 DUP1 SWAP2 DIV MUL PUSH1 0x20 ADD PUSH1 0x40 MLOAD SWAP1 DUP2 ADD PUSH1 0x40 MSTORE DUP1 SWAP3 SWAP2 SWAP1 DUP2 DUP2 MSTORE PUSH1 0x20 ADD DUP3 DUP1 SLOAD PUSH2 0x23EE SWAP1 PUSH2 0x3AF9 JUMP JUMPDEST DUP1 ISZERO PUSH2 0x2439 JUMPI DUP1 PUSH1 0x1F LT PUSH2 0x2410 JUMPI PUSH2 0x100 DUP1 DUP4 SLOAD DIV MUL DUP4 MSTORE SWAP2 PUSH1 0x20 ADD SWAP2 PUSH2 0x2439 JUMP JUMPDEST DUP3 ADD SWAP2 SWAP1 PUSH0 MSTORE PUSH1 0x20 PUSH0 KECCAK256 SWAP1 JUMPDEST DUP2 SLOAD DUP2 MSTORE SWAP1 PUSH1 0x1 ADD SWAP1 PUSH1 0x20 ADD DUP1 DUP4 GT PUSH2 0x241C JUMPI DUP3 SWAP1 SUB PUSH1 0x1F AND DUP3 ADD SWAP2 JUMPDEST POP POP POP POP POP DUP2 MSTORE PUSH1 0x20 ADD PUSH1 0x3 DUP3 ADD DUP1 SLOAD DUP1 PUSH1 0x20 MUL PUSH1 0x20 ADD PUSH1 0x40 MLOAD SWAP1 DUP2 ADD PUSH1 0x40 MSTORE DUP1 SWAP3 SWAP2 SWAP1 DUP2 DUP2 MSTORE PUSH1 0x20 ADD PUSH0 SWAP1 JUMPDEST DUP3 DUP3 LT ISZERO PUSH2 0x250E JUMPI DUP4 DUP3 SWAP1 PUSH0 MSTORE PUSH1 0x20 PUSH0 KECCAK256 ADD DUP1 SLOAD PUSH2 0x2483 SWAP1 PUSH2 0x3AF9 JUMP JUMPDEST DUP1 PUSH1 0x1F ADD PUSH1 0x20 DUP1 SWAP2 DIV MUL PUSH1 0x20 ADD PUSH1 0x40 MLOAD SWAP1 DUP2 ADD PUSH1 0x40 MSTORE DUP1 SWAP3 SWAP2 SWAP1 DUP2 DUP2 MSTORE PUSH1 0x20 ADD DUP3 DUP1 SLOAD PUSH2 0x24AF SWAP1 PUSH2 0x3AF9 JUMP JUMPDEST DUP1 ISZERO PUSH2 0x24FA JUMPI DUP1 PUSH1 0x1F LT PUSH2 0x24D1 JUMPI PUSH2 0x100 DUP1 DUP4 SLOAD DIV MUL DUP4 MSTORE SWAP2 PUSH1 0x20 ADD SWAP2 PUSH2 0x24FA JUMP JUMPDEST DUP3 ADD SWAP2 SWAP1 PUSH0 MSTORE PUSH1 0x20 PUSH0 KECCAK256 SWAP1 JUMPDEST DUP2 SLOAD DUP2 MSTORE SWAP1 PUSH1 0x1 ADD SWAP1 PUSH1 0x20 ADD DUP1 DUP4 GT PUSH2 0x24DD JUMPI DUP3 SWAP1 SUB PUSH1 0x1F AND DUP3 ADD SWAP2 JUMPDEST POP POP POP POP POP DUP2 MSTORE PUSH1 0x20 ADD SWAP1 PUSH1 0x1 ADD SWAP1 PUSH2 0x2466 JUMP JUMPDEST POP POP POP POP DUP2 MSTORE PUSH1 0x20 ADD PUSH1 0x4 DUP3 ADD DUP1 SLOAD PUSH2 0x2526 SWAP1 PUSH2 0x3AF9 JUMP JUMPDEST DUP1 PUSH1 0x1F ADD PUSH1 0x20 DUP1 SWAP2 DIV MUL PUSH1 0x20 ADD PUSH1 0x40 MLOAD SWAP1 DUP2 ADD PUSH1 0x40 MSTORE DUP1 SWAP3 SWAP2 SWAP1 DUP2 DUP2 MSTORE PUSH1 0x20 ADD DUP3 DUP1 SLOAD PUSH2 0x2552 SWAP1 PUSH2 0x3AF9 JUMP JUMPDEST DUP1 ISZERO PUSH2 0x259D JUMPI DUP1 PUSH1 0x1F LT PUSH2 0x2574 JUMPI PUSH2 0x100 DUP1 DUP4 SLOAD DIV MUL DUP4 MSTORE SWAP2 PUSH1 0x20 ADD SWAP2 PUSH2 0x259D JUMP JUMPDEST DUP3 ADD SWAP2 SWAP1 PUSH0 MSTORE PUSH1 0x20 PUSH0 KECCAK256 SWAP1 JUMPDEST DUP2 SLOAD DUP2 MSTORE SWAP1 PUSH1 0x1 ADD SWAP1 PUSH1 0x20 ADD DUP1 DUP4 GT PUSH2 0x2580 JUMPI DUP3 SWAP1 SUB PUSH1 0x1F AND DUP3 ADD SWAP2 JUMPDEST POP POP POP POP POP DUP2 MSTORE PUSH1 0x20 ADD PUSH1 0x5 DUP3 ADD SLOAD DUP2 MSTORE PUSH1 0x20 ADD PUSH1 0x6 DUP3 ADD PUSH0 SWAP1 SLOAD SWAP1 PUSH2 0x100 EXP SWAP1 DIV PUSH20 0xFFFFFFFFFFFFFFFFFFFFFFFFFFFFFFFFFFFFFFFF AND PUSH20 0xFFFFFFFFFFFFFFFFFFFFFFFFFFFFFFFFFFFFFFFF AND PUSH20 0xFFFFFFFFFFFFFFFFFFFFFFFFFFFFFFFFFFFFFFFF AND DUP2 MSTORE PUSH1 0x20 ADD PUSH1 0x7 DUP3 ADD SLOAD DUP2 MSTORE PUSH1 0x20 ADD PUSH1 0x8 DUP3 ADD PUSH0 SWAP1 SLOAD SWAP1 PUSH2 0x100 EXP SWAP1 DIV PUSH1 0xFF AND ISZERO ISZERO ISZERO ISZERO DUP2 MSTORE PUSH1 0x20 ADD PUSH1 0x9 DUP3 ADD DUP1 SLOAD PUSH2 0x2639 SWAP1 PUSH2 0x3AF9 JUMP JUMPDEST DUP1 PUSH1 0x1F ADD PUSH1 0x20 DUP1 SWAP2 DIV MUL PUSH1 0x20 ADD PUSH1 0x40 MLOAD SWAP1 DUP2 ADD PUSH1 0x40 MSTORE DUP1 SWAP3 SWAP2 SWAP1 DUP2 DUP2 MSTORE PUSH1 0x20 ADD DUP3 DUP1 SLOAD PUSH2 0x2665 SWAP1 PUSH2 0x3AF9 JUMP JUMPDEST DUP1 ISZERO PUSH2 0x26B0 JUMPI DUP1 PUSH1 0x1F LT PUSH2 0x2687 JUMPI PUSH2 0x100 DUP1 DUP4 SLOAD DIV MUL DUP4 MSTORE SWAP2 PUSH1 0x20 ADD SWAP2 PUSH2 0x26B0 JUMP JUMPDEST DUP3 ADD SWAP2 SWAP1 PUSH0 MSTORE PUSH1 0x20 PUSH0 KECCAK256 SWAP1 JUMPDEST DUP2 SLOAD DUP2 MSTORE SWAP1 PUSH1 0x1 ADD SWAP1 PUSH1 0x20 ADD DUP1 DUP4 GT PUSH2 0x2693 JUMPI DUP3 SWAP1 SUB PUSH1 0x1F AND DUP3 ADD SWAP2 JUMPDEST POP POP POP POP POP DUP2 MSTORE POP POP SWAP1 POP SWAP2 SWAP1 POP JUMP JUMPDEST PUSH32 0x0 PUSH20 0xFFFFFFFFFFFFFFFFFFFFFFFFFFFFFFFFFFFFFFFF AND CALLER PUSH20 0xFFFFFFFFFFFFFFFFFFFFFFFFFFFFFFFFFFFFFFFF AND EQ DUP1 PUSH2 0x275F JUMPI POP PUSH0 PUSH0 CALLER PUSH20 0xFFFFFFFFFFFFFFFFFFFFFFFFFFFFFFFFFFFFFFFF AND PUSH20 0xFFFFFFFFFFFFFFFFFFFFFFFFFFFFFFFFFFFFFFFF AND DUP2 MSTORE PUSH1 0x20 ADD SWAP1 DUP2 MSTORE PUSH1 0x20 ADD PUSH0 KECCAK256 PUSH0 SWAP1 SLOAD SWAP1 PUSH2 0x100 EXP SWAP1 DIV PUSH1 0xFF AND JUMPDEST PUSH2 0x279E JUMPI PUSH1 0x40 MLOAD PUSH32 0x8C379A000000000000000000000000000000000000000000000000000000000 DUP2 MSTORE PUSH1 0x4 ADD PUSH2 0x2795 SWAP1 PUSH2 0x49E2 JUMP JUMPDEST PUSH1 0x40 MLOAD DUP1 SWAP2 SUB SWAP1 REVERT JUMPDEST PUSH1 0x5 DUP1 SLOAD SWAP1 POP DUP2 LT PUSH2 0x27E5 JUMPI PUSH1 0x40 MLOAD PUSH32 0x8C379A000000000000000000000000000000000000000000000000000000000 DUP2 MSTORE PUSH1 0x4 ADD PUSH2 0x27DC SWAP1 PUSH2 0x497A JUMP JUMPDEST PUSH1 0x40 MLOAD DUP1 SWAP2 SUB SWAP1 REVERT JUMPDEST PUSH0 PUSH1 0x5 DUP3 DUP2 SLOAD DUP2 LT PUSH2 0x27FA JUMPI PUSH2 0x27F9 PUSH2 0x4833 JUMP JUMPDEST JUMPDEST SWAP1 PUSH0 MSTORE PUSH1 0x20 PUSH0 KECCAK256 SWAP1 PUSH1 0xA MUL ADD SWAP1 POP PUSH0 DUP2 PUSH0 ADD SLOAD SWAP1 POP PUSH1 0x7 PUSH0 DUP3 DUP2 MSTORE PUSH1 0x20 ADD SWAP1 DUP2 MSTORE PUSH1 0x20 ADD PUSH0 KECCAK256 PUSH0 PUSH2 0x100 EXP DUP2 SLOAD SWAP1 PUSH1 0xFF MUL NOT AND SWAP1 SSTORE DUP3 PUSH32 0x1E781B78F3477088EE1531C97151F4D6BEF331E35B572C88360B2D65637DDAC8 DUP3 PUSH1 0x40 MLOAD PUSH2 0x285F SWAP2 SWAP1 PUSH2 0x4A00 JUMP JUMPDEST PUSH1 0x40 MLOAD DUP1 SWAP2 SUB SWAP1 LOG2 POP POP POP JUMP JUMPDEST PUSH32 0x0 DUP2 JUMP JUMPDEST PUSH1 0x1 SLOAD DUP2 JUMP JUMPDEST PUSH2 0x289E PUSH2 0x2E09 JUMP JUMPDEST PUSH1 0x2 PUSH0 DUP4 DUP2 MSTORE PUSH1 0x20 ADD SWAP1 DUP2 MSTORE PUSH1 0x20 ADD PUSH0 KECCAK256 PUSH1 0x4 ADD PUSH0 SWAP1 SLOAD SWAP1 PUSH2 0x100 EXP SWAP1 DIV PUSH1 0xFF AND PUSH2 0x28FE JUMPI PUSH1 0x40 MLOAD PUSH32 0x8C379A000000000000000000000000000000000000000000000000000000000 DUP2 MSTORE PUSH1 0x4 ADD PUSH2 0x28F5 SWAP1 PUSH2 0x3B73 JUMP JUMPDEST PUSH1 0x40 MLOAD DUP1 SWAP2 SUB SWAP1 REVERT JUMPDEST PUSH1 0x2 PUSH0 DUP4 DUP2 MSTORE PUSH1 0x20 ADD SWAP1 DUP2 MSTORE PUSH1 0x20 ADD PUSH0 KECCAK256 PUSH1 0x40 MLOAD DUP1 PUSH1 0xA0 ADD PUSH1 0x40 MSTORE SWAP1 DUP2 PUSH0 DUP3 ADD PUSH0 SWAP1 SLOAD SWAP1 PUSH2 0x100 EXP SWAP1 DIV PUSH20 0xFFFFFFFFFFFFFFFFFFFFFFFFFFFFFFFFFFFFFFFF AND PUSH20 0xFFFFFFFFFFFFFFFFFFFFFFFFFFFFFFFFFFFFFFFF AND PUSH20 0xFFFFFFFFFFFFFFFFFFFFFFFFFFFFFFFFFFFFFFFF AND DUP2 MSTORE PUSH1 0x20 ADD PUSH1 0x1 DUP3 ADD DUP1 SLOAD PUSH2 0x297E SWAP1 PUSH2 0x3AF9 JUMP JUMPDEST DUP1 PUSH1 0x1F ADD PUSH1 0x20 DUP1 SWAP2 DIV MUL PUSH1 0x20 ADD PUSH1 0x40 MLOAD SWAP1 DUP2 ADD PUSH1 0x40 MSTORE DUP1 SWAP3 SWAP2 SWAP1 DUP2 DUP2 MSTORE PUSH1 0x20 ADD DUP3 DUP1 SLOAD PUSH2 0x29AA SWAP1 PUSH2 0x3AF9 JUMP JUMPDEST DUP1 ISZERO PUSH2 0x29F5 JUMPI DUP1 PUSH1 0x1F LT PUSH2 0x29CC JUMPI PUSH2 0x100 DUP1 DUP4 SLOAD DIV MUL DUP4 MSTORE SWAP2 PUSH1 0x20 ADD SWAP2 PUSH2 0x29F5 JUMP JUMPDEST DUP3 ADD SWAP2 SWAP1 PUSH0 MSTORE PUSH1 0x20 PUSH0 KECCAK256 SWAP1 JUMPDEST DUP2 SLOAD DUP2 MSTORE SWAP1 PUSH1 0x1 ADD SWAP1 PUSH1 0x20 ADD DUP1 DUP4 GT PUSH2 0x29D8 JUMPI DUP3 SWAP1 SUB PUSH1 0x1F AND DUP3 ADD SWAP2 JUMPDEST POP POP POP POP POP DUP2 MSTORE PUSH1 0x20 ADD PUSH1 0x2 DUP3 ADD DUP1 SLOAD PUSH2 0x2A0E SWAP1 PUSH2 0x3AF9 JUMP JUMPDEST DUP1 PUSH1 0x1F ADD PUSH1 0x20 DUP1 SWAP2 DIV MUL PUSH1 0x20 ADD PUSH1 0x40 MLOAD SWAP1 DUP2 ADD PUSH1 0x40 MSTORE DUP1 SWAP3 SWAP2 SWAP1 DUP2 DUP2 MSTORE PUSH1 0x20 ADD DUP3 DUP1 SLOAD PUSH2 0x2A3A SWAP1 PUSH2 0x3AF9 JUMP JUMPDEST DUP1 ISZERO PUSH2 0x2A85 JUMPI DUP1 PUSH1 0x1F LT PUSH2 0x2A5C JUMPI PUSH2 0x100 DUP1 DUP4 SLOAD DIV MUL DUP4 MSTORE SWAP2 PUSH1 0x20 ADD SWAP2 PUSH2 0x2A85 JUMP JUMPDEST DUP3 ADD SWAP2 SWAP1 PUSH0 MSTORE PUSH1 0x20 PUSH0 KECCAK256 SWAP1 JUMPDEST DUP2 SLOAD DUP2 MSTORE SWAP1 PUSH1 0x1 ADD SWAP1 PUSH1 0x20 ADD DUP1 DUP4 GT PUSH2 0x2A68 JUMPI DUP3 SWAP1 SUB PUSH1 0x1F AND DUP3 ADD SWAP2 JUMPDEST POP POP POP POP POP DUP2 MSTORE PUSH1 0x20 ADD PUSH1 0x3 DUP3 ADD SLOAD DUP2 MSTORE PUSH1 0x20 ADD PUSH1 0x4 DUP3 ADD PUSH0 SWAP1 SLOAD SWAP1 PUSH2 0x100 EXP SWAP1 DIV PUSH1 0xFF AND ISZERO ISZERO ISZERO ISZERO DUP2 MSTORE POP POP SWAP1 POP SWAP2 SWAP1 POP JUMP JUMPDEST PUSH0 PUSH1 0x20 MSTORE DUP1 PUSH0 MSTORE PUSH1 0x40 PUSH0 KECCAK256 PUSH0 SWAP2 POP SLOAD SWAP1 PUSH2 0x100 EXP SWAP1 DIV PUSH1 0xFF AND DUP2 JUMP JUMPDEST PUSH0 PUSH0 PUSH0 PUSH0 PUSH2 0x2AE5 DUP9 DUP9 DUP9 DUP9 PUSH2 0x2B03 JUMP JUMPDEST SWAP3 POP SWAP3 POP SWAP3 POP PUSH2 0x2AF5 DUP3 DUP3 PUSH2 0x2BEA JUMP JUMPDEST DUP3 SWAP4 POP POP POP POP SWAP5 SWAP4 POP POP POP POP JUMP JUMPDEST PUSH0 PUSH0 PUSH0 PUSH32 0x7FFFFFFFFFFFFFFFFFFFFFFFFFFFFFFF5D576E7357A4501DDFE92F46681B20A0 DUP5 PUSH0 SHR GT ISZERO PUSH2 0x2B3F JUMPI PUSH0 PUSH1 0x3 DUP6 SWAP3 POP SWAP3 POP SWAP3 POP PUSH2 0x2BE0 JUMP JUMPDEST PUSH0 PUSH1 0x1 DUP9 DUP9 DUP9 DUP9 PUSH1 0x40 MLOAD PUSH0 DUP2 MSTORE PUSH1 0x20 ADD PUSH1 0x40 MSTORE PUSH1 0x40 MLOAD PUSH2 0x2B62 SWAP5 SWAP4 SWAP3 SWAP2 SWAP1 PUSH2 0x4A28 JUMP JUMPDEST PUSH1 0x20 PUSH1 0x40 MLOAD PUSH1 0x20 DUP2 SUB SWAP1 DUP1 DUP5 SUB SWAP1 DUP6 GAS STATICCALL ISZERO DUP1 ISZERO PUSH2 0x2B82 JUMPI RETURNDATASIZE PUSH0 PUSH0 RETURNDATACOPY RETURNDATASIZE PUSH0 REVERT JUMPDEST POP POP POP PUSH1 0x20 PUSH1 0x40 MLOAD SUB MLOAD SWAP1 POP PUSH0 PUSH20 0xFFFFFFFFFFFFFFFFFFFFFFFFFFFFFFFFFFFFFFFF AND DUP2 PUSH20 0xFFFFFFFFFFFFFFFFFFFFFFFFFFFFFFFFFFFFFFFF AND SUB PUSH2 0x2BD3 JUMPI PUSH0 PUSH1 0x1 PUSH0 PUSH0 SHL SWAP4 POP SWAP4 POP SWAP4 POP POP PUSH2 0x2BE0 JUMP JUMPDEST DUP1 PUSH0 PUSH0 PUSH0 SHL SWAP4 POP SWAP4 POP SWAP4 POP POP JUMPDEST SWAP5 POP SWAP5 POP SWAP5 SWAP2 POP POP JUMP JUMPDEST PUSH0 PUSH1 0x3 DUP2 GT ISZERO PUSH2 0x2BFD JUMPI PUSH2 0x2BFC PUSH2 0x4A6B JUMP JUMPDEST JUMPDEST DUP3 PUSH1 0x3 DUP2 GT ISZERO PUSH2 0x2C10 JUMPI PUSH2 0x2C0F PUSH2 0x4A6B JUMP JUMPDEST JUMPDEST SUB ISZERO PUSH2 0x2D48 JUMPI PUSH1 0x1 PUSH1 0x3 DUP2 GT ISZERO PUSH2 0x2C2A JUMPI PUSH2 0x2C29 PUSH2 0x4A6B JUMP JUMPDEST JUMPDEST DUP3 PUSH1 0x3 DUP2 GT ISZERO PUSH2 0x2C3D JUMPI PUSH2 0x2C3C PUSH2 0x4A6B JUMP JUMPDEST JUMPDEST SUB PUSH2 0x2C74 JUMPI PUSH1 0x40 MLOAD PUSH32 0xF645EEDF00000000000000000000000000000000000000000000000000000000 DUP2 MSTORE PUSH1 0x4 ADD PUSH1 0x40 MLOAD DUP1 SWAP2 SUB SWAP1 REVERT JUMPDEST PUSH1 0x2 PUSH1 0x3 DUP2 GT ISZERO PUSH2 0x2C88 JUMPI PUSH2 0x2C87 PUSH2 0x4A6B JUMP JUMPDEST JUMPDEST DUP3 PUSH1 0x3 DUP2 GT ISZERO PUSH2 0x2C9B JUMPI PUSH2 0x2C9A PUSH2 0x4A6B JUMP JUMPDEST JUMPDEST SUB PUSH2 0x2CDF JUMPI DUP1 PUSH0 SHR PUSH1 0x40 MLOAD PUSH32 0xFCE698F700000000000000000000000000000000000000000000000000000000 DUP2 MSTORE PUSH1 0x4 ADD PUSH2 0x2CD6 SWAP2 SWAP1 PUSH2 0x3088 JUMP JUMPDEST PUSH1 0x40 MLOAD DUP1 SWAP2 SUB SWAP1 REVERT JUMPDEST PUSH1 0x3 DUP1 DUP2 GT ISZERO PUSH2 0x2CF2 JUMPI PUSH2 0x2CF1 PUSH2 0x4A6B JUMP JUMPDEST JUMPDEST DUP3 PUSH1 0x3 DUP2 GT ISZERO PUSH2 0x2D05 JUMPI PUSH2 0x2D04 PUSH2 0x4A6B JUMP JUMPDEST JUMPDEST SUB PUSH2 0x2D47 JUMPI DUP1 PUSH1 0x40 MLOAD PUSH32 0xD78BCE0C00000000000000000000000000000000000000000000000000000000 DUP2 MSTORE PUSH1 0x4 ADD PUSH2 0x2D3E SWAP2 SWAP1 PUSH2 0x4A00 JUMP JUMPDEST PUSH1 0x40 MLOAD DUP1 SWAP2 SUB SWAP1 REVERT JUMPDEST JUMPDEST POP POP JUMP JUMPDEST DUP3 DUP1 SLOAD DUP3 DUP3 SSTORE SWAP1 PUSH0 MSTORE PUSH1 0x20 PUSH0 KECCAK256 SWAP1 DUP2 ADD SWAP3 DUP3 ISZERO PUSH2 0x2D92 JUMPI SWAP2 PUSH1 0x20 MUL DUP3 ADD JUMPDEST DUP3 DUP2 GT ISZERO PUSH2 0x2D91 JUMPI DUP3 MLOAD DUP3 SWAP1 DUP2 PUSH2 0x2D81 SWAP2 SWAP1 PUSH2 0x4525 JUMP JUMPDEST POP SWAP2 PUSH1 0x20 ADD SWAP2 SWAP1 PUSH1 0x1 ADD SWAP1 PUSH2 0x2D6A JUMP JUMPDEST JUMPDEST POP SWAP1 POP PUSH2 0x2D9F SWAP2 SWAP1 PUSH2 0x2E4D JUMP JUMPDEST POP SWAP1 JUMP JUMPDEST PUSH1 0x40 MLOAD DUP1 PUSH2 0x140 ADD PUSH1 0x40 MSTORE DUP1 PUSH0 DUP2 MSTORE PUSH1 0x20 ADD PUSH1 0x60 DUP2 MSTORE PUSH1 0x20 ADD PUSH1 0x60 DUP2 MSTORE PUSH1 0x20 ADD PUSH1 0x60 DUP2 MSTORE PUSH1 0x20 ADD PUSH1 0x60 DUP2 MSTORE PUSH1 0x20 ADD PUSH0 DUP2 MSTORE PUSH1 0x20 ADD PUSH0 PUSH20 0xFFFFFFFFFFFFFFFFFFFFFFFFFFFFFFFFFFFFFFFF AND DUP2 MSTORE PUSH1 0x20 ADD PUSH0 DUP2 MSTORE PUSH1 0x20 ADD PUSH0 ISZERO ISZERO DUP2 MSTORE PUSH1 0x20 ADD PUSH1 0x60 DUP2 MSTORE POP SWAP1 JUMP JUMPDEST PUSH1 0x40 MLOAD DUP1 PUSH1 0xA0 ADD PUSH1 0x40 MSTORE DUP1 PUSH0 PUSH20 0xFFFFFFFFFFFFFFFFFFFFFFFFFFFFFFFFFFFFFFFF AND DUP2 MSTORE PUSH1 0x20 ADD PUSH1 0x60 DUP2 MSTORE PUSH1 0x20 ADD PUSH1 0x60 DUP2 MSTORE PUSH1 0x20 ADD PUSH0 DUP2 MSTORE PUSH1 0x20 ADD PUSH0 ISZERO ISZERO DUP2 MSTORE POP SWAP1 JUMP JUMPDEST JUMPDEST DUP1 DUP3 GT ISZERO PUSH2 0x2E6C JUMPI PUSH0 DUP2 DUP2 PUSH2 0x2E63 SWAP2 SWAP1 PUSH2 0x2E70 JUMP JUMPDEST POP PUSH1 0x1 ADD PUSH2 0x2E4E JUMP JUMPDEST POP SWAP1 JUMP JUMPDEST POP DUP1 SLOAD PUSH2 0x2E7C SWAP1 PUSH2 0x3AF9 JUMP JUMPDEST PUSH0 DUP3 SSTORE DUP1 PUSH1 0x1F LT PUSH2 0x2E8D JUMPI POP PUSH2 0x2EAA JUMP JUMPDEST PUSH1 0x1F ADD PUSH1 0x20 SWAP1 DIV SWAP1 PUSH0 MSTORE PUSH1 0x20 PUSH0 KECCAK256 SWAP1 DUP2 ADD SWAP1 PUSH2 0x2EA9 SWAP2 SWAP1 PUSH2 0x2EAD JUMP JUMPDEST JUMPDEST POP JUMP JUMPDEST JUMPDEST DUP1 DUP3 GT ISZERO PUSH2 0x2EC4 JUMPI PUSH0 DUP2 PUSH0 SWAP1 SSTORE POP PUSH1 0x1 ADD PUSH2 0x2EAE JUMP JUMPDEST POP SWAP1 JUMP JUMPDEST PUSH0 PUSH1 0x40 MLOAD SWAP1 POP SWAP1 JUMP JUMPDEST PUSH0 PUSH0 REVERT JUMPDEST PUSH0 PUSH0 REVERT JUMPDEST PUSH0 DUP2 SWAP1 POP SWAP2 SWAP1 POP JUMP JUMPDEST PUSH2 0x2EEB DUP2 PUSH2 0x2ED9 JUMP JUMPDEST DUP2 EQ PUSH2 0x2EF5 JUMPI PUSH0 PUSH0 REVERT JUMPDEST POP JUMP JUMPDEST PUSH0 DUP2 CALLDATALOAD SWAP1 POP PUSH2 0x2F06 DUP2 PUSH2 0x2EE2 JUMP JUMPDEST SWAP3 SWAP2 POP POP JUMP JUMPDEST PUSH0 PUSH1 0x20 DUP3 DUP5 SUB SLT ISZERO PUSH2 0x2F21 JUMPI PUSH2 0x2F20 PUSH2 0x2ED1 JUMP JUMPDEST JUMPDEST PUSH0 PUSH2 0x2F2E DUP5 DUP3 DUP6 ADD PUSH2 0x2EF8 JUMP JUMPDEST SWAP2 POP POP SWAP3 SWAP2 POP POP JUMP JUMPDEST PUSH0 PUSH20 0xFFFFFFFFFFFFFFFFFFFFFFFFFFFFFFFFFFFFFFFF DUP3 AND SWAP1 POP SWAP2 SWAP1 POP JUMP JUMPDEST PUSH0 PUSH2 0x2F60 DUP3 PUSH2 0x2F37 JUMP JUMPDEST SWAP1 POP SWAP2 SWAP1 POP JUMP JUMPDEST PUSH2 0x2F70 DUP2 PUSH2 0x2F56 JUMP JUMPDEST DUP3 MSTORE POP POP JUMP JUMPDEST PUSH0 DUP2 MLOAD SWAP1 POP SWAP2 SWAP1 POP JUMP JUMPDEST PUSH0 DUP3 DUP3 MSTORE PUSH1 0x20 DUP3 ADD SWAP1 POP SWAP3 SWAP2 POP POP JUMP JUMPDEST PUSH0 JUMPDEST DUP4 DUP2 LT ISZERO PUSH2 0x2FAD JUMPI DUP1 DUP3 ADD MLOAD DUP2 DUP5 ADD MSTORE PUSH1 0x20 DUP2 ADD SWAP1 POP PUSH2 0x2F92 JUMP JUMPDEST PUSH0 DUP5 DUP5 ADD MSTORE POP POP POP POP JUMP JUMPDEST PUSH0 PUSH1 0x1F NOT PUSH1 0x1F DUP4 ADD AND SWAP1 POP SWAP2 SWAP1 POP JUMP JUMPDEST PUSH0 PUSH2 0x2FD2 DUP3 PUSH2 0x2F76 JUMP JUMPDEST PUSH2 0x2FDC DUP2 DUP6 PUSH2 0x2F80 JUMP JUMPDEST SWAP4 POP PUSH2 0x2FEC DUP2 DUP6 PUSH1 0x20 DUP7 ADD PUSH2 0x2F90 JUMP JUMPDEST PUSH2 0x2FF5 DUP2 PUSH2 0x2FB8 JUMP JUMPDEST DUP5 ADD SWAP2 POP POP SWAP3 SWAP2 POP POP JUMP JUMPDEST PUSH2 0x3009 DUP2 PUSH2 0x2ED9 JUMP JUMPDEST DUP3 MSTORE POP POP JUMP JUMPDEST PUSH0 DUP2 ISZERO ISZERO SWAP1 POP SWAP2 SWAP1 POP JUMP JUMPDEST PUSH2 0x3023 DUP2 PUSH2 0x300F JUMP JUMPDEST DUP3 MSTORE POP POP JUMP JUMPDEST PUSH0 PUSH1 0xA0 DUP3 ADD SWAP1 POP PUSH2 0x303C PUSH0 DUP4 ADD DUP9 PUSH2 0x2F67 JUMP JUMPDEST DUP2 DUP2 SUB PUSH1 0x20 DUP4 ADD MSTORE PUSH2 0x304E DUP2 DUP8 PUSH2 0x2FC8 JUMP JUMPDEST SWAP1 POP DUP2 DUP2 SUB PUSH1 0x40 DUP4 ADD MSTORE PUSH2 0x3062 DUP2 DUP7 PUSH2 0x2FC8 JUMP JUMPDEST SWAP1 POP PUSH2 0x3071 PUSH1 0x60 DUP4 ADD DUP6 PUSH2 0x3000 JUMP JUMPDEST PUSH2 0x307E PUSH1 0x80 DUP4 ADD DUP5 PUSH2 0x301A JUMP JUMPDEST SWAP7 SWAP6 POP POP POP POP POP POP JUMP JUMPDEST PUSH0 PUSH1 0x20 DUP3 ADD SWAP1 POP PUSH2 0x309B PUSH0 DUP4 ADD DUP5 PUSH2 0x3000 JUMP JUMPDEST SWAP3 SWAP2 POP POP JUMP JUMPDEST PUSH2 0x30AA DUP2 PUSH2 0x2F56 JUMP JUMPDEST DUP2 EQ PUSH2 0x30B4 JUMPI PUSH0 PUSH0 REVERT JUMPDEST POP JUMP JUMPDEST PUSH0 DUP2 CALLDATALOAD SWAP1 POP PUSH2 0x30C5 DUP2 PUSH2 0x30A1 JUMP JUMPDEST SWAP3 SWAP2 POP POP JUMP JUMPDEST PUSH0 PUSH0 PUSH1 0x40 DUP4 DUP6 SUB SLT ISZERO PUSH2 0x30E1 JUMPI PUSH2 0x30E0 PUSH2 0x2ED1 JUMP JUMPDEST JUMPDEST PUSH0 PUSH2 0x30EE DUP6 DUP3 DUP7 ADD PUSH2 0x2EF8 JUMP JUMPDEST SWAP3 POP POP PUSH1 0x20 PUSH2 0x30FF DUP6 DUP3 DUP7 ADD PUSH2 0x30B7 JUMP JUMPDEST SWAP2 POP POP SWAP3 POP SWAP3 SWAP1 POP JUMP JUMPDEST PUSH0 PUSH1 0x20 DUP3 ADD SWAP1 POP PUSH2 0x311C PUSH0 DUP4 ADD DUP5 PUSH2 0x301A JUMP JUMPDEST SWAP3 SWAP2 POP POP JUMP JUMPDEST PUSH0 PUSH0 PUSH1 0x40 DUP4 DUP6 SUB SLT ISZERO PUSH2 0x3138 JUMPI PUSH2 0x3137 PUSH2 0x2ED1 JUMP JUMPDEST JUMPDEST PUSH0 PUSH2 0x3145 DUP6 DUP3 DUP7 ADD PUSH2 0x2EF8 JUMP JUMPDEST SWAP3 POP POP PUSH1 0x20 PUSH2 0x3156 DUP6 DUP3 DUP7 ADD PUSH2 0x2EF8 JUMP JUMPDEST SWAP2 POP POP SWAP3 POP SWAP3 SWAP1 POP JUMP JUMPDEST PUSH0 DUP2 SWAP1 POP SWAP2 SWAP1 POP JUMP JUMPDEST PUSH2 0x3172 DUP2 PUSH2 0x3160 JUMP JUMPDEST DUP2 EQ PUSH2 0x317C JUMPI PUSH0 PUSH0 REVERT JUMPDEST POP JUMP JUMPDEST PUSH0 DUP2 CALLDATALOAD SWAP1 POP PUSH2 0x318D DUP2 PUSH2 0x3169 JUMP JUMPDEST SWAP3 SWAP2 POP POP JUMP JUMPDEST PUSH0 PUSH1 0x20 DUP3 DUP5 SUB SLT ISZERO PUSH2 0x31A8 JUMPI PUSH2 0x31A7 PUSH2 0x2ED1 JUMP JUMPDEST JUMPDEST PUSH0 PUSH2 0x31B5 DUP5 DUP3 DUP6 ADD PUSH2 0x317F JUMP JUMPDEST SWAP2 POP POP SWAP3 SWAP2 POP POP JUMP JUMPDEST PUSH0 PUSH1 0x20 DUP3 ADD SWAP1 POP PUSH2 0x31D1 PUSH0 DUP4 ADD DUP5 PUSH2 0x2F67 JUMP JUMPDEST SWAP3 SWAP2 POP POP JUMP JUMPDEST PUSH0 PUSH0 REVERT JUMPDEST PUSH0 PUSH1 0xE0 DUP3 DUP5 SUB SLT ISZERO PUSH2 0x31F0 JUMPI PUSH2 0x31EF PUSH2 0x31D7 JUMP JUMPDEST JUMPDEST DUP2 SWAP1 POP SWAP3 SWAP2 POP POP JUMP JUMPDEST PUSH0 PUSH1 0xFF DUP3 AND SWAP1 POP SWAP2 SWAP1 POP JUMP JUMPDEST PUSH2 0x320E DUP2 PUSH2 0x31F9 JUMP JUMPDEST DUP2 EQ PUSH2 0x3218 JUMPI PUSH0 PUSH0 REVERT JUMPDEST POP JUMP JUMPDEST PUSH0 DUP2 CALLDATALOAD SWAP1 POP PUSH2 0x3229 DUP2 PUSH2 0x3205 JUMP JUMPDEST SWAP3 SWAP2 POP POP JUMP JUMPDEST PUSH0 PUSH0 PUSH0 PUSH0 PUSH0 PUSH1 0xA0 DUP7 DUP9 SUB SLT ISZERO PUSH2 0x3248 JUMPI PUSH2 0x3247 PUSH2 0x2ED1 JUMP JUMPDEST JUMPDEST PUSH0 DUP7 ADD CALLDATALOAD PUSH8 0xFFFFFFFFFFFFFFFF DUP2 GT ISZERO PUSH2 0x3265 JUMPI PUSH2 0x3264 PUSH2 0x2ED5 JUMP JUMPDEST JUMPDEST PUSH2 0x3271 DUP9 DUP3 DUP10 ADD PUSH2 0x31DB JUMP JUMPDEST SWAP6 POP POP PUSH1 0x20 PUSH2 0x3282 DUP9 DUP3 DUP10 ADD PUSH2 0x2EF8 JUMP JUMPDEST SWAP5 POP POP PUSH1 0x40 PUSH2 0x3293 DUP9 DUP3 DUP10 ADD PUSH2 0x321B JUMP JUMPDEST SWAP4 POP POP PUSH1 0x60 PUSH2 0x32A4 DUP9 DUP3 DUP10 ADD PUSH2 0x317F JUMP JUMPDEST SWAP3 POP POP PUSH1 0x80 PUSH2 0x32B5 DUP9 DUP3 DUP10 ADD PUSH2 0x317F JUMP JUMPDEST SWAP2 POP POP SWAP3 SWAP6 POP SWAP3 SWAP6 SWAP1 SWAP4 POP JUMP JUMPDEST PUSH0 DUP2 MLOAD SWAP1 POP SWAP2 SWAP1 POP JUMP JUMPDEST PUSH0 DUP3 DUP3 MSTORE PUSH1 0x20 DUP3 ADD SWAP1 POP SWAP3 SWAP2 POP POP JUMP JUMPDEST PUSH0 DUP2 SWAP1 POP PUSH1 0x20 DUP3 ADD SWAP1 POP SWAP2 SWAP1 POP JUMP JUMPDEST PUSH2 0x32F4 DUP2 PUSH2 0x2F56 JUMP JUMPDEST DUP3 MSTORE POP POP JUMP JUMPDEST PUSH0 PUSH2 0x3305 DUP4 DUP4 PUSH2 0x32EB JUMP JUMPDEST PUSH1 0x20 DUP4 ADD SWAP1 POP SWAP3 SWAP2 POP POP JUMP JUMPDEST PUSH0 PUSH1 0x20 DUP3 ADD SWAP1 POP SWAP2 SWAP1 POP JUMP JUMPDEST PUSH0 PUSH2 0x3327 DUP3 PUSH2 0x32C2 JUMP JUMPDEST PUSH2 0x3331 DUP2 DUP6 PUSH2 0x32CC JUMP JUMPDEST SWAP4 POP PUSH2 0x333C DUP4 PUSH2 0x32DC JUMP JUMPDEST DUP1 PUSH0 JUMPDEST DUP4 DUP2 LT ISZERO PUSH2 0x336C JUMPI DUP2 MLOAD PUSH2 0x3353 DUP9 DUP3 PUSH2 0x32FA JUMP JUMPDEST SWAP8 POP PUSH2 0x335E DUP4 PUSH2 0x3311 JUMP JUMPDEST SWAP3 POP POP PUSH1 0x1 DUP2 ADD SWAP1 POP PUSH2 0x333F JUMP JUMPDEST POP DUP6 SWAP4 POP POP POP POP SWAP3 SWAP2 POP POP JUMP JUMPDEST PUSH0 PUSH1 0x20 DUP3 ADD SWAP1 POP DUP2 DUP2 SUB PUSH0 DUP4 ADD MSTORE PUSH2 0x3391 DUP2 DUP5 PUSH2 0x331D JUMP JUMPDEST SWAP1 POP SWAP3 SWAP2 POP POP JUMP JUMPDEST PUSH0 PUSH0 REVERT JUMPDEST PUSH0 PUSH0 REVERT JUMPDEST PUSH0 PUSH0 REVERT JUMPDEST PUSH0 PUSH0 DUP4 PUSH1 0x1F DUP5 ADD SLT PUSH2 0x33BA JUMPI PUSH2 0x33B9 PUSH2 0x3399 JUMP JUMPDEST JUMPDEST DUP3 CALLDATALOAD SWAP1 POP PUSH8 0xFFFFFFFFFFFFFFFF DUP2 GT ISZERO PUSH2 0x33D7 JUMPI PUSH2 0x33D6 PUSH2 0x339D JUMP JUMPDEST JUMPDEST PUSH1 0x20 DUP4 ADD SWAP2 POP DUP4 PUSH1 0x1 DUP3 MUL DUP4 ADD GT ISZERO PUSH2 0x33F3 JUMPI PUSH2 0x33F2 PUSH2 0x33A1 JUMP JUMPDEST JUMPDEST SWAP3 POP SWAP3 SWAP1 POP JUMP JUMPDEST PUSH0 PUSH0 PUSH0 PUSH0 PUSH1 0x40 DUP6 DUP8 SUB SLT ISZERO PUSH2 0x3412 JUMPI PUSH2 0x3411 PUSH2 0x2ED1 JUMP JUMPDEST JUMPDEST PUSH0 DUP6 ADD CALLDATALOAD PUSH8 0xFFFFFFFFFFFFFFFF DUP2 GT ISZERO PUSH2 0x342F JUMPI PUSH2 0x342E PUSH2 0x2ED5 JUMP JUMPDEST JUMPDEST PUSH2 0x343B DUP8 DUP3 DUP9 ADD PUSH2 0x33A5 JUMP JUMPDEST SWAP5 POP SWAP5 POP POP PUSH1 0x20 DUP6 ADD CALLDATALOAD PUSH8 0xFFFFFFFFFFFFFFFF DUP2 GT ISZERO PUSH2 0x345E JUMPI PUSH2 0x345D PUSH2 0x2ED5 JUMP JUMPDEST JUMPDEST PUSH2 0x346A DUP8 DUP3 DUP9 ADD PUSH2 0x33A5 JUMP JUMPDEST SWAP3 POP SWAP3 POP POP SWAP3 SWAP6 SWAP2 SWAP5 POP SWAP3 POP JUMP JUMPDEST PUSH0 PUSH1 0x20 DUP3 DUP5 SUB SLT ISZERO PUSH2 0x348D JUMPI PUSH2 0x348C PUSH2 0x2ED1 JUMP JUMPDEST JUMPDEST PUSH0 PUSH2 0x349A DUP5 DUP3 DUP6 ADD PUSH2 0x30B7 JUMP JUMPDEST SWAP2 POP POP SWAP3 SWAP2 POP POP JUMP JUMPDEST PUSH0 DUP2 MLOAD SWAP1 POP SWAP2 SWAP1 POP JUMP JUMPDEST PUSH0 DUP3 DUP3 MSTORE PUSH1 0x20 DUP3 ADD SWAP1 POP SWAP3 SWAP2 POP POP JUMP JUMPDEST PUSH0 DUP2 SWAP1 POP PUSH1 0x20 DUP3 ADD SWAP1 POP SWAP2 SWAP1 POP JUMP JUMPDEST PUSH2 0x34D5 DUP2 PUSH2 0x3160 JUMP JUMPDEST DUP3 MSTORE POP POP JUMP JUMPDEST PUSH0 DUP3 DUP3 MSTORE PUSH1 0x20 DUP3 ADD SWAP1 POP SWAP3 SWAP2 POP POP JUMP JUMPDEST PUSH0 PUSH2 0x34F5 DUP3 PUSH2 0x2F76 JUMP JUMPDEST PUSH2 0x34FF DUP2 DUP6 PUSH2 0x34DB JUMP JUMPDEST SWAP4 POP PUSH2 0x350F DUP2 DUP6 PUSH1 0x20 DUP7 ADD PUSH2 0x2F90 JUMP JUMPDEST PUSH2 0x3518 DUP2 PUSH2 0x2FB8 JUMP JUMPDEST DUP5 ADD SWAP2 POP POP SWAP3 SWAP2 POP POP JUMP JUMPDEST PUSH0 DUP2 MLOAD SWAP1 POP SWAP2 SWAP1 POP JUMP JUMPDEST PUSH0 DUP3 DUP3 MSTORE PUSH1 0x20 DUP3 ADD SWAP1 POP SWAP3 SWAP2 POP POP JUMP JUMPDEST PUSH0 DUP2 SWAP1 POP PUSH1 0x20 DUP3 ADD SWAP1 POP SWAP2 SWAP1 POP JUMP JUMPDEST PUSH0 PUSH2 0x3557 DUP4 DUP4 PUSH2 0x34EB JUMP JUMPDEST SWAP1 POP SWAP3 SWAP2 POP POP JUMP JUMPDEST PUSH0 PUSH1 0x20 DUP3 ADD SWAP1 POP SWAP2 SWAP1 POP JUMP JUMPDEST PUSH0 PUSH2 0x3575 DUP3 PUSH2 0x3523 JUMP JUMPDEST PUSH2 0x357F DUP2 DUP6 PUSH2 0x352D JUMP JUMPDEST SWAP4 POP DUP4 PUSH1 0x20 DUP3 MUL DUP6 ADD PUSH2 0x3591 DUP6 PUSH2 0x353D JUMP JUMPDEST DUP1 PUSH0 JUMPDEST DUP6 DUP2 LT ISZERO PUSH2 0x35CC JUMPI DUP5 DUP5 SUB DUP10 MSTORE DUP2 MLOAD PUSH2 0x35AD DUP6 DUP3 PUSH2 0x354C JUMP JUMPDEST SWAP5 POP PUSH2 0x35B8 DUP4 PUSH2 0x355F JUMP JUMPDEST SWAP3 POP PUSH1 0x20 DUP11 ADD SWAP10 POP POP PUSH1 0x1 DUP2 ADD SWAP1 POP PUSH2 0x3594 JUMP JUMPDEST POP DUP3 SWAP8 POP DUP8 SWAP6 POP POP POP POP POP POP SWAP3 SWAP2 POP POP JUMP JUMPDEST PUSH2 0x35E7 DUP2 PUSH2 0x2ED9 JUMP JUMPDEST DUP3 MSTORE POP POP JUMP JUMPDEST PUSH2 0x35F6 DUP2 PUSH2 0x300F JUMP JUMPDEST DUP3 MSTORE POP POP JUMP JUMPDEST PUSH0 PUSH2 0x140 DUP4 ADD PUSH0 DUP4 ADD MLOAD PUSH2 0x3612 PUSH0 DUP7 ADD DUP3 PUSH2 0x34CC JUMP JUMPDEST POP PUSH1 0x20 DUP4 ADD MLOAD DUP5 DUP3 SUB PUSH1 0x20 DUP7 ADD MSTORE PUSH2 0x362A DUP3 DUP3 PUSH2 0x34EB JUMP JUMPDEST SWAP2 POP POP PUSH1 0x40 DUP4 ADD MLOAD DUP5 DUP3 SUB PUSH1 0x40 DUP7 ADD MSTORE PUSH2 0x3644 DUP3 DUP3 PUSH2 0x34EB JUMP JUMPDEST SWAP2 POP POP PUSH1 0x60 DUP4 ADD MLOAD DUP5 DUP3 SUB PUSH1 0x60 DUP7 ADD MSTORE PUSH2 0x365E DUP3 DUP3 PUSH2 0x356B JUMP JUMPDEST SWAP2 POP POP PUSH1 0x80 DUP4 ADD MLOAD DUP5 DUP3 SUB PUSH1 0x80 DUP7 ADD MSTORE PUSH2 0x3678 DUP3 DUP3 PUSH2 0x34EB JUMP JUMPDEST SWAP2 POP POP PUSH1 0xA0 DUP4 ADD MLOAD PUSH2 0x368D PUSH1 0xA0 DUP7 ADD DUP3 PUSH2 0x35DE JUMP JUMPDEST POP PUSH1 0xC0 DUP4 ADD MLOAD PUSH2 0x36A0 PUSH1 0xC0 DUP7 ADD DUP3 PUSH2 0x32EB JUMP JUMPDEST POP PUSH1 0xE0 DUP4 ADD MLOAD PUSH2 0x36B3 PUSH1 0xE0 DUP7 ADD DUP3 PUSH2 0x35DE JUMP JUMPDEST POP PUSH2 0x100 DUP4 ADD MLOAD PUSH2 0x36C8 PUSH2 0x100 DUP7 ADD DUP3 PUSH2 0x35ED JUMP JUMPDEST POP PUSH2 0x120 DUP4 ADD MLOAD DUP5 DUP3 SUB PUSH2 0x120 DUP7 ADD MSTORE PUSH2 0x36E2 DUP3 DUP3 PUSH2 0x34EB JUMP JUMPDEST SWAP2 POP POP DUP1 SWAP2 POP POP SWAP3 SWAP2 POP POP JUMP JUMPDEST PUSH0 PUSH2 0x36FA DUP4 DUP4 PUSH2 0x35FC JUMP JUMPDEST SWAP1 POP SWAP3 SWAP2 POP POP JUMP JUMPDEST PUSH0 PUSH1 0x20 DUP3 ADD SWAP1 POP SWAP2 SWAP1 POP JUMP JUMPDEST PUSH0 PUSH2 0x3718 DUP3 PUSH2 0x34A3 JUMP JUMPDEST PUSH2 0x3722 DUP2 DUP6 PUSH2 0x34AD JUMP JUMPDEST SWAP4 POP DUP4 PUSH1 0x20 DUP3 MUL DUP6 ADD PUSH2 0x3734 DUP6 PUSH2 0x34BD JUMP JUMPDEST DUP1 PUSH0 JUMPDEST DUP6 DUP2 LT ISZERO PUSH2 0x376F JUMPI DUP5 DUP5 SUB DUP10 MSTORE DUP2 MLOAD PUSH2 0x3750 DUP6 DUP3 PUSH2 0x36EF JUMP JUMPDEST SWAP5 POP PUSH2 0x375B DUP4 PUSH2 0x3702 JUMP JUMPDEST SWAP3 POP PUSH1 0x20 DUP11 ADD SWAP10 POP POP PUSH1 0x1 DUP2 ADD SWAP1 POP PUSH2 0x3737 JUMP JUMPDEST POP DUP3 SWAP8 POP DUP8 SWAP6 POP POP POP POP POP POP SWAP3 SWAP2 POP POP JUMP JUMPDEST PUSH0 PUSH1 0x20 DUP3 ADD SWAP1 POP DUP2 DUP2 SUB PUSH0 DUP4 ADD MSTORE PUSH2 0x3799 DUP2 DUP5 PUSH2 0x370E JUMP JUMPDEST SWAP1 POP SWAP3 SWAP2 POP POP JUMP JUMPDEST PUSH0 DUP2 MLOAD SWAP1 POP SWAP2 SWAP1 POP JUMP JUMPDEST PUSH0 DUP3 DUP3 MSTORE PUSH1 0x20 DUP3 ADD SWAP1 POP SWAP3 SWAP2 POP POP JUMP JUMPDEST PUSH0 DUP2 SWAP1 POP PUSH1 0x20 DUP3 ADD SWAP1 POP SWAP2 SWAP1 POP JUMP JUMPDEST PUSH0 PUSH2 0x37D5 DUP4 DUP4 PUSH2 0x35DE JUMP JUMPDEST PUSH1 0x20 DUP4 ADD SWAP1 POP SWAP3 SWAP2 POP POP JUMP JUMPDEST PUSH0 PUSH1 0x20 DUP3 ADD SWAP1 POP SWAP2 SWAP1 POP JUMP JUMPDEST PUSH0 PUSH2 0x37F7 DUP3 PUSH2 0x37A1 JUMP JUMPDEST PUSH2 0x3801 DUP2 DUP6 PUSH2 0x37AB JUMP JUMPDEST SWAP4 POP PUSH2 0x380C DUP4 PUSH2 0x37BB JUMP JUMPDEST DUP1 PUSH0 JUMPDEST DUP4 DUP2 LT ISZERO PUSH2 0x383C JUMPI DUP2 MLOAD PUSH2 0x3823 DUP9 DUP3 PUSH2 0x37CA JUMP JUMPDEST SWAP8 POP PUSH2 0x382E DUP4 PUSH2 0x37E1 JUMP JUMPDEST SWAP3 POP POP PUSH1 0x1 DUP2 ADD SWAP1 POP PUSH2 0x380F JUMP JUMPDEST POP DUP6 SWAP4 POP POP POP POP SWAP3 SWAP2 POP POP JUMP JUMPDEST PUSH0 PUSH1 0x20 DUP3 ADD SWAP1 POP DUP2 DUP2 SUB PUSH0 DUP4 ADD MSTORE PUSH2 0x3861 DUP2 DUP5 PUSH2 0x37ED JUMP JUMPDEST SWAP1 POP SWAP3 SWAP2 POP POP JUMP JUMPDEST PUSH2 0x3872 DUP2 PUSH2 0x3160 JUMP JUMPDEST DUP3 MSTORE POP POP JUMP JUMPDEST PUSH0 PUSH2 0x120 DUP3 ADD SWAP1 POP PUSH2 0x388C PUSH0 DUP4 ADD DUP13 PUSH2 0x3869 JUMP JUMPDEST DUP2 DUP2 SUB PUSH1 0x20 DUP4 ADD MSTORE PUSH2 0x389E DUP2 DUP12 PUSH2 0x2FC8 JUMP JUMPDEST SWAP1 POP DUP2 DUP2 SUB PUSH1 0x40 DUP4 ADD MSTORE PUSH2 0x38B2 DUP2 DUP11 PUSH2 0x2FC8 JUMP JUMPDEST SWAP1 POP DUP2 DUP2 SUB PUSH1 0x60 DUP4 ADD MSTORE PUSH2 0x38C6 DUP2 DUP10 PUSH2 0x2FC8 JUMP JUMPDEST SWAP1 POP PUSH2 0x38D5 PUSH1 0x80 DUP4 ADD DUP9 PUSH2 0x3000 JUMP JUMPDEST PUSH2 0x38E2 PUSH1 0xA0 DUP4 ADD DUP8 PUSH2 0x2F67 JUMP JUMPDEST PUSH2 0x38EF PUSH1 0xC0 DUP4 ADD DUP7 PUSH2 0x3000 JUMP JUMPDEST PUSH2 0x38FC PUSH1 0xE0 DUP4 ADD DUP6 PUSH2 0x301A JUMP JUMPDEST DUP2 DUP2 SUB PUSH2 0x100 DUP4 ADD MSTORE PUSH2 0x390F DUP2 DUP5 PUSH2 0x2FC8 JUMP JUMPDEST SWAP1 POP SWAP11 SWAP10 POP POP POP POP POP POP POP POP POP POP JUMP JUMPDEST PUSH0 PUSH2 0x140 DUP4 ADD PUSH0 DUP4 ADD MLOAD PUSH2 0x3935 PUSH0 DUP7 ADD DUP3 PUSH2 0x34CC JUMP JUMPDEST POP PUSH1 0x20 DUP4 ADD MLOAD DUP5 DUP3 SUB PUSH1 0x20 DUP7 ADD MSTORE PUSH2 0x394D DUP3 DUP3 PUSH2 0x34EB JUMP JUMPDEST SWAP2 POP POP PUSH1 0x40 DUP4 ADD MLOAD DUP5 DUP3 SUB PUSH1 0x40 DUP7 ADD MSTORE PUSH2 0x3967 DUP3 DUP3 PUSH2 0x34EB JUMP JUMPDEST SWAP2 POP POP PUSH1 0x60 DUP4 ADD MLOAD DUP5 DUP3 SUB PUSH1 0x60 DUP7 ADD MSTORE PUSH2 0x3981 DUP3 DUP3 PUSH2 0x356B JUMP JUMPDEST SWAP2 POP POP PUSH1 0x80 DUP4 ADD MLOAD DUP5 DUP3 SUB PUSH1 0x80 DUP7 ADD MSTORE PUSH2 0x399B DUP3 DUP3 PUSH2 0x34EB JUMP JUMPDEST SWAP2 POP POP PUSH1 0xA0 DUP4 ADD MLOAD PUSH2 0x39B0 PUSH1 0xA0 DUP7 ADD DUP3 PUSH2 0x35DE JUMP JUMPDEST POP PUSH1 0xC0 DUP4 ADD MLOAD PUSH2 0x39C3 PUSH1 0xC0 DUP7 ADD DUP3 PUSH2 0x32EB JUMP JUMPDEST POP PUSH1 0xE0 DUP4 ADD MLOAD PUSH2 0x39D6 PUSH1 0xE0 DUP7 ADD DUP3 PUSH2 0x35DE JUMP JUMPDEST POP PUSH2 0x100 DUP4 ADD MLOAD PUSH2 0x39EB PUSH2 0x100 DUP7 ADD DUP3 PUSH2 0x35ED JUMP JUMPDEST POP PUSH2 0x120 DUP4 ADD MLOAD DUP5 DUP3 SUB PUSH2 0x120 DUP7 ADD MSTORE PUSH2 0x3A05 DUP3 DUP3 PUSH2 0x34EB JUMP JUMPDEST SWAP2 POP POP DUP1 SWAP2 POP POP SWAP3 SWAP2 POP POP JUMP JUMPDEST PUSH0 PUSH1 0x20 DUP3 ADD SWAP1 POP DUP2 DUP2 SUB PUSH0 DUP4 ADD MSTORE PUSH2 0x3A2A DUP2 DUP5 PUSH2 0x391F JUMP JUMPDEST SWAP1 POP SWAP3 SWAP2 POP POP JUMP JUMPDEST PUSH0 PUSH1 0xA0 DUP4 ADD PUSH0 DUP4 ADD MLOAD PUSH2 0x3A47 PUSH0 DUP7 ADD DUP3 PUSH2 0x32EB JUMP JUMPDEST POP PUSH1 0x20 DUP4 ADD MLOAD DUP5 DUP3 SUB PUSH1 0x20 DUP7 ADD MSTORE PUSH2 0x3A5F DUP3 DUP3 PUSH2 0x34EB JUMP JUMPDEST SWAP2 POP POP PUSH1 0x40 DUP4 ADD MLOAD DUP5 DUP3 SUB PUSH1 0x40 DUP7 ADD MSTORE PUSH2 0x3A79 DUP3 DUP3 PUSH2 0x34EB JUMP JUMPDEST SWAP2 POP POP PUSH1 0x60 DUP4 ADD MLOAD PUSH2 0x3A8E PUSH1 0x60 DUP7 ADD DUP3 PUSH2 0x35DE JUMP JUMPDEST POP PUSH1 0x80 DUP4 ADD MLOAD PUSH2 0x3AA1 PUSH1 0x80 DUP7 ADD DUP3 PUSH2 0x35ED JUMP JUMPDEST POP DUP1 SWAP2 POP POP SWAP3 SWAP2 POP POP JUMP JUMPDEST PUSH0 PUSH1 0x20 DUP3 ADD SWAP1 POP DUP2 DUP2 SUB PUSH0 DUP4 ADD MSTORE PUSH2 0x3AC4 DUP2 DUP5 PUSH2 0x3A32 JUMP JUMPDEST SWAP1 POP SWAP3 SWAP2 POP POP JUMP JUMPDEST PUSH32 0x4E487B7100000000000000000000000000000000000000000000000000000000 PUSH0 MSTORE PUSH1 0x22 PUSH1 0x4 MSTORE PUSH1 0x24 PUSH0 REVERT JUMPDEST PUSH0 PUSH1 0x2 DUP3 DIV SWAP1 POP PUSH1 0x1 DUP3 AND DUP1 PUSH2 0x3B10 JUMPI PUSH1 0x7F DUP3 AND SWAP2 POP JUMPDEST PUSH1 0x20 DUP3 LT DUP2 SUB PUSH2 0x3B23 JUMPI PUSH2 0x3B22 PUSH2 0x3ACC JUMP JUMPDEST JUMPDEST POP SWAP2 SWAP1 POP JUMP JUMPDEST PUSH32 0x50726F6A65637420646F6573206E6F7420657869737400000000000000000000 PUSH0 DUP3 ADD MSTORE POP JUMP JUMPDEST PUSH0 PUSH2 0x3B5D PUSH1 0x16 DUP4 PUSH2 0x2F80 JUMP JUMPDEST SWAP2 POP PUSH2 0x3B68 DUP3 PUSH2 0x3B29 JUMP JUMPDEST PUSH1 0x20 DUP3 ADD SWAP1 POP SWAP2 SWAP1 POP JUMP JUMPDEST PUSH0 PUSH1 0x20 DUP3 ADD SWAP1 POP DUP2 DUP2 SUB PUSH0 DUP4 ADD MSTORE PUSH2 0x3B8A DUP2 PUSH2 0x3B51 JUMP JUMPDEST SWAP1 POP SWAP2 SWAP1 POP JUMP JUMPDEST PUSH32 0x4E6F742070726F6A6563742063726561746F7200000000000000000000000000 PUSH0 DUP3 ADD MSTORE POP JUMP JUMPDEST PUSH0 PUSH2 0x3BC5 PUSH1 0x13 DUP4 PUSH2 0x2F80 JUMP JUMPDEST SWAP2 POP PUSH2 0x3BD0 DUP3 PUSH2 0x3B91 JUMP JUMPDEST PUSH1 0x20 DUP3 ADD SWAP1 POP SWAP2 SWAP1 POP JUMP JUMPDEST PUSH0 PUSH1 0x20 DUP3 ADD SWAP1 POP DUP2 DUP2 SUB PUSH0 DUP4 ADD MSTORE PUSH2 0x3BF2 DUP2 PUSH2 0x3BB9 JUMP JUMPDEST SWAP1 POP SWAP2 SWAP1 POP JUMP JUMPDEST PUSH32 0x4E6F74206120636F6E7472696275746F72000000000000000000000000000000 PUSH0 DUP3 ADD MSTORE POP JUMP JUMPDEST PUSH0 PUSH2 0x3C2D PUSH1 0x11 DUP4 PUSH2 0x2F80 JUMP JUMPDEST SWAP2 POP PUSH2 0x3C38 DUP3 PUSH2 0x3BF9 JUMP JUMPDEST PUSH1 0x20 DUP3 ADD SWAP1 POP SWAP2 SWAP1 POP JUMP JUMPDEST PUSH0 PUSH1 0x20 DUP3 ADD SWAP1 POP DUP2 DUP2 SUB PUSH0 DUP4 ADD MSTORE PUSH2 0x3C5A DUP2 PUSH2 0x3C21 JUMP JUMPDEST SWAP1 POP SWAP2 SWAP1 POP JUMP JUMPDEST PUSH32 0x43616E6E6F742072656D6F76652063726561746F720000000000000000000000 PUSH0 DUP3 ADD MSTORE POP JUMP JUMPDEST PUSH0 PUSH2 0x3C95 PUSH1 0x15 DUP4 PUSH2 0x2F80 JUMP JUMPDEST SWAP2 POP PUSH2 0x3CA0 DUP3 PUSH2 0x3C61 JUMP JUMPDEST PUSH1 0x20 DUP3 ADD SWAP1 POP SWAP2 SWAP1 POP JUMP JUMPDEST PUSH0 PUSH1 0x20 DUP3 ADD SWAP1 POP DUP2 DUP2 SUB PUSH0 DUP4 ADD MSTORE PUSH2 0x3CC2 DUP2 PUSH2 0x3C89 JUMP JUMPDEST SWAP1 POP SWAP2 SWAP1 POP JUMP JUMPDEST PUSH0 PUSH0 REVERT JUMPDEST PUSH0 PUSH0 REVERT JUMPDEST PUSH0 PUSH0 REVERT JUMPDEST PUSH0 PUSH0 DUP4 CALLDATALOAD PUSH1 0x1 PUSH1 0x20 SUB DUP5 CALLDATASIZE SUB SUB DUP2 SLT PUSH2 0x3CF1 JUMPI PUSH2 0x3CF0 PUSH2 0x3CC9 JUMP JUMPDEST JUMPDEST DUP1 DUP5 ADD SWAP3 POP DUP3 CALLDATALOAD SWAP2 POP PUSH8 0xFFFFFFFFFFFFFFFF DUP3 GT ISZERO PUSH2 0x3D13 JUMPI PUSH2 0x3D12 PUSH2 0x3CCD JUMP JUMPDEST JUMPDEST PUSH1 0x20 DUP4 ADD SWAP3 POP PUSH1 0x1 DUP3 MUL CALLDATASIZE SUB DUP4 SGT ISZERO PUSH2 0x3D2F JUMPI PUSH2 0x3D2E PUSH2 0x3CD1 JUMP JUMPDEST JUMPDEST POP SWAP3 POP SWAP3 SWAP1 POP JUMP JUMPDEST PUSH32 0x5469746C65207265717569726564000000000000000000000000000000000000 PUSH0 DUP3 ADD MSTORE POP JUMP JUMPDEST PUSH0 PUSH2 0x3D6B PUSH1 0xE DUP4 PUSH2 0x2F80 JUMP JUMPDEST SWAP2 POP PUSH2 0x3D76 DUP3 PUSH2 0x3D37 JUMP JUMPDEST PUSH1 0x20 DUP3 ADD SWAP1 POP SWAP2 SWAP1 POP JUMP JUMPDEST PUSH0 PUSH1 0x20 DUP3 ADD SWAP1 POP DUP2 DUP2 SUB PUSH0 DUP4 ADD MSTORE PUSH2 0x3D98 DUP2 PUSH2 0x3D5F JUMP JUMPDEST SWAP1 POP SWAP2 SWAP1 POP JUMP JUMPDEST PUSH32 0x456E6372797074656420626C6F62207265717569726564000000000000000000 PUSH0 DUP3 ADD MSTORE POP JUMP JUMPDEST PUSH0 PUSH2 0x3DD3 PUSH1 0x17 DUP4 PUSH2 0x2F80 JUMP JUMPDEST SWAP2 POP PUSH2 0x3DDE DUP3 PUSH2 0x3D9F JUMP JUMPDEST PUSH1 0x20 DUP3 ADD SWAP1 POP SWAP2 SWAP1 POP JUMP JUMPDEST PUSH0 PUSH1 0x20 DUP3 ADD SWAP1 POP DUP2 DUP2 SUB PUSH0 DUP4 ADD MSTORE PUSH2 0x3E00 DUP2 PUSH2 0x3DC7 JUMP JUMPDEST SWAP1 POP SWAP2 SWAP1 POP JUMP JUMPDEST PUSH32 0x4E6F7420617574686F72697A656420666F7220746869732070726F6A65637400 PUSH0 DUP3 ADD MSTORE POP JUMP JUMPDEST PUSH0 PUSH2 0x3E3B PUSH1 0x1F DUP4 PUSH2 0x2F80 JUMP JUMPDEST SWAP2 POP PUSH2 0x3E46 DUP3 PUSH2 0x3E07 JUMP JUMPDEST PUSH1 0x20 DUP3 ADD SWAP1 POP SWAP2 SWAP1 POP JUMP JUMPDEST PUSH0 PUSH1 0x20 DUP3 ADD SWAP1 POP DUP2 DUP2 SUB PUSH0 DUP4 ADD MSTORE PUSH2 0x3E68 DUP2 PUSH2 0x3E2F JUMP JUMPDEST SWAP1 POP SWAP2 SWAP1 POP JUMP JUMPDEST PUSH0 DUP2 SWAP1 POP SWAP3 SWAP2 POP POP JUMP JUMPDEST DUP3 DUP2 DUP4 CALLDATACOPY PUSH0 DUP4 DUP4 ADD MSTORE POP POP POP JUMP JUMPDEST PUSH0 PUSH2 0x3E92 DUP4 DUP6 PUSH2 0x3E6F JUMP JUMPDEST SWAP4 POP PUSH2 0x3E9F DUP4 DUP6 DUP5 PUSH2 0x3E79 JUMP JUMPDEST DUP3 DUP5 ADD SWAP1 POP SWAP4 SWAP3 POP POP POP JUMP JUMPDEST PUSH0 PUSH2 0x3EB7 DUP3 DUP5 DUP7 PUSH2 0x3E87 JUMP JUMPDEST SWAP2 POP DUP2 SWAP1 POP SWAP4 SWAP3 POP POP POP JUMP JUMPDEST PUSH32 0x4475706C6963617465207375626D697373696F6E000000000000000000000000 PUSH0 DUP3 ADD MSTORE POP JUMP JUMPDEST PUSH0 PUSH2 0x3EF7 PUSH1 0x14 DUP4 PUSH2 0x2F80 JUMP JUMPDEST SWAP2 POP PUSH2 0x3F02 DUP3 PUSH2 0x3EC3 JUMP JUMPDEST PUSH1 0x20 DUP3 ADD SWAP1 POP SWAP2 SWAP1 POP JUMP JUMPDEST PUSH0 PUSH1 0x20 DUP3 ADD SWAP1 POP DUP2 DUP2 SUB PUSH0 DUP4 ADD MSTORE PUSH2 0x3F24 DUP2 PUSH2 0x3EEB JUMP JUMPDEST SWAP1 POP SWAP2 SWAP1 POP JUMP JUMPDEST PUSH0 DUP2 PUSH1 0x60 SHL SWAP1 POP SWAP2 SWAP1 POP JUMP JUMPDEST PUSH0 PUSH2 0x3F41 DUP3 PUSH2 0x3F2B JUMP JUMPDEST SWAP1 POP SWAP2 SWAP1 POP JUMP JUMPDEST PUSH0 PUSH2 0x3F52 DUP3 PUSH2 0x3F37 JUMP JUMPDEST SWAP1 POP SWAP2 SWAP1 POP JUMP JUMPDEST PUSH2 0x3F6A PUSH2 0x3F65 DUP3 PUSH2 0x2F56 JUMP JUMPDEST PUSH2 0x3F48 JUMP JUMPDEST DUP3 MSTORE POP POP JUMP JUMPDEST PUSH0 DUP2 SWAP1 POP SWAP2 SWAP1 POP JUMP JUMPDEST PUSH2 0x3F8A PUSH2 0x3F85 DUP3 PUSH2 0x3160 JUMP JUMPDEST PUSH2 0x3F70 JUMP JUMPDEST DUP3 MSTORE POP POP JUMP JUMPDEST PUSH0 DUP2 SWAP1 POP SWAP2 SWAP1 POP JUMP JUMPDEST PUSH2 0x3FAA PUSH2 0x3FA5 DUP3 PUSH2 0x2ED9 JUMP JUMPDEST PUSH2 0x3F90 JUMP JUMPDEST DUP3 MSTORE POP POP JUMP JUMPDEST PUSH0 PUSH2 0x3FBB DUP3 DUP9 PUSH2 0x3F59 JUMP JUMPDEST PUSH1 0x14 DUP3 ADD SWAP2 POP PUSH2 0x3FCB DUP3 DUP8 PUSH2 0x3F79 JUMP JUMPDEST PUSH1 0x20 DUP3 ADD SWAP2 POP PUSH2 0x3FDB DUP3 DUP7 PUSH2 0x3F99 JUMP JUMPDEST PUSH1 0x20 DUP3 ADD SWAP2 POP PUSH2 0x3FEB DUP3 DUP6 PUSH2 0x3F99 JUMP JUMPDEST PUSH1 0x20 DUP3 ADD SWAP2 POP PUSH2 0x3FFB DUP3 DUP5 PUSH2 0x3F99 JUMP JUMPDEST PUSH1 0x20 DUP3 ADD SWAP2 POP DUP2 SWAP1 POP SWAP7 SWAP6 POP POP POP POP POP POP JUMP JUMPDEST PUSH0 DUP2 SWAP1 POP SWAP3 SWAP2 POP POP JUMP JUMPDEST PUSH32 0x19457468657265756D205369676E6564204D6573736167653A0A333200000000 PUSH0 DUP3 ADD MSTORE POP JUMP JUMPDEST PUSH0 PUSH2 0x404C PUSH1 0x1C DUP4 PUSH2 0x400E JUMP JUMPDEST SWAP2 POP PUSH2 0x4057 DUP3 PUSH2 0x4018 JUMP JUMPDEST PUSH1 0x1C DUP3 ADD SWAP1 POP SWAP2 SWAP1 POP JUMP JUMPDEST PUSH0 PUSH2 0x406C DUP3 PUSH2 0x4040 JUMP JUMPDEST SWAP2 POP PUSH2 0x4078 DUP3 DUP5 PUSH2 0x3F79 JUMP JUMPDEST PUSH1 0x20 DUP3 ADD SWAP2 POP DUP2 SWAP1 POP SWAP3 SWAP2 POP POP JUMP JUMPDEST PUSH32 0x496E76616C6964207369676E6174757265000000000000000000000000000000 PUSH0 DUP3 ADD MSTORE POP JUMP JUMPDEST PUSH0 PUSH2 0x40BB PUSH1 0x11 DUP4 PUSH2 0x2F80 JUMP JUMPDEST SWAP2 POP PUSH2 0x40C6 DUP3 PUSH2 0x4087 JUMP JUMPDEST PUSH1 0x20 DUP3 ADD SWAP1 POP SWAP2 SWAP1 POP JUMP JUMPDEST PUSH0 PUSH1 0x20 DUP3 ADD SWAP1 POP DUP2 DUP2 SUB PUSH0 DUP4 ADD MSTORE PUSH2 0x40E8 DUP2 PUSH2 0x40AF JUMP JUMPDEST SWAP1 POP SWAP2 SWAP1 POP JUMP JUMPDEST PUSH0 PUSH0 DUP4 CALLDATALOAD PUSH1 0x1 PUSH1 0x20 SUB DUP5 CALLDATASIZE SUB SUB DUP2 SLT PUSH2 0x410B JUMPI PUSH2 0x410A PUSH2 0x3CC9 JUMP JUMPDEST JUMPDEST DUP1 DUP5 ADD SWAP3 POP DUP3 CALLDATALOAD SWAP2 POP PUSH8 0xFFFFFFFFFFFFFFFF DUP3 GT ISZERO PUSH2 0x412D JUMPI PUSH2 0x412C PUSH2 0x3CCD JUMP JUMPDEST JUMPDEST PUSH1 0x20 DUP4 ADD SWAP3 POP PUSH1 0x20 DUP3 MUL CALLDATASIZE SUB DUP4 SGT ISZERO PUSH2 0x4149 JUMPI PUSH2 0x4148 PUSH2 0x3CD1 JUMP JUMPDEST JUMPDEST POP SWAP3 POP SWAP3 SWAP1 POP JUMP JUMPDEST PUSH32 0x4E487B7100000000000000000000000000000000000000000000000000000000 PUSH0 MSTORE PUSH1 0x41 PUSH1 0x4 MSTORE PUSH1 0x24 PUSH0 REVERT JUMPDEST PUSH2 0x4187 DUP3 PUSH2 0x2FB8 JUMP JUMPDEST DUP2 ADD DUP2 DUP2 LT PUSH8 0xFFFFFFFFFFFFFFFF DUP3 GT OR ISZERO PUSH2 0x41A6 JUMPI PUSH2 0x41A5 PUSH2 0x4151 JUMP JUMPDEST JUMPDEST DUP1 PUSH1 0x40 MSTORE POP POP POP JUMP JUMPDEST PUSH0 PUSH2 0x41B8 PUSH2 0x2EC8 JUMP JUMPDEST SWAP1 POP PUSH2 0x41C4 DUP3 DUP3 PUSH2 0x417E JUMP JUMPDEST SWAP2 SWAP1 POP JUMP JUMPDEST PUSH0 PUSH8 0xFFFFFFFFFFFFFFFF DUP3 GT ISZERO PUSH2 0x41E3 JUMPI PUSH2 0x41E2 PUSH2 0x4151 JUMP JUMPDEST JUMPDEST PUSH1 0x20 DUP3 MUL SWAP1 POP PUSH1 0x20 DUP2 ADD SWAP1 POP SWAP2 SWAP1 POP JUMP JUMPDEST PUSH0 PUSH0 REVERT JUMPDEST PUSH0 PUSH8 0xFFFFFFFFFFFFFFFF DUP3 GT ISZERO PUSH2 0x4212 JUMPI PUSH2 0x4211 PUSH2 0x4151 JUMP JUMPDEST JUMPDEST PUSH2 0x421B DUP3 PUSH2 0x2FB8 JUMP JUMPDEST SWAP1 POP PUSH1 0x20 DUP2 ADD SWAP1 POP SWAP2 SWAP1 POP JUMP JUMPDEST PUSH0 PUSH2 0x423A PUSH2 0x4235 DUP5 PUSH2 0x41F8 JUMP JUMPDEST PUSH2 0x41AF JUMP JUMPDEST SWAP1 POP DUP3 DUP2 MSTORE PUSH1 0x20 DUP2 ADD DUP5 DUP5 DUP5 ADD GT ISZERO PUSH2 0x4256 JUMPI PUSH2 0x4255 PUSH2 0x41F4 JUMP JUMPDEST JUMPDEST PUSH2 0x4261 DUP5 DUP3 DUP6 PUSH2 0x3E79 JUMP JUMPDEST POP SWAP4 SWAP3 POP POP POP JUMP JUMPDEST PUSH0 DUP3 PUSH1 0x1F DUP4 ADD SLT PUSH2 0x427D JUMPI PUSH2 0x427C PUSH2 0x3399 JUMP JUMPDEST JUMPDEST DUP2 CALLDATALOAD PUSH2 0x428D DUP5 DUP3 PUSH1 0x20 DUP7 ADD PUSH2 0x4228 JUMP JUMPDEST SWAP2 POP POP SWAP3 SWAP2 POP POP JUMP JUMPDEST PUSH0 PUSH2 0x42A8 PUSH2 0x42A3 DUP5 PUSH2 0x41C9 JUMP JUMPDEST PUSH2 0x41AF JUMP JUMPDEST SWAP1 POP DUP1 DUP4 DUP3 MSTORE PUSH1 0x20 DUP3 ADD SWAP1 POP PUSH1 0x20 DUP5 MUL DUP4 ADD DUP6 DUP2 GT ISZERO PUSH2 0x42CB JUMPI PUSH2 0x42CA PUSH2 0x33A1 JUMP JUMPDEST JUMPDEST DUP4 JUMPDEST DUP2 DUP2 LT ISZERO PUSH2 0x4312 JUMPI DUP1 CALLDATALOAD PUSH8 0xFFFFFFFFFFFFFFFF DUP2 GT ISZERO PUSH2 0x42F0 JUMPI PUSH2 0x42EF PUSH2 0x3399 JUMP JUMPDEST JUMPDEST DUP1 DUP7 ADD PUSH2 0x42FD DUP10 DUP3 PUSH2 0x4269 JUMP JUMPDEST DUP6 MSTORE PUSH1 0x20 DUP6 ADD SWAP5 POP POP POP PUSH1 0x20 DUP2 ADD SWAP1 POP PUSH2 0x42CD JUMP JUMPDEST POP POP POP SWAP4 SWAP3 POP POP POP JUMP JUMPDEST PUSH0 PUSH2 0x4328 CALLDATASIZE DUP5 DUP5 PUSH2 0x4296 JUMP JUMPDEST SWAP1 POP SWAP3 SWAP2 POP POP JUMP JUMPDEST PUSH2 0x4339 DUP2 PUSH2 0x300F JUMP JUMPDEST DUP2 EQ PUSH2 0x4343 JUMPI PUSH0 PUSH0 REVERT JUMPDEST POP JUMP JUMPDEST PUSH0 DUP2 CALLDATALOAD SWAP1 POP PUSH2 0x4354 DUP2 PUSH2 0x4330 JUMP JUMPDEST SWAP3 SWAP2 POP POP JUMP JUMPDEST PUSH0 PUSH1 0x20 DUP3 DUP5 SUB SLT ISZERO PUSH2 0x436F JUMPI PUSH2 0x436E PUSH2 0x2ED1 JUMP JUMPDEST JUMPDEST PUSH0 PUSH2 0x437C DUP5 DUP3 DUP6 ADD PUSH2 0x4346 JUMP JUMPDEST SWAP2 POP POP SWAP3 SWAP2 POP POP JUMP JUMPDEST PUSH0 DUP2 SWAP1 POP DUP2 PUSH0 MSTORE PUSH1 0x20 PUSH0 KECCAK256 SWAP1 POP SWAP2 SWAP1 POP JUMP JUMPDEST PUSH0 PUSH1 0x20 PUSH1 0x1F DUP4 ADD DIV SWAP1 POP SWAP2 SWAP1 POP JUMP JUMPDEST PUSH0 DUP3 DUP3 SHL SWAP1 POP SWAP3 SWAP2 POP POP JUMP JUMPDEST PUSH0 PUSH1 0x8 DUP4 MUL PUSH2 0x43E1 PUSH32 0xFFFFFFFFFFFFFFFFFFFFFFFFFFFFFFFFFFFFFFFFFFFFFFFFFFFFFFFFFFFFFFFF DUP3 PUSH2 0x43A6 JUMP JUMPDEST PUSH2 0x43EB DUP7 DUP4 PUSH2 0x43A6 JUMP JUMPDEST SWAP6 POP DUP1 NOT DUP5 AND SWAP4 POP DUP1 DUP7 AND DUP5 OR SWAP3 POP POP POP SWAP4 SWAP3 POP POP POP JUMP JUMPDEST PUSH0 DUP2 SWAP1 POP SWAP2 SWAP1 POP JUMP JUMPDEST PUSH0 PUSH2 0x4426 PUSH2 0x4421 PUSH2 0x441C DUP5 PUSH2 0x2ED9 JUMP JUMPDEST PUSH2 0x4403 JUMP JUMPDEST PUSH2 0x2ED9 JUMP JUMPDEST SWAP1 POP SWAP2 SWAP1 POP JUMP JUMPDEST PUSH0 DUP2 SWAP1 POP SWAP2 SWAP1 POP JUMP JUMPDEST PUSH2 0x443F DUP4 PUSH2 0x440C JUMP JUMPDEST PUSH2 0x4453 PUSH2 0x444B DUP3 PUSH2 0x442D JUMP JUMPDEST DUP5 DUP5 SLOAD PUSH2 0x43B2 JUMP JUMPDEST DUP3 SSTORE POP POP POP POP JUMP JUMPDEST PUSH0 PUSH0 SWAP1 POP SWAP1 JUMP JUMPDEST PUSH2 0x446A PUSH2 0x445B JUMP JUMPDEST PUSH2 0x4475 DUP2 DUP5 DUP5 PUSH2 0x4436 JUMP JUMPDEST POP POP POP JUMP JUMPDEST JUMPDEST DUP2 DUP2 LT ISZERO PUSH2 0x4498 JUMPI PUSH2 0x448D PUSH0 DUP3 PUSH2 0x4462 JUMP JUMPDEST PUSH1 0x1 DUP2 ADD SWAP1 POP PUSH2 0x447B JUMP JUMPDEST POP POP JUMP JUMPDEST PUSH1 0x1F DUP3 GT ISZERO PUSH2 0x44DD JUMPI PUSH2 0x44AE DUP2 PUSH2 0x4385 JUMP JUMPDEST PUSH2 0x44B7 DUP5 PUSH2 0x4397 JUMP JUMPDEST DUP2 ADD PUSH1 0x20 DUP6 LT ISZERO PUSH2 0x44C6 JUMPI DUP2 SWAP1 POP JUMPDEST PUSH2 0x44DA PUSH2 0x44D2 DUP6 PUSH2 0x4397 JUMP JUMPDEST DUP4 ADD DUP3 PUSH2 0x447A JUMP JUMPDEST POP POP JUMPDEST POP POP POP JUMP JUMPDEST PUSH0 DUP3 DUP3 SHR SWAP1 POP SWAP3 SWAP2 POP POP JUMP JUMPDEST PUSH0 PUSH2 0x44FD PUSH0 NOT DUP5 PUSH1 0x8 MUL PUSH2 0x44E2 JUMP JUMPDEST NOT DUP1 DUP4 AND SWAP2 POP POP SWAP3 SWAP2 POP POP JUMP JUMPDEST PUSH0 PUSH2 0x4515 DUP4 DUP4 PUSH2 0x44EE JUMP JUMPDEST SWAP2 POP DUP3 PUSH1 0x2 MUL DUP3 OR SWAP1 POP SWAP3 SWAP2 POP POP JUMP JUMPDEST PUSH2 0x452E DUP3 PUSH2 0x2F76 JUMP JUMPDEST PUSH8 0xFFFFFFFFFFFFFFFF DUP2 GT ISZERO PUSH2 0x4547 JUMPI PUSH2 0x4546 PUSH2 0x4151 JUMP JUMPDEST JUMPDEST PUSH2 0x4551 DUP3 SLOAD PUSH2 0x3AF9 JUMP JUMPDEST PUSH2 0x455C DUP3 DUP3 DUP6 PUSH2 0x449C JUMP JUMPDEST PUSH0 PUSH1 0x20 SWAP1 POP PUSH1 0x1F DUP4 GT PUSH1 0x1 DUP2 EQ PUSH2 0x458D JUMPI PUSH0 DUP5 ISZERO PUSH2 0x457B JUMPI DUP3 DUP8 ADD MLOAD SWAP1 POP JUMPDEST PUSH2 0x4585 DUP6 DUP3 PUSH2 0x450A JUMP JUMPDEST DUP7 SSTORE POP PUSH2 0x45EC JUMP JUMPDEST PUSH1 0x1F NOT DUP5 AND PUSH2 0x459B DUP7 PUSH2 0x4385 JUMP JUMPDEST PUSH0 JUMPDEST DUP3 DUP2 LT ISZERO PUSH2 0x45C2 JUMPI DUP5 DUP10 ADD MLOAD DUP3 SSTORE PUSH1 0x1 DUP3 ADD SWAP2 POP PUSH1 0x20 DUP6 ADD SWAP5 POP PUSH1 0x20 DUP2 ADD SWAP1 POP PUSH2 0x459D JUMP JUMPDEST DUP7 DUP4 LT ISZERO PUSH2 0x45DF JUMPI DUP5 DUP10 ADD MLOAD PUSH2 0x45DB PUSH1 0x1F DUP10 AND DUP3 PUSH2 0x44EE JUMP JUMPDEST DUP4 SSTORE POP JUMPDEST PUSH1 0x1 PUSH1 0x2 DUP9 MUL ADD DUP9 SSTORE POP POP POP JUMPDEST POP POP POP POP POP POP JUMP JUMPDEST PUSH0 PUSH2 0x45FF DUP4 DUP6 PUSH2 0x2F80 JUMP JUMPDEST SWAP4 POP PUSH2 0x460C DUP4 DUP6 DUP5 PUSH2 0x3E79 JUMP JUMPDEST PUSH2 0x4615 DUP4 PUSH2 0x2FB8 JUMP JUMPDEST DUP5 ADD SWAP1 POP SWAP4 SWAP3 POP POP POP JUMP JUMPDEST PUSH0 PUSH1 0x60 DUP3 ADD SWAP1 POP PUSH2 0x4633 PUSH0 DUP4 ADD DUP9 PUSH2 0x2F67 JUMP JUMPDEST DUP2 DUP2 SUB PUSH1 0x20 DUP4 ADD MSTORE PUSH2 0x4646 DUP2 DUP7 DUP9 PUSH2 0x45F4 JUMP JUMPDEST SWAP1 POP DUP2 DUP2 SUB PUSH1 0x40 DUP4 ADD MSTORE PUSH2 0x465B DUP2 DUP5 DUP7 PUSH2 0x45F4 JUMP JUMPDEST SWAP1 POP SWAP7 SWAP6 POP POP POP POP POP POP JUMP JUMPDEST PUSH32 0x4E487B7100000000000000000000000000000000000000000000000000000000 PUSH0 MSTORE PUSH1 0x11 PUSH1 0x4 MSTORE PUSH1 0x24 PUSH0 REVERT JUMPDEST PUSH0 PUSH2 0x469E DUP3 PUSH2 0x2ED9 JUMP JUMPDEST SWAP2 POP PUSH32 0xFFFFFFFFFFFFFFFFFFFFFFFFFFFFFFFFFFFFFFFFFFFFFFFFFFFFFFFFFFFFFFFF DUP3 SUB PUSH2 0x46D0 JUMPI PUSH2 0x46CF PUSH2 0x4667 JUMP JUMPDEST JUMPDEST PUSH1 0x1 DUP3 ADD SWAP1 POP SWAP2 SWAP1 POP JUMP JUMPDEST PUSH0 PUSH1 0x20 DUP3 ADD SWAP1 POP DUP2 DUP2 SUB PUSH0 DUP4 ADD MSTORE PUSH2 0x46F4 DUP2 DUP5 DUP7 PUSH2 0x45F4 JUMP JUMPDEST SWAP1 POP SWAP4 SWAP3 POP POP POP JUMP JUMPDEST PUSH32 0x4E6F742061646D696E0000000000000000000000000000000000000000000000 PUSH0 DUP3 ADD MSTORE POP JUMP JUMPDEST PUSH0 PUSH2 0x4731 PUSH1 0x9 DUP4 PUSH2 0x2F80 JUMP JUMPDEST SWAP2 POP PUSH2 0x473C DUP3 PUSH2 0x46FD JUMP JUMPDEST PUSH1 0x20 DUP3 ADD SWAP1 POP SWAP2 SWAP1 POP JUMP JUMPDEST PUSH0 PUSH1 0x20 DUP3 ADD SWAP1 POP DUP2 DUP2 SUB PUSH0 DUP4 ADD MSTORE PUSH2 0x475E DUP2 PUSH2 0x4725 JUMP JUMPDEST SWAP1 POP SWAP2 SWAP1 POP JUMP JUMPDEST PUSH32 0x5374617274206F7574206F6620626F756E647300000000000000000000000000 PUSH0 DUP3 ADD MSTORE POP JUMP JUMPDEST PUSH0 PUSH2 0x4799 PUSH1 0x13 DUP4 PUSH2 0x2F80 JUMP JUMPDEST SWAP2 POP PUSH2 0x47A4 DUP3 PUSH2 0x4765 JUMP JUMPDEST PUSH1 0x20 DUP3 ADD SWAP1 POP SWAP2 SWAP1 POP JUMP JUMPDEST PUSH0 PUSH1 0x20 DUP3 ADD SWAP1 POP DUP2 DUP2 SUB PUSH0 DUP4 ADD MSTORE PUSH2 0x47C6 DUP2 PUSH2 0x478D JUMP JUMPDEST SWAP1 POP SWAP2 SWAP1 POP JUMP JUMPDEST PUSH0 PUSH2 0x47D7 DUP3 PUSH2 0x2ED9 JUMP JUMPDEST SWAP2 POP PUSH2 0x47E2 DUP4 PUSH2 0x2ED9 JUMP JUMPDEST SWAP3 POP DUP3 DUP3 ADD SWAP1 POP DUP1 DUP3 GT ISZERO PUSH2 0x47FA JUMPI PUSH2 0x47F9 PUSH2 0x4667 JUMP JUMPDEST JUMPDEST SWAP3 SWAP2 POP POP JUMP JUMPDEST PUSH0 PUSH2 0x480A DUP3 PUSH2 0x2ED9 JUMP JUMPDEST SWAP2 POP PUSH2 0x4815 DUP4 PUSH2 0x2ED9 JUMP JUMPDEST SWAP3 POP DUP3 DUP3 SUB SWAP1 POP DUP2 DUP2 GT ISZERO PUSH2 0x482D JUMPI PUSH2 0x482C PUSH2 0x4667 JUMP JUMPDEST JUMPDEST SWAP3 SWAP2 POP POP JUMP JUMPDEST PUSH32 0x4E487B7100000000000000000000000000000000000000000000000000000000 PUSH0 MSTORE PUSH1 0x32 PUSH1 0x4 MSTORE PUSH1 0x24 PUSH0 REVERT JUMPDEST PUSH32 0x5A65726F20616464726573730000000000000000000000000000000000000000 PUSH0 DUP3 ADD MSTORE POP JUMP JUMPDEST PUSH0 PUSH2 0x4894 PUSH1 0xC DUP4 PUSH2 0x2F80 JUMP JUMPDEST SWAP2 POP PUSH2 0x489F DUP3 PUSH2 0x4860 JUMP JUMPDEST PUSH1 0x20 DUP3 ADD SWAP1 POP SWAP2 SWAP1 POP JUMP JUMPDEST PUSH0 PUSH1 0x20 DUP3 ADD SWAP1 POP DUP2 DUP2 SUB PUSH0 DUP4 ADD MSTORE PUSH2 0x48C1 DUP2 PUSH2 0x4888 JUMP JUMPDEST SWAP1 POP SWAP2 SWAP1 POP JUMP JUMPDEST PUSH32 0x416C726561647920636F6E7472696275746F7200000000000000000000000000 PUSH0 DUP3 ADD MSTORE POP JUMP JUMPDEST PUSH0 PUSH2 0x48FC PUSH1 0x13 DUP4 PUSH2 0x2F80 JUMP JUMPDEST SWAP2 POP PUSH2 0x4907 DUP3 PUSH2 0x48C8 JUMP JUMPDEST PUSH1 0x20 DUP3 ADD SWAP1 POP SWAP2 SWAP1 POP JUMP JUMPDEST PUSH0 PUSH1 0x20 DUP3 ADD SWAP1 POP DUP2 DUP2 SUB PUSH0 DUP4 ADD MSTORE PUSH2 0x4929 DUP2 PUSH2 0x48F0 JUMP JUMPDEST SWAP1 POP SWAP2 SWAP1 POP JUMP JUMPDEST PUSH32 0x496E76616C696420656E74727900000000000000000000000000000000000000 PUSH0 DUP3 ADD MSTORE POP JUMP JUMPDEST PUSH0 PUSH2 0x4964 PUSH1 0xD DUP4 PUSH2 0x2F80 JUMP JUMPDEST SWAP2 POP PUSH2 0x496F DUP3 PUSH2 0x4930 JUMP JUMPDEST PUSH1 0x20 DUP3 ADD SWAP1 POP SWAP2 SWAP1 POP JUMP JUMPDEST PUSH0 PUSH1 0x20 DUP3 ADD SWAP1 POP DUP2 DUP2 SUB PUSH0 DUP4 ADD MSTORE PUSH2 0x4991 DUP2 PUSH2 0x4958 JUMP JUMPDEST SWAP1 POP SWAP2 SWAP1 POP JUMP JUMPDEST PUSH32 0x4E6F74206D6F64657261746F7200000000000000000000000000000000000000 PUSH0 DUP3 ADD MSTORE POP JUMP JUMPDEST PUSH0 PUSH2 0x49CC PUSH1 0xD DUP4 PUSH2 0x2F80 JUMP JUMPDEST SWAP2 POP PUSH2 0x49D7 DUP3 PUSH2 0x4998 JUMP JUMPDEST PUSH1 0x20 DUP3 ADD SWAP1 POP SWAP2 SWAP1 POP JUMP JUMPDEST PUSH0 PUSH1 0x20 DUP3 ADD SWAP1 POP DUP2 DUP2 SUB PUSH0 DUP4 ADD MSTORE PUSH2 0x49F9 DUP2 PUSH2 0x49C0 JUMP JUMPDEST SWAP1 POP SWAP2 SWAP1 POP JUMP JUMPDEST PUSH0 PUSH1 0x20 DUP3 ADD SWAP1 POP PUSH2 0x4A13 PUSH0 DUP4 ADD DUP5 PUSH2 0x3869 JUMP JUMPDEST SWAP3 SWAP2 POP POP JUMP JUMPDEST PUSH2 0x4A22 DUP2 PUSH2 0x31F9 JUMP JUMPDEST DUP3 MSTORE POP POP JUMP JUMPDEST PUSH0 PUSH1 0x80 DUP3 ADD SWAP1 POP PUSH2 0x4A3B PUSH0 DUP4 ADD DUP8 PUSH2 0x3869 JUMP JUMPDEST PUSH2 0x4A48 PUSH1 0x20 DUP4 ADD DUP7 PUSH2 0x4A19 JUMP JUMPDEST PUSH2 0x4A55 PUSH1 0x40 DUP4 ADD DUP6 PUSH2 0x3869 JUMP JUMPDEST PUSH2 0x4A62 PUSH1 0x60 DUP4 ADD DUP5 PUSH2 0x3869 JUMP JUMPDEST SWAP6 SWAP5 POP POP POP POP POP JUMP JUMPDEST PUSH32 0x4E487B7100000000000000000000000000000000000000000000000000000000 PUSH0 MSTORE PUSH1 0x21 PUSH1 0x4 MSTORE PUSH1 0x24 PUSH0 REVERT INVALID LOG2 PUSH5 0x6970667358 0x22 SLT KECCAK256 PUSH4 0x5A39E1BD 0xC4 SWAP2 SWAP4 LOG3 MUL NOT JUMP RETURN BLOCKHASH LOG3 SHL 0xBC LT 0xD6 0x25 RJUMP 0x2088 RETURNCONTRACT 0xC7 MUL 0xAF CALLVALUE KECCAK256 ADDRESS DELEGATECALL DUP14 PUSH5 0x736F6C6343 STOP ADDMOD 0x1F STOP CALLER "
		},
		"gasEstimates": {
			"creation": {
				"codeDepositCost": "3830000",
				"executionCost": "infinite",
				"totalCost": "infinite"
			},
			"external": {
				"ADMIN()": "infinite",
				"DATA_SIGNER()": "infinite",
				"addContributor(uint256,address)": "82149",
				"addModerator(address)": "infinite",
				"createProject(string,string)": "infinite",
				"entries(uint256)": "infinite",
				"getContributors(uint256)": "infinite",
				"getEntriesByProject(uint256)": "infinite",
				"getEntriesRange(uint256,uint256)": "infinite",
				"getEntry(uint256)": "infinite",
				"getProject(uint256)": "infinite",
				"getTotalEntries()": "2486",
				"isContributor(uint256,address)": "3161",
				"isModerator(address)": "2964",
				"nextProjectId()": "2513",
				"projectContributorList(uint256,uint256)": "infinite",
				"projectContributors(uint256,address)": "3138",
				"projectToEntryIds(uint256,uint256)": "infinite",
				"projects(uint256)": "infinite",
				"removeContributor(uint256,address)": "35666",
				"removeModerator(address)": "infinite",
				"revokeEntry(uint256)": "infinite",
				"seenSubmissionHashes(bytes32)": "2897",
				"submitData((string,string,string,string[],string,uint256,bool),uint256,uint8,bytes32,bytes32)": "infinite"
			}
		},
		"methodIdentifiers": {
			"ADMIN()": "2a0acc6a",
			"DATA_SIGNER()": "cc001879",
			"addContributor(uint256,address)": "af3595ba",
			"addModerator(address)": "b532e4cb",
			"createProject(string,string)": "6bd06204",
			"entries(uint256)": "b30906d4",
			"getContributors(uint256)": "3c1ab00f",
			"getEntriesByProject(uint256)": "af9344b8",
			"getEntriesRange(uint256,uint256)": "8719d5a7",
			"getEntry(uint256)": "bae78d7b",
			"getProject(uint256)": "f0f3f2c8",
			"getTotalEntries()": "12d491c9",
			"isContributor(uint256,address)": "9eda7d23",
			"isModerator(address)": "fa6f3936",
			"nextProjectId()": "e935b7b1",
			"projectContributorList(uint256,uint256)": "83100ed2",
			"projectContributors(uint256,address)": "21efac4c",
			"projectToEntryIds(uint256,uint256)": "21f99abd",
			"projects(uint256)": "107046bd",
			"removeContributor(uint256,address)": "305a9678",
			"removeModerator(address)": "869d785f",
			"revokeEntry(uint256)": "c322f810",
			"seenSubmissionHashes(bytes32)": "241dd7e9",
			"submitData((string,string,string,string[],string,uint256,bool),uint256,uint8,bytes32,bytes32)": "3aadc853"
		}
	},
	"abi": [
		{
			"inputs": [
				{
					"internalType": "address",
					"name": "dataSigner",
					"type": "address"
				}
			],
			"stateMutability": "nonpayable",
			"type": "constructor"
		},
		{
			"inputs": [],
			"name": "ECDSAInvalidSignature",
			"type": "error"
		},
		{
			"inputs": [
				{
					"internalType": "uint256",
					"name": "length",
					"type": "uint256"
				}
			],
			"name": "ECDSAInvalidSignatureLength",
			"type": "error"
		},
		{
			"inputs": [
				{
					"internalType": "bytes32",
					"name": "s",
					"type": "bytes32"
				}
			],
			"name": "ECDSAInvalidSignatureS",
			"type": "error"
		},
		{
			"anonymous": false,
			"inputs": [
				{
					"indexed": true,
					"internalType": "uint256",
					"name": "projectId",
					"type": "uint256"
				},
				{
					"indexed": true,
					"internalType": "address",
					"name": "contributor",
					"type": "address"
				}
			],
			"name": "ContributorAdded",
			"type": "event"
		},
		{
			"anonymous": false,
			"inputs": [
				{
					"indexed": true,
					"internalType": "uint256",
					"name": "projectId",
					"type": "uint256"
				},
				{
					"indexed": true,
					"internalType": "address",
					"name": "contributor",
					"type": "address"
				}
			],
			"name": "ContributorRemoved",
			"type": "event"
		},
		{
			"anonymous": false,
			"inputs": [
				{
					"indexed": true,
					"internalType": "uint256",
					"name": "entryId",
					"type": "uint256"
				},
				{
					"indexed": true,
					"internalType": "bytes32",
					"name": "submissionHash",
					"type": "bytes32"
				},
				{
					"indexed": true,
					"internalType": "uint256",
					"name": "projectId",
					"type": "uint256"
				},
				{
					"indexed": false,
					"internalType": "address",
					"name": "researcher",
					"type": "address"
				},
				{
					"indexed": false,
					"internalType": "string",
					"name": "cid",
					"type": "string"
				},
				{
					"indexed": false,
					"internalType": "string",
					"name": "title",
					"type": "string"
				}
			],
			"name": "DataSubmitted",
			"type": "event"
		},
		{
			"anonymous": false,
			"inputs": [
				{
					"indexed": true,
					"internalType": "uint256",
					"name": "entryId",
					"type": "uint256"
				},
				{
					"indexed": false,
					"internalType": "bytes32",
					"name": "submissionHash",
					"type": "bytes32"
				}
			],
			"name": "EntryRevoked",
			"type": "event"
		},
		{
			"anonymous": false,
			"inputs": [
				{
					"indexed": false,
					"internalType": "address",
					"name": "moderator",
					"type": "address"
				}
			],
			"name": "ModeratorAdded",
			"type": "event"
		},
		{
			"anonymous": false,
			"inputs": [
				{
					"indexed": false,
					"internalType": "address",
					"name": "moderator",
					"type": "address"
				}
			],
			"name": "ModeratorRemoved",
			"type": "event"
		},
		{
			"anonymous": false,
			"inputs": [
				{
					"indexed": true,
					"internalType": "uint256",
					"name": "projectId",
					"type": "uint256"
				},
				{
					"indexed": true,
					"internalType": "address",
					"name": "creator",
					"type": "address"
				},
				{
					"indexed": false,
					"internalType": "string",
					"name": "title",
					"type": "string"
				}
			],
			"name": "ProjectCreated",
			"type": "event"
		},
		{
			"inputs": [],
			"name": "ADMIN",
			"outputs": [
				{
					"internalType": "address",
					"name": "",
					"type": "address"
				}
			],
			"stateMutability": "view",
			"type": "function"
		},
		{
			"inputs": [],
			"name": "DATA_SIGNER",
			"outputs": [
				{
					"internalType": "address",
					"name": "",
					"type": "address"
				}
			],
			"stateMutability": "view",
			"type": "function"
		},
		{
			"inputs": [
				{
					"internalType": "uint256",
					"name": "projectId",
					"type": "uint256"
				},
				{
					"internalType": "address",
					"name": "contributor",
					"type": "address"
				}
			],
			"name": "addContributor",
			"outputs": [],
			"stateMutability": "nonpayable",
			"type": "function"
		},
		{
			"inputs": [
				{
					"internalType": "address",
					"name": "mod",
					"type": "address"
				}
			],
			"name": "addModerator",
			"outputs": [],
			"stateMutability": "nonpayable",
			"type": "function"
		},
		{
			"inputs": [
				{
					"internalType": "string",
					"name": "title",
					"type": "string"
				},
				{
					"internalType": "string",
					"name": "description",
					"type": "string"
				}
			],
			"name": "createProject",
			"outputs": [
				{
					"internalType": "uint256",
					"name": "projectId",
					"type": "uint256"
				}
			],
			"stateMutability": "nonpayable",
			"type": "function"
		},
		{
			"inputs": [
				{
					"internalType": "uint256",
					"name": "",
					"type": "uint256"
				}
			],
			"name": "entries",
			"outputs": [
				{
					"internalType": "bytes32",
					"name": "submissionHash",
					"type": "bytes32"
				},
				{
					"internalType": "string",
					"name": "cid",
					"type": "string"
				},
				{
					"internalType": "string",
					"name": "title",
					"type": "string"
				},
				{
					"internalType": "string",
					"name": "doi",
					"type": "string"
				},
				{
					"internalType": "uint256",
					"name": "projectId",
					"type": "uint256"
				},
				{
					"internalType": "address",
					"name": "researcher",
					"type": "address"
				},
				{
					"internalType": "uint256",
					"name": "submissionTimestamp",
					"type": "uint256"
				},
				{
					"internalType": "bool",
					"name": "isPublic",
					"type": "bool"
				},
				{
					"internalType": "string",
					"name": "encryptedBlob",
					"type": "string"
				}
			],
			"stateMutability": "view",
			"type": "function"
		},
		{
			"inputs": [
				{
					"internalType": "uint256",
					"name": "projectId",
					"type": "uint256"
				}
			],
			"name": "getContributors",
			"outputs": [
				{
					"internalType": "address[]",
					"name": "",
					"type": "address[]"
				}
			],
			"stateMutability": "view",
			"type": "function"
		},
		{
			"inputs": [
				{
					"internalType": "uint256",
					"name": "projectId",
					"type": "uint256"
				}
			],
			"name": "getEntriesByProject",
			"outputs": [
				{
					"internalType": "uint256[]",
					"name": "",
					"type": "uint256[]"
				}
			],
			"stateMutability": "view",
			"type": "function"
		},
		{
			"inputs": [
				{
					"internalType": "uint256",
					"name": "start",
					"type": "uint256"
				},
				{
					"internalType": "uint256",
					"name": "count",
					"type": "uint256"
				}
			],
			"name": "getEntriesRange",
			"outputs": [
				{
					"components": [
						{
							"internalType": "bytes32",
							"name": "submissionHash",
							"type": "bytes32"
						},
						{
							"internalType": "string",
							"name": "cid",
							"type": "string"
						},
						{
							"internalType": "string",
							"name": "title",
							"type": "string"
						},
						{
							"internalType": "string[]",
							"name": "tags",
							"type": "string[]"
						},
						{
							"internalType": "string",
							"name": "doi",
							"type": "string"
						},
						{
							"internalType": "uint256",
							"name": "projectId",
							"type": "uint256"
						},
						{
							"internalType": "address",
							"name": "researcher",
							"type": "address"
						},
						{
							"internalType": "uint256",
							"name": "submissionTimestamp",
							"type": "uint256"
						},
						{
							"internalType": "bool",
							"name": "isPublic",
							"type": "bool"
						},
						{
							"internalType": "string",
							"name": "encryptedBlob",
							"type": "string"
						}
					],
					"internalType": "struct QshieldDescivault.DataEntry[]",
					"name": "",
					"type": "tuple[]"
				}
			],
			"stateMutability": "view",
			"type": "function"
		},
		{
			"inputs": [
				{
					"internalType": "uint256",
					"name": "entryId",
					"type": "uint256"
				}
			],
			"name": "getEntry",
			"outputs": [
				{
					"components": [
						{
							"internalType": "bytes32",
							"name": "submissionHash",
							"type": "bytes32"
						},
						{
							"internalType": "string",
							"name": "cid",
							"type": "string"
						},
						{
							"internalType": "string",
							"name": "title",
							"type": "string"
						},
						{
							"internalType": "string[]",
							"name": "tags",
							"type": "string[]"
						},
						{
							"internalType": "string",
							"name": "doi",
							"type": "string"
						},
						{
							"internalType": "uint256",
							"name": "projectId",
							"type": "uint256"
						},
						{
							"internalType": "address",
							"name": "researcher",
							"type": "address"
						},
						{
							"internalType": "uint256",
							"name": "submissionTimestamp",
							"type": "uint256"
						},
						{
							"internalType": "bool",
							"name": "isPublic",
							"type": "bool"
						},
						{
							"internalType": "string",
							"name": "encryptedBlob",
							"type": "string"
						}
					],
					"internalType": "struct QshieldDescivault.DataEntry",
					"name": "",
					"type": "tuple"
				}
			],
			"stateMutability": "view",
			"type": "function"
		},
		{
			"inputs": [
				{
					"internalType": "uint256",
					"name": "projectId",
					"type": "uint256"
				}
			],
			"name": "getProject",
			"outputs": [
				{
					"components": [
						{
							"internalType": "address",
							"name": "creator",
							"type": "address"
						},
						{
							"internalType": "string",
							"name": "title",
							"type": "string"
						},
						{
							"internalType": "string",
							"name": "description",
							"type": "string"
						},
						{
							"internalType": "uint256",
							"name": "createdAt",
							"type": "uint256"
						},
						{
							"internalType": "bool",
							"name": "exists",
							"type": "bool"
						}
					],
					"internalType": "struct QshieldDescivault.Project",
					"name": "",
					"type": "tuple"
				}
			],
			"stateMutability": "view",
			"type": "function"
		},
		{
			"inputs": [],
			"name": "getTotalEntries",
			"outputs": [
				{
					"internalType": "uint256",
					"name": "",
					"type": "uint256"
				}
			],
			"stateMutability": "view",
			"type": "function"
		},
		{
			"inputs": [
				{
					"internalType": "uint256",
					"name": "projectId",
					"type": "uint256"
				},
				{
					"internalType": "address",
					"name": "user",
					"type": "address"
				}
			],
			"name": "isContributor",
			"outputs": [
				{
					"internalType": "bool",
					"name": "",
					"type": "bool"
				}
			],
			"stateMutability": "view",
			"type": "function"
		},
		{
			"inputs": [
				{
					"internalType": "address",
					"name": "",
					"type": "address"
				}
			],
			"name": "isModerator",
			"outputs": [
				{
					"internalType": "bool",
					"name": "",
					"type": "bool"
				}
			],
			"stateMutability": "view",
			"type": "function"
		},
		{
			"inputs": [],
			"name": "nextProjectId",
			"outputs": [
				{
					"internalType": "uint256",
					"name": "",
					"type": "uint256"
				}
			],
			"stateMutability": "view",
			"type": "function"
		},
		{
			"inputs": [
				{
					"internalType": "uint256",
					"name": "",
					"type": "uint256"
				},
				{
					"internalType": "uint256",
					"name": "",
					"type": "uint256"
				}
			],
			"name": "projectContributorList",
			"outputs": [
				{
					"internalType": "address",
					"name": "",
					"type": "address"
				}
			],
			"stateMutability": "view",
			"type": "function"
		},
		{
			"inputs": [
				{
					"internalType": "uint256",
					"name": "",
					"type": "uint256"
				},
				{
					"internalType": "address",
					"name": "",
					"type": "address"
				}
			],
			"name": "projectContributors",
			"outputs": [
				{
					"internalType": "bool",
					"name": "",
					"type": "bool"
				}
			],
			"stateMutability": "view",
			"type": "function"
		},
		{
			"inputs": [
				{
					"internalType": "uint256",
					"name": "",
					"type": "uint256"
				},
				{
					"internalType": "uint256",
					"name": "",
					"type": "uint256"
				}
			],
			"name": "projectToEntryIds",
			"outputs": [
				{
					"internalType": "uint256",
					"name": "",
					"type": "uint256"
				}
			],
			"stateMutability": "view",
			"type": "function"
		},
		{
			"inputs": [
				{
					"internalType": "uint256",
					"name": "",
					"type": "uint256"
				}
			],
			"name": "projects",
			"outputs": [
				{
					"internalType": "address",
					"name": "creator",
					"type": "address"
				},
				{
					"internalType": "string",
					"name": "title",
					"type": "string"
				},
				{
					"internalType": "string",
					"name": "description",
					"type": "string"
				},
				{
					"internalType": "uint256",
					"name": "createdAt",
					"type": "uint256"
				},
				{
					"internalType": "bool",
					"name": "exists",
					"type": "bool"
				}
			],
			"stateMutability": "view",
			"type": "function"
		},
		{
			"inputs": [
				{
					"internalType": "uint256",
					"name": "projectId",
					"type": "uint256"
				},
				{
					"internalType": "address",
					"name": "contributor",
					"type": "address"
				}
			],
			"name": "removeContributor",
			"outputs": [],
			"stateMutability": "nonpayable",
			"type": "function"
		},
		{
			"inputs": [
				{
					"internalType": "address",
					"name": "mod",
					"type": "address"
				}
			],
			"name": "removeModerator",
			"outputs": [],
			"stateMutability": "nonpayable",
			"type": "function"
		},
		{
			"inputs": [
				{
					"internalType": "uint256",
					"name": "entryId",
					"type": "uint256"
				}
			],
			"name": "revokeEntry",
			"outputs": [],
			"stateMutability": "nonpayable",
			"type": "function"
		},
		{
			"inputs": [
				{
					"internalType": "bytes32",
					"name": "",
					"type": "bytes32"
				}
			],
			"name": "seenSubmissionHashes",
			"outputs": [
				{
					"internalType": "bool",
					"name": "",
					"type": "bool"
				}
			],
			"stateMutability": "view",
			"type": "function"
		},
		{
			"inputs": [
				{
					"components": [
						{
							"internalType": "string",
							"name": "encryptedBlob",
							"type": "string"
						},
						{
							"internalType": "string",
							"name": "cid",
							"type": "string"
						},
						{
							"internalType": "string",
							"name": "title",
							"type": "string"
						},
						{
							"internalType": "string[]",
							"name": "tags",
							"type": "string[]"
						},
						{
							"internalType": "string",
							"name": "doi",
							"type": "string"
						},
						{
							"internalType": "uint256",
							"name": "projectId",
							"type": "uint256"
						},
						{
							"internalType": "bool",
							"name": "isPublic",
							"type": "bool"
						}
					],
					"internalType": "struct QshieldDescivault.SubmissionData",
					"name": "data",
					"type": "tuple"
				},
				{
					"internalType": "uint256",
					"name": "nonce",
					"type": "uint256"
				},
				{
					"internalType": "uint8",
					"name": "v",
					"type": "uint8"
				},
				{
					"internalType": "bytes32",
					"name": "r",
					"type": "bytes32"
				},
				{
					"internalType": "bytes32",
					"name": "s",
					"type": "bytes32"
				}
			],
			"name": "submitData",
			"outputs": [],
			"stateMutability": "nonpayable",
			"type": "function"
		}
	]
}