{
	"data": {
		"bytecode": {
			"linkReferences": {},
			"object": "60c060405234801561000f575f5ffd5b50604051612b42380380612b428339818101604052810190610031919061016b565b5f73ffffffffffffffffffffffffffffffffffffffff168173ffffffffffffffffffffffffffffffffffffffff160361009f576040517f08c379a0000000000000000000000000000000000000000000000000000000008152600401610096906101f0565b60405180910390fd5b3373ffffffffffffffffffffffffffffffffffffffff1660808173ffffffffffffffffffffffffffffffffffffffff16815250508073ffffffffffffffffffffffffffffffffffffffff1660a08173ffffffffffffffffffffffffffffffffffffffff16815250505061020e565b5f5ffd5b5f73ffffffffffffffffffffffffffffffffffffffff82169050919050565b5f61013a82610111565b9050919050565b61014a81610130565b8114610154575f5ffd5b50565b5f8151905061016581610141565b92915050565b5f602082840312156101805761017f61010d565b5b5f61018d84828501610157565b91505092915050565b5f82825260208201905092915050565b7f5369676e6572207a65726f0000000000000000000000000000000000000000005f82015250565b5f6101da600b83610196565b91506101e5826101a6565b602082019050919050565b5f6020820190508181035f830152610207816101ce565b9050919050565b60805160a0516128f761024b5f395f8181610e6f015261139201525f818161041d0152818161083201528181610b51015261123d01526128f75ff3fe608060405234801561000f575f5ffd5b50600436106100e8575f3560e01c80639ada4cb91161008a578063c334b62311610064578063c334b62314610270578063cc0018791461028c578063fa6f3936146102aa578063fe269cc3146102da576100e8565b80639ada4cb914610208578063b532e4cb14610238578063be9938fb14610254576100e8565b8063375eed27116100c6578063375eed271461015c5780637a9240471461018c578063869d785f146101bc57806386f79edb146101d8576100e8565b80630d80fefd146100ec578063147e9108146101205780632a0acc6a1461013e575b5f5ffd5b610106600480360381019061010191906116f6565b61030a565b6040516101179594939291906117f7565b60405180910390f35b61012861040f565b604051610135919061184f565b60405180910390f35b61014661041b565b6040516101539190611868565b60405180910390f35b610176600480360381019061017191906118ab565b61043f565b60405161018391906119a0565b60405180910390f35b6101a660048036038101906101a191906119c0565b61058c565b6040516101b39190611b92565b60405180910390f35b6101d660048036038101906101d19190611bb2565b610830565b005b6101f260048036038101906101ed91906116f6565b61094b565b6040516101ff9190611c50565b60405180910390f35b610222600480360381019061021d9190611c70565b610b19565b60405161022f919061184f565b60405180910390f35b610252600480360381019061024d9190611bb2565b610b4f565b005b61026e60048036038101906102699190611d81565b610c6b565b005b61028a600480360381019061028591906116f6565b61123b565b005b610294611390565b6040516102a19190611868565b60405180910390f35b6102c460048036038101906102bf9190611bb2565b6113b4565b6040516102d19190611e45565b60405180910390f35b6102f460048036038101906102ef9190611e5e565b6113d0565b6040516103019190611e45565b60405180910390f35b60018181548110610319575f80fd5b905f5260205f2090600502015f91509050805f015f9054906101000a900473ffffffffffffffffffffffffffffffffffffffff1690806001015f9054906101000a900473ffffffffffffffffffffffffffffffffffffffff169080600201805461038290611eb6565b80601f01602080910402602001604051908101604052809291908181526020018280546103ae90611eb6565b80156103f95780601f106103d0576101008083540402835291602001916103f9565b820191905f5260205f20905b8154815290600101906020018083116103dc57829003601f168201915b5050505050908060030154908060040154905085565b5f600180549050905090565b7f000000000000000000000000000000000000000000000000000000000000000081565b60605f8273ffffffffffffffffffffffffffffffffffffffff168473ffffffffffffffffffffffffffffffffffffffff161061047b578261047d565b835b90505f8373ffffffffffffffffffffffffffffffffffffffff168573ffffffffffffffffffffffffffffffffffffffff16106104b957846104bb565b835b905060025f8373ffffffffffffffffffffffffffffffffffffffff1673ffffffffffffffffffffffffffffffffffffffff1681526020019081526020015f205f8273ffffffffffffffffffffffffffffffffffffffff1673ffffffffffffffffffffffffffffffffffffffff1681526020019081526020015f2080548060200260200160405190810160405280929190818152602001828054801561057d57602002820191905f5260205f20905b815481526020019060010190808311610569575b50505050509250505092915050565b606060018054905083106105d5576040517f08c379a00000000000000000000000000000000000000000000000000000000081526004016105cc90611f30565b60405180910390fd5b5f60018054905083856105e89190611f7b565b116105fe5782846105f99190611f7b565b610605565b6001805490505b90505f84826106149190611fae565b67ffffffffffffffff81111561062d5761062c611fe1565b5b60405190808252806020026020018201604052801561066657816020015b610653611664565b81526020019060019003908161064b5790505b5090505f8590505b82811015610824576001818154811061068a5761068961200e565b5b905f5260205f2090600502016040518060a00160405290815f82015f9054906101000a900473ffffffffffffffffffffffffffffffffffffffff1673ffffffffffffffffffffffffffffffffffffffff1673ffffffffffffffffffffffffffffffffffffffff168152602001600182015f9054906101000a900473ffffffffffffffffffffffffffffffffffffffff1673ffffffffffffffffffffffffffffffffffffffff1673ffffffffffffffffffffffffffffffffffffffff16815260200160028201805461075a90611eb6565b80601f016020809104026020016040519081016040528092919081815260200182805461078690611eb6565b80156107d15780601f106107a8576101008083540402835291602001916107d1565b820191905f5260205f20905b8154815290600101906020018083116107b457829003601f168201915b50505050508152602001600382015481526020016004820154815250508287836107fb9190611fae565b8151811061080c5761080b61200e565b5b6020026020010181905250808060010191505061066e565b50809250505092915050565b7f000000000000000000000000000000000000000000000000000000000000000073ffffffffffffffffffffffffffffffffffffffff163373ffffffffffffffffffffffffffffffffffffffff16146108be576040517f08c379a00000000000000000000000000000000000000000000000000000000081526004016108b590612085565b60405180910390fd5b5f5f5f8373ffffffffffffffffffffffffffffffffffffffff1673ffffffffffffffffffffffffffffffffffffffff1681526020019081526020015f205f6101000a81548160ff0219169083151502179055507f7a9f1e23d5426b34819d173153d59084cc3578d5a129b80bb27df683ac6b2278816040516109409190611868565b60405180910390a150565b610953611664565b600180549050821061099a576040517f08c379a0000000000000000000000000000000000000000000000000000000008152600401610991906120ed565b60405180910390fd5b600182815481106109ae576109ad61200e565b5b905f5260205f2090600502016040518060a00160405290815f82015f9054906101000a900473ffffffffffffffffffffffffffffffffffffffff1673ffffffffffffffffffffffffffffffffffffffff1673ffffffffffffffffffffffffffffffffffffffff168152602001600182015f9054906101000a900473ffffffffffffffffffffffffffffffffffffffff1673ffffffffffffffffffffffffffffffffffffffff1673ffffffffffffffffffffffffffffffffffffffff168152602001600282018054610a7e90611eb6565b80601f0160208091040260200160405190810160405280929190818152602001828054610aaa90611eb6565b8015610af55780601f10610acc57610100808354040283529160200191610af5565b820191905f5260205f20905b815481529060010190602001808311610ad857829003601f168201915b50505050508152602001600382015481526020016004820154815250509050919050565b6002602052825f5260405f20602052815f5260405f208181548110610b3c575f80fd5b905f5260205f20015f9250925050505481565b7f000000000000000000000000000000000000000000000000000000000000000073ffffffffffffffffffffffffffffffffffffffff163373ffffffffffffffffffffffffffffffffffffffff1614610bdd576040517f08c379a0000000000000000000000000000000000000000000000000000000008152600401610bd490612085565b60405180910390fd5b60015f5f8373ffffffffffffffffffffffffffffffffffffffff1673ffffffffffffffffffffffffffffffffffffffff1681526020019081526020015f205f6101000a81548160ff0219169083151502179055507fd378ad41c1a753fd1ba9ec0fcd7970526c175b68545b4a02d6d15e7606fe359681604051610c609190611868565b60405180910390a150565b5f73ffffffffffffffffffffffffffffffffffffffff168773ffffffffffffffffffffffffffffffffffffffff1603610cd9576040517f08c379a0000000000000000000000000000000000000000000000000000000008152600401610cd090612155565b60405180910390fd5b3373ffffffffffffffffffffffffffffffffffffffff168773ffffffffffffffffffffffffffffffffffffffff1603610d47576040517f08c379a0000000000000000000000000000000000000000000000000000000008152600401610d3e906121bd565b60405180910390fd5b5f8686905011610d8c576040517f08c379a0000000000000000000000000000000000000000000000000000000008152600401610d8390612225565b60405180910390fd5b5f8686604051610d9d92919061227f565b6040518091039020905060035f8281526020019081526020015f205f9054906101000a900460ff1615610e05576040517f08c379a0000000000000000000000000000000000000000000000000000000008152600401610dfc906122e1565b60405180910390fd5b5f3389600188610e159190611f7b565b8846604051602001610e2b959493929190612364565b6040516020818303038152906040528051906020012090505f81604051602001610e559190612436565b6040516020818303038152906040528051906020012090507f000000000000000000000000000000000000000000000000000000000000000073ffffffffffffffffffffffffffffffffffffffff16610eb0828888886113ed565b73ffffffffffffffffffffffffffffffffffffffff1614610f06576040517f08c379a0000000000000000000000000000000000000000000000000000000008152600401610efd906124a5565b60405180910390fd5b5f600180549050905060016040518060a001604052803373ffffffffffffffffffffffffffffffffffffffff1681526020018d73ffffffffffffffffffffffffffffffffffffffff1681526020018c8c8080601f0160208091040260200160405190810160405280939291908181526020018383808284375f81840152601f19601f82011690508083019250505050505050815260200186815260200142815250908060018154018082558091505060019003905f5260205f2090600502015f909190919091505f820151815f015f6101000a81548173ffffffffffffffffffffffffffffffffffffffff021916908373ffffffffffffffffffffffffffffffffffffffff1602179055506020820151816001015f6101000a81548173ffffffffffffffffffffffffffffffffffffffff021916908373ffffffffffffffffffffffffffffffffffffffff160217905550604082015181600201908161106c9190612663565b5060608201518160030155608082015181600401555050600160035f8681526020019081526020015f205f6101000a81548160ff0219169083151502179055505f8b73ffffffffffffffffffffffffffffffffffffffff163373ffffffffffffffffffffffffffffffffffffffff16106110e6578b6110e8565b335b90505f8c73ffffffffffffffffffffffffffffffffffffffff163373ffffffffffffffffffffffffffffffffffffffff16106111245733611126565b8c5b905060025f8373ffffffffffffffffffffffffffffffffffffffff1673ffffffffffffffffffffffffffffffffffffffff1681526020019081526020015f205f8273ffffffffffffffffffffffffffffffffffffffff1673ffffffffffffffffffffffffffffffffffffffff1681526020019081526020015f2083908060018154018082558091505060019003905f5260205f20015f90919091909150558c73ffffffffffffffffffffffffffffffffffffffff163373ffffffffffffffffffffffffffffffffffffffff16847fa31daf30511e6725fb3c47fd2430533bf3ead03bab987e3acc8746c041ffeafc8942604051611224929190612732565b60405180910390a450505050505050505050505050565b7f000000000000000000000000000000000000000000000000000000000000000073ffffffffffffffffffffffffffffffffffffffff163373ffffffffffffffffffffffffffffffffffffffff1614806112da57505f5f3373ffffffffffffffffffffffffffffffffffffffff1673ffffffffffffffffffffffffffffffffffffffff1681526020019081526020015f205f9054906101000a900460ff165b611319576040517f08c379a0000000000000000000000000000000000000000000000000000000008152600401611310906127a3565b60405180910390fd5b6001805490508110611360576040517f08c379a00000000000000000000000000000000000000000000000000000000081526004016113579061280b565b60405180910390fd5b807f41f050218f501b0bbe717ea041e936c84c22520fced275b84e264991e996a4ea60405160405180910390a250565b7f000000000000000000000000000000000000000000000000000000000000000081565b5f602052805f5260405f205f915054906101000a900460ff1681565b6003602052805f5260405f205f915054906101000a900460ff1681565b5f5f5f5f6113fd8888888861141b565b92509250925061140d8282611502565b829350505050949350505050565b5f5f5f7f7fffffffffffffffffffffffffffffff5d576e7357a4501ddfe92f46681b20a0845f1c1115611457575f6003859250925092506114f8565b5f6001888888886040515f815260200160405260405161147a9493929190612838565b6020604051602081039080840390855afa15801561149a573d5f5f3e3d5ffd5b5050506020604051035190505f73ffffffffffffffffffffffffffffffffffffffff168173ffffffffffffffffffffffffffffffffffffffff16036114eb575f60015f5f1b935093509350506114f8565b805f5f5f1b935093509350505b9450945094915050565b5f60038111156115155761151461287b565b5b8260038111156115285761152761287b565b5b031561166057600160038111156115425761154161287b565b5b8260038111156115555761155461287b565b5b0361158c576040517ff645eedf00000000000000000000000000000000000000000000000000000000815260040160405180910390fd5b600260038111156115a05761159f61287b565b5b8260038111156115b3576115b261287b565b5b036115f757805f1c6040517ffce698f70000000000000000000000000000000000000000000000000000000081526004016115ee919061184f565b60405180910390fd5b60038081111561160a5761160961287b565b5b82600381111561161d5761161c61287b565b5b0361165f57806040517fd78bce0c00000000000000000000000000000000000000000000000000000000815260040161165691906128a8565b60405180910390fd5b5b5050565b6040518060a001604052805f73ffffffffffffffffffffffffffffffffffffffff1681526020015f73ffffffffffffffffffffffffffffffffffffffff168152602001606081526020015f81526020015f81525090565b5f5ffd5b5f5ffd5b5f819050919050565b6116d5816116c3565b81146116df575f5ffd5b50565b5f813590506116f0816116cc565b92915050565b5f6020828403121561170b5761170a6116bb565b5b5f611718848285016116e2565b91505092915050565b5f73ffffffffffffffffffffffffffffffffffffffff82169050919050565b5f61174a82611721565b9050919050565b61175a81611740565b82525050565b5f81519050919050565b5f82825260208201905092915050565b8281835e5f83830152505050565b5f601f19601f8301169050919050565b5f6117a282611760565b6117ac818561176a565b93506117bc81856020860161177a565b6117c581611788565b840191505092915050565b5f819050919050565b6117e2816117d0565b82525050565b6117f1816116c3565b82525050565b5f60a08201905061180a5f830188611751565b6118176020830187611751565b81810360408301526118298186611798565b905061183860608301856117d9565b61184560808301846117e8565b9695505050505050565b5f6020820190506118625f8301846117e8565b92915050565b5f60208201905061187b5f830184611751565b92915050565b61188a81611740565b8114611894575f5ffd5b50565b5f813590506118a581611881565b92915050565b5f5f604083850312156118c1576118c06116bb565b5b5f6118ce85828601611897565b92505060206118df85828601611897565b9150509250929050565b5f81519050919050565b5f82825260208201905092915050565b5f819050602082019050919050565b61191b816116c3565b82525050565b5f61192c8383611912565b60208301905092915050565b5f602082019050919050565b5f61194e826118e9565b61195881856118f3565b935061196383611903565b805f5b8381101561199357815161197a8882611921565b975061198583611938565b925050600181019050611966565b5085935050505092915050565b5f6020820190508181035f8301526119b88184611944565b905092915050565b5f5f604083850312156119d6576119d56116bb565b5b5f6119e3858286016116e2565b92505060206119f4858286016116e2565b9150509250929050565b5f81519050919050565b5f82825260208201905092915050565b5f819050602082019050919050565b611a3081611740565b82525050565b5f82825260208201905092915050565b5f611a5082611760565b611a5a8185611a36565b9350611a6a81856020860161177a565b611a7381611788565b840191505092915050565b611a87816117d0565b82525050565b5f60a083015f830151611aa25f860182611a27565b506020830151611ab56020860182611a27565b5060408301518482036040860152611acd8282611a46565b9150506060830151611ae26060860182611a7e565b506080830151611af56080860182611912565b508091505092915050565b5f611b0b8383611a8d565b905092915050565b5f602082019050919050565b5f611b29826119fe565b611b338185611a08565b935083602082028501611b4585611a18565b805f5b85811015611b805784840389528151611b618582611b00565b9450611b6c83611b13565b925060208a01995050600181019050611b48565b50829750879550505050505092915050565b5f6020820190508181035f830152611baa8184611b1f565b905092915050565b5f60208284031215611bc757611bc66116bb565b5b5f611bd484828501611897565b91505092915050565b5f60a083015f830151611bf25f860182611a27565b506020830151611c056020860182611a27565b5060408301518482036040860152611c1d8282611a46565b9150506060830151611c326060860182611a7e565b506080830151611c456080860182611912565b508091505092915050565b5f6020820190508181035f830152611c688184611bdd565b905092915050565b5f5f5f60608486031215611c8757611c866116bb565b5b5f611c9486828701611897565b9350506020611ca586828701611897565b9250506040611cb6868287016116e2565b9150509250925092565b5f5ffd5b5f5ffd5b5f5ffd5b5f5f83601f840112611ce157611ce0611cc0565b5b8235905067ffffffffffffffff811115611cfe57611cfd611cc4565b5b602083019150836001820283011115611d1a57611d19611cc8565b5b9250929050565b5f60ff82169050919050565b611d3681611d21565b8114611d40575f5ffd5b50565b5f81359050611d5181611d2d565b92915050565b611d60816117d0565b8114611d6a575f5ffd5b50565b5f81359050611d7b81611d57565b92915050565b5f5f5f5f5f5f5f60c0888a031215611d9c57611d9b6116bb565b5b5f611da98a828b01611897565b975050602088013567ffffffffffffffff811115611dca57611dc96116bf565b5b611dd68a828b01611ccc565b96509650506040611de98a828b016116e2565b9450506060611dfa8a828b01611d43565b9350506080611e0b8a828b01611d6d565b92505060a0611e1c8a828b01611d6d565b91505092959891949750929550565b5f8115159050919050565b611e3f81611e2b565b82525050565b5f602082019050611e585f830184611e36565b92915050565b5f60208284031215611e7357611e726116bb565b5b5f611e8084828501611d6d565b91505092915050565b7f4e487b71000000000000000000000000000000000000000000000000000000005f52602260045260245ffd5b5f6002820490506001821680611ecd57607f821691505b602082108103611ee057611edf611e89565b5b50919050565b7f5374617274206f7574206f6620626f756e6473000000000000000000000000005f82015250565b5f611f1a60138361176a565b9150611f2582611ee6565b602082019050919050565b5f6020820190508181035f830152611f4781611f0e565b9050919050565b7f4e487b71000000000000000000000000000000000000000000000000000000005f52601160045260245ffd5b5f611f85826116c3565b9150611f90836116c3565b9250828201905080821115611fa857611fa7611f4e565b5b92915050565b5f611fb8826116c3565b9150611fc3836116c3565b9250828203905081811115611fdb57611fda611f4e565b5b92915050565b7f4e487b71000000000000000000000000000000000000000000000000000000005f52604160045260245ffd5b7f4e487b71000000000000000000000000000000000000000000000000000000005f52603260045260245ffd5b7f4e6f742061646d696e00000000000000000000000000000000000000000000005f82015250565b5f61206f60098361176a565b915061207a8261203b565b602082019050919050565b5f6020820190508181035f83015261209c81612063565b9050919050565b7f496e76616c6964204944000000000000000000000000000000000000000000005f82015250565b5f6120d7600a8361176a565b91506120e2826120a3565b602082019050919050565b5f6020820190508181035f830152612104816120cb565b9050919050565b7f496e76616c696420726563697069656e740000000000000000000000000000005f82015250565b5f61213f60118361176a565b915061214a8261210b565b602082019050919050565b5f6020820190508181035f83015261216c81612133565b9050919050565b7f43616e6e6f742073656e6420746f2073656c66000000000000000000000000005f82015250565b5f6121a760138361176a565b91506121b282612173565b602082019050919050565b5f6020820190508181035f8301526121d48161219b565b9050919050565b7f456d707479206d657373616765000000000000000000000000000000000000005f82015250565b5f61220f600d8361176a565b915061221a826121db565b602082019050919050565b5f6020820190508181035f83015261223c81612203565b9050919050565b5f81905092915050565b828183375f83830152505050565b5f6122668385612243565b935061227383858461224d565b82840190509392505050565b5f61228b82848661225b565b91508190509392505050565b7f4475706c6963617465206d6573736167650000000000000000000000000000005f82015250565b5f6122cb60118361176a565b91506122d682612297565b602082019050919050565b5f6020820190508181035f8301526122f8816122bf565b9050919050565b5f8160601b9050919050565b5f612315826122ff565b9050919050565b5f6123268261230b565b9050919050565b61233e61233982611740565b61231c565b82525050565b5f819050919050565b61235e612359826116c3565b612344565b82525050565b5f61236f828861232d565b60148201915061237f828761232d565b60148201915061238f828661234d565b60208201915061239f828561234d565b6020820191506123af828461234d565b6020820191508190509695505050505050565b5f81905092915050565b7f19457468657265756d205369676e6564204d6573736167653a0a3332000000005f82015250565b5f612400601c836123c2565b915061240b826123cc565b601c82019050919050565b5f819050919050565b61243061242b826117d0565b612416565b82525050565b5f612440826123f4565b915061244c828461241f565b60208201915081905092915050565b7f496e76616c6964207369676e61747572650000000000000000000000000000005f82015250565b5f61248f60118361176a565b915061249a8261245b565b602082019050919050565b5f6020820190508181035f8301526124bc81612483565b9050919050565b5f819050815f5260205f209050919050565b5f6020601f8301049050919050565b5f82821b905092915050565b5f6008830261251f7fffffffffffffffffffffffffffffffffffffffffffffffffffffffffffffffff826124e4565b61252986836124e4565b95508019841693508086168417925050509392505050565b5f819050919050565b5f61256461255f61255a846116c3565b612541565b6116c3565b9050919050565b5f819050919050565b61257d8361254a565b6125916125898261256b565b8484546124f0565b825550505050565b5f5f905090565b6125a8612599565b6125b3818484612574565b505050565b5b818110156125d6576125cb5f826125a0565b6001810190506125b9565b5050565b601f82111561261b576125ec816124c3565b6125f5846124d5565b81016020851015612604578190505b612618612610856124d5565b8301826125b8565b50505b505050565b5f82821c905092915050565b5f61263b5f1984600802612620565b1980831691505092915050565b5f612653838361262c565b9150826002028217905092915050565b61266c82611760565b67ffffffffffffffff81111561268557612684611fe1565b5b61268f8254611eb6565b61269a8282856125da565b5f60209050601f8311600181146126cb575f84156126b9578287015190505b6126c38582612648565b86555061272a565b601f1984166126d9866124c3565b5f5b82811015612700578489015182556001820191506020850194506020810190506126db565b8683101561271d5784890151612719601f89168261262c565b8355505b6001600288020188555050505b505050505050565b5f6040820190506127455f8301856117d9565b61275260208301846117e8565b9392505050565b7f4e6f74206d6f64657261746f72000000000000000000000000000000000000005f82015250565b5f61278d600d8361176a565b915061279882612759565b602082019050919050565b5f6020820190508181035f8301526127ba81612781565b9050919050565b7f496e76616c6964206d65737361676500000000000000000000000000000000005f82015250565b5f6127f5600f8361176a565b9150612800826127c1565b602082019050919050565b5f6020820190508181035f830152612822816127e9565b9050919050565b61283281611d21565b82525050565b5f60808201905061284b5f8301876117d9565b6128586020830186612829565b61286560408301856117d9565b61287260608301846117d9565b95945050505050565b7f4e487b71000000000000000000000000000000000000000000000000000000005f52602160045260245ffd5b5f6020820190506128bb5f8301846117d9565b9291505056fea2646970667358221220e510b0a8246bb4b8e5077fd200bb68e3a12a1ce503aa64599f9fafc7bfc7280464736f6c634300081f0033",
			"opcodes": "PUSH1 0xC0 PUSH1 0x40 MSTORE CALLVALUE DUP1 ISZERO PUSH2 0xF JUMPI PUSH0 PUSH0 REVERT JUMPDEST POP PUSH1 0x40 MLOAD PUSH2 0x2B42 CODESIZE SUB DUP1 PUSH2 0x2B42 DUP4 CODECOPY DUP2 DUP2 ADD PUSH1 0x40 MSTORE DUP2 ADD SWAP1 PUSH2 0x31 SWAP2 SWAP1 PUSH2 0x16B JUMP JUMPDEST PUSH0 PUSH20 0xFFFFFFFFFFFFFFFFFFFFFFFFFFFFFFFFFFFFFFFF AND DUP2 PUSH20 0xFFFFFFFFFFFFFFFFFFFFFFFFFFFFFFFFFFFFFFFF AND SUB PUSH2 0x9F JUMPI PUSH1 0x40 MLOAD PUSH32 0x8C379A000000000000000000000000000000000000000000000000000000000 DUP2 MSTORE PUSH1 0x4 ADD PUSH2 0x96 SWAP1 PUSH2 0x1F0 JUMP JUMPDEST PUSH1 0x40 MLOAD DUP1 SWAP2 SUB SWAP1 REVERT JUMPDEST CALLER PUSH20 0xFFFFFFFFFFFFFFFFFFFFFFFFFFFFFFFFFFFFFFFF AND PUSH1 0x80 DUP2 PUSH20 0xFFFFFFFFFFFFFFFFFFFFFFFFFFFFFFFFFFFFFFFF AND DUP2 MSTORE POP POP DUP1 PUSH20 0xFFFFFFFFFFFFFFFFFFFFFFFFFFFFFFFFFFFFFFFF AND PUSH1 0xA0 DUP2 PUSH20 0xFFFFFFFFFFFFFFFFFFFFFFFFFFFFFFFFFFFFFFFF AND DUP2 MSTORE POP POP POP PUSH2 0x20E JUMP JUMPDEST PUSH0 PUSH0 REVERT JUMPDEST PUSH0 PUSH20 0xFFFFFFFFFFFFFFFFFFFFFFFFFFFFFFFFFFFFFFFF DUP3 AND SWAP1 POP SWAP2 SWAP1 POP JUMP JUMPDEST PUSH0 PUSH2 0x13A DUP3 PUSH2 0x111 JUMP JUMPDEST SWAP1 POP SWAP2 SWAP1 POP JUMP JUMPDEST PUSH2 0x14A DUP2 PUSH2 0x130 JUMP JUMPDEST DUP2 EQ PUSH2 0x154 JUMPI PUSH0 PUSH0 REVERT JUMPDEST POP JUMP JUMPDEST PUSH0 DUP2 MLOAD SWAP1 POP PUSH2 0x165 DUP2 PUSH2 0x141 JUMP JUMPDEST SWAP3 SWAP2 POP POP JUMP JUMPDEST PUSH0 PUSH1 0x20 DUP3 DUP5 SUB SLT ISZERO PUSH2 0x180 JUMPI PUSH2 0x17F PUSH2 0x10D JUMP JUMPDEST JUMPDEST PUSH0 PUSH2 0x18D DUP5 DUP3 DUP6 ADD PUSH2 0x157 JUMP JUMPDEST SWAP2 POP POP SWAP3 SWAP2 POP POP JUMP JUMPDEST PUSH0 DUP3 DUP3 MSTORE PUSH1 0x20 DUP3 ADD SWAP1 POP SWAP3 SWAP2 POP POP JUMP JUMPDEST PUSH32 0x5369676E6572207A65726F000000000000000000000000000000000000000000 PUSH0 DUP3 ADD MSTORE POP JUMP JUMPDEST PUSH0 PUSH2 0x1DA PUSH1 0xB DUP4 PUSH2 0x196 JUMP JUMPDEST SWAP2 POP PUSH2 0x1E5 DUP3 PUSH2 0x1A6 JUMP JUMPDEST PUSH1 0x20 DUP3 ADD SWAP1 POP SWAP2 SWAP1 POP JUMP JUMPDEST PUSH0 PUSH1 0x20 DUP3 ADD SWAP1 POP DUP2 DUP2 SUB PUSH0 DUP4 ADD MSTORE PUSH2 0x207 DUP2 PUSH2 0x1CE JUMP JUMPDEST SWAP1 POP SWAP2 SWAP1 POP JUMP JUMPDEST PUSH1 0x80 MLOAD PUSH1 0xA0 MLOAD PUSH2 0x28F7 PUSH2 0x24B PUSH0 CODECOPY PUSH0 DUP2 DUP2 PUSH2 0xE6F ADD MSTORE PUSH2 0x1392 ADD MSTORE PUSH0 DUP2 DUP2 PUSH2 0x41D ADD MSTORE DUP2 DUP2 PUSH2 0x832 ADD MSTORE DUP2 DUP2 PUSH2 0xB51 ADD MSTORE PUSH2 0x123D ADD MSTORE PUSH2 0x28F7 PUSH0 RETURN INVALID PUSH1 0x80 PUSH1 0x40 MSTORE CALLVALUE DUP1 ISZERO PUSH2 0xF JUMPI PUSH0 PUSH0 REVERT JUMPDEST POP PUSH1 0x4 CALLDATASIZE LT PUSH2 0xE8 JUMPI PUSH0 CALLDATALOAD PUSH1 0xE0 SHR DUP1 PUSH4 0x9ADA4CB9 GT PUSH2 0x8A JUMPI DUP1 PUSH4 0xC334B623 GT PUSH2 0x64 JUMPI DUP1 PUSH4 0xC334B623 EQ PUSH2 0x270 JUMPI DUP1 PUSH4 0xCC001879 EQ PUSH2 0x28C JUMPI DUP1 PUSH4 0xFA6F3936 EQ PUSH2 0x2AA JUMPI DUP1 PUSH4 0xFE269CC3 EQ PUSH2 0x2DA JUMPI PUSH2 0xE8 JUMP JUMPDEST DUP1 PUSH4 0x9ADA4CB9 EQ PUSH2 0x208 JUMPI DUP1 PUSH4 0xB532E4CB EQ PUSH2 0x238 JUMPI DUP1 PUSH4 0xBE9938FB EQ PUSH2 0x254 JUMPI PUSH2 0xE8 JUMP JUMPDEST DUP1 PUSH4 0x375EED27 GT PUSH2 0xC6 JUMPI DUP1 PUSH4 0x375EED27 EQ PUSH2 0x15C JUMPI DUP1 PUSH4 0x7A924047 EQ PUSH2 0x18C JUMPI DUP1 PUSH4 0x869D785F EQ PUSH2 0x1BC JUMPI DUP1 PUSH4 0x86F79EDB EQ PUSH2 0x1D8 JUMPI PUSH2 0xE8 JUMP JUMPDEST DUP1 PUSH4 0xD80FEFD EQ PUSH2 0xEC JUMPI DUP1 PUSH4 0x147E9108 EQ PUSH2 0x120 JUMPI DUP1 PUSH4 0x2A0ACC6A EQ PUSH2 0x13E JUMPI JUMPDEST PUSH0 PUSH0 REVERT JUMPDEST PUSH2 0x106 PUSH1 0x4 DUP1 CALLDATASIZE SUB DUP2 ADD SWAP1 PUSH2 0x101 SWAP2 SWAP1 PUSH2 0x16F6 JUMP JUMPDEST PUSH2 0x30A JUMP JUMPDEST PUSH1 0x40 MLOAD PUSH2 0x117 SWAP6 SWAP5 SWAP4 SWAP3 SWAP2 SWAP1 PUSH2 0x17F7 JUMP JUMPDEST PUSH1 0x40 MLOAD DUP1 SWAP2 SUB SWAP1 RETURN JUMPDEST PUSH2 0x128 PUSH2 0x40F JUMP JUMPDEST PUSH1 0x40 MLOAD PUSH2 0x135 SWAP2 SWAP1 PUSH2 0x184F JUMP JUMPDEST PUSH1 0x40 MLOAD DUP1 SWAP2 SUB SWAP1 RETURN JUMPDEST PUSH2 0x146 PUSH2 0x41B JUMP JUMPDEST PUSH1 0x40 MLOAD PUSH2 0x153 SWAP2 SWAP1 PUSH2 0x1868 JUMP JUMPDEST PUSH1 0x40 MLOAD DUP1 SWAP2 SUB SWAP1 RETURN JUMPDEST PUSH2 0x176 PUSH1 0x4 DUP1 CALLDATASIZE SUB DUP2 ADD SWAP1 PUSH2 0x171 SWAP2 SWAP1 PUSH2 0x18AB JUMP JUMPDEST PUSH2 0x43F JUMP JUMPDEST PUSH1 0x40 MLOAD PUSH2 0x183 SWAP2 SWAP1 PUSH2 0x19A0 JUMP JUMPDEST PUSH1 0x40 MLOAD DUP1 SWAP2 SUB SWAP1 RETURN JUMPDEST PUSH2 0x1A6 PUSH1 0x4 DUP1 CALLDATASIZE SUB DUP2 ADD SWAP1 PUSH2 0x1A1 SWAP2 SWAP1 PUSH2 0x19C0 JUMP JUMPDEST PUSH2 0x58C JUMP JUMPDEST PUSH1 0x40 MLOAD PUSH2 0x1B3 SWAP2 SWAP1 PUSH2 0x1B92 JUMP JUMPDEST PUSH1 0x40 MLOAD DUP1 SWAP2 SUB SWAP1 RETURN JUMPDEST PUSH2 0x1D6 PUSH1 0x4 DUP1 CALLDATASIZE SUB DUP2 ADD SWAP1 PUSH2 0x1D1 SWAP2 SWAP1 PUSH2 0x1BB2 JUMP JUMPDEST PUSH2 0x830 JUMP JUMPDEST STOP JUMPDEST PUSH2 0x1F2 PUSH1 0x4 DUP1 CALLDATASIZE SUB DUP2 ADD SWAP1 PUSH2 0x1ED SWAP2 SWAP1 PUSH2 0x16F6 JUMP JUMPDEST PUSH2 0x94B JUMP JUMPDEST PUSH1 0x40 MLOAD PUSH2 0x1FF SWAP2 SWAP1 PUSH2 0x1C50 JUMP JUMPDEST PUSH1 0x40 MLOAD DUP1 SWAP2 SUB SWAP1 RETURN JUMPDEST PUSH2 0x222 PUSH1 0x4 DUP1 CALLDATASIZE SUB DUP2 ADD SWAP1 PUSH2 0x21D SWAP2 SWAP1 PUSH2 0x1C70 JUMP JUMPDEST PUSH2 0xB19 JUMP JUMPDEST PUSH1 0x40 MLOAD PUSH2 0x22F SWAP2 SWAP1 PUSH2 0x184F JUMP JUMPDEST PUSH1 0x40 MLOAD DUP1 SWAP2 SUB SWAP1 RETURN JUMPDEST PUSH2 0x252 PUSH1 0x4 DUP1 CALLDATASIZE SUB DUP2 ADD SWAP1 PUSH2 0x24D SWAP2 SWAP1 PUSH2 0x1BB2 JUMP JUMPDEST PUSH2 0xB4F JUMP JUMPDEST STOP JUMPDEST PUSH2 0x26E PUSH1 0x4 DUP1 CALLDATASIZE SUB DUP2 ADD SWAP1 PUSH2 0x269 SWAP2 SWAP1 PUSH2 0x1D81 JUMP JUMPDEST PUSH2 0xC6B JUMP JUMPDEST STOP JUMPDEST PUSH2 0x28A PUSH1 0x4 DUP1 CALLDATASIZE SUB DUP2 ADD SWAP1 PUSH2 0x285 SWAP2 SWAP1 PUSH2 0x16F6 JUMP JUMPDEST PUSH2 0x123B JUMP JUMPDEST STOP JUMPDEST PUSH2 0x294 PUSH2 0x1390 JUMP JUMPDEST PUSH1 0x40 MLOAD PUSH2 0x2A1 SWAP2 SWAP1 PUSH2 0x1868 JUMP JUMPDEST PUSH1 0x40 MLOAD DUP1 SWAP2 SUB SWAP1 RETURN JUMPDEST PUSH2 0x2C4 PUSH1 0x4 DUP1 CALLDATASIZE SUB DUP2 ADD SWAP1 PUSH2 0x2BF SWAP2 SWAP1 PUSH2 0x1BB2 JUMP JUMPDEST PUSH2 0x13B4 JUMP JUMPDEST PUSH1 0x40 MLOAD PUSH2 0x2D1 SWAP2 SWAP1 PUSH2 0x1E45 JUMP JUMPDEST PUSH1 0x40 MLOAD DUP1 SWAP2 SUB SWAP1 RETURN JUMPDEST PUSH2 0x2F4 PUSH1 0x4 DUP1 CALLDATASIZE SUB DUP2 ADD SWAP1 PUSH2 0x2EF SWAP2 SWAP1 PUSH2 0x1E5E JUMP JUMPDEST PUSH2 0x13D0 JUMP JUMPDEST PUSH1 0x40 MLOAD PUSH2 0x301 SWAP2 SWAP1 PUSH2 0x1E45 JUMP JUMPDEST PUSH1 0x40 MLOAD DUP1 SWAP2 SUB SWAP1 RETURN JUMPDEST PUSH1 0x1 DUP2 DUP2 SLOAD DUP2 LT PUSH2 0x319 JUMPI PUSH0 DUP1 REVERT JUMPDEST SWAP1 PUSH0 MSTORE PUSH1 0x20 PUSH0 KECCAK256 SWAP1 PUSH1 0x5 MUL ADD PUSH0 SWAP2 POP SWAP1 POP DUP1 PUSH0 ADD PUSH0 SWAP1 SLOAD SWAP1 PUSH2 0x100 EXP SWAP1 DIV PUSH20 0xFFFFFFFFFFFFFFFFFFFFFFFFFFFFFFFFFFFFFFFF AND SWAP1 DUP1 PUSH1 0x1 ADD PUSH0 SWAP1 SLOAD SWAP1 PUSH2 0x100 EXP SWAP1 DIV PUSH20 0xFFFFFFFFFFFFFFFFFFFFFFFFFFFFFFFFFFFFFFFF AND SWAP1 DUP1 PUSH1 0x2 ADD DUP1 SLOAD PUSH2 0x382 SWAP1 PUSH2 0x1EB6 JUMP JUMPDEST DUP1 PUSH1 0x1F ADD PUSH1 0x20 DUP1 SWAP2 DIV MUL PUSH1 0x20 ADD PUSH1 0x40 MLOAD SWAP1 DUP2 ADD PUSH1 0x40 MSTORE DUP1 SWAP3 SWAP2 SWAP1 DUP2 DUP2 MSTORE PUSH1 0x20 ADD DUP3 DUP1 SLOAD PUSH2 0x3AE SWAP1 PUSH2 0x1EB6 JUMP JUMPDEST DUP1 ISZERO PUSH2 0x3F9 JUMPI DUP1 PUSH1 0x1F LT PUSH2 0x3D0 JUMPI PUSH2 0x100 DUP1 DUP4 SLOAD DIV MUL DUP4 MSTORE SWAP2 PUSH1 0x20 ADD SWAP2 PUSH2 0x3F9 JUMP JUMPDEST DUP3 ADD SWAP2 SWAP1 PUSH0 MSTORE PUSH1 0x20 PUSH0 KECCAK256 SWAP1 JUMPDEST DUP2 SLOAD DUP2 MSTORE SWAP1 PUSH1 0x1 ADD SWAP1 PUSH1 0x20 ADD DUP1 DUP4 GT PUSH2 0x3DC JUMPI DUP3 SWAP1 SUB PUSH1 0x1F AND DUP3 ADD SWAP2 JUMPDEST POP POP POP POP POP SWAP1 DUP1 PUSH1 0x3 ADD SLOAD SWAP1 DUP1 PUSH1 0x4 ADD SLOAD SWAP1 POP DUP6 JUMP JUMPDEST PUSH0 PUSH1 0x1 DUP1 SLOAD SWAP1 POP SWAP1 POP SWAP1 JUMP JUMPDEST PUSH32 0x0 DUP2 JUMP JUMPDEST PUSH1 0x60 PUSH0 DUP3 PUSH20 0xFFFFFFFFFFFFFFFFFFFFFFFFFFFFFFFFFFFFFFFF AND DUP5 PUSH20 0xFFFFFFFFFFFFFFFFFFFFFFFFFFFFFFFFFFFFFFFF AND LT PUSH2 0x47B JUMPI DUP3 PUSH2 0x47D JUMP JUMPDEST DUP4 JUMPDEST SWAP1 POP PUSH0 DUP4 PUSH20 0xFFFFFFFFFFFFFFFFFFFFFFFFFFFFFFFFFFFFFFFF AND DUP6 PUSH20 0xFFFFFFFFFFFFFFFFFFFFFFFFFFFFFFFFFFFFFFFF AND LT PUSH2 0x4B9 JUMPI DUP5 PUSH2 0x4BB JUMP JUMPDEST DUP4 JUMPDEST SWAP1 POP PUSH1 0x2 PUSH0 DUP4 PUSH20 0xFFFFFFFFFFFFFFFFFFFFFFFFFFFFFFFFFFFFFFFF AND PUSH20 0xFFFFFFFFFFFFFFFFFFFFFFFFFFFFFFFFFFFFFFFF AND DUP2 MSTORE PUSH1 0x20 ADD SWAP1 DUP2 MSTORE PUSH1 0x20 ADD PUSH0 KECCAK256 PUSH0 DUP3 PUSH20 0xFFFFFFFFFFFFFFFFFFFFFFFFFFFFFFFFFFFFFFFF AND PUSH20 0xFFFFFFFFFFFFFFFFFFFFFFFFFFFFFFFFFFFFFFFF AND DUP2 MSTORE PUSH1 0x20 ADD SWAP1 DUP2 MSTORE PUSH1 0x20 ADD PUSH0 KECCAK256 DUP1 SLOAD DUP1 PUSH1 0x20 MUL PUSH1 0x20 ADD PUSH1 0x40 MLOAD SWAP1 DUP2 ADD PUSH1 0x40 MSTORE DUP1 SWAP3 SWAP2 SWAP1 DUP2 DUP2 MSTORE PUSH1 0x20 ADD DUP3 DUP1 SLOAD DUP1 ISZERO PUSH2 0x57D JUMPI PUSH1 0x20 MUL DUP3 ADD SWAP2 SWAP1 PUSH0 MSTORE PUSH1 0x20 PUSH0 KECCAK256 SWAP1 JUMPDEST DUP2 SLOAD DUP2 MSTORE PUSH1 0x20 ADD SWAP1 PUSH1 0x1 ADD SWAP1 DUP1 DUP4 GT PUSH2 0x569 JUMPI JUMPDEST POP POP POP POP POP SWAP3 POP POP POP SWAP3 SWAP2 POP POP JUMP JUMPDEST PUSH1 0x60 PUSH1 0x1 DUP1 SLOAD SWAP1 POP DUP4 LT PUSH2 0x5D5 JUMPI PUSH1 0x40 MLOAD PUSH32 0x8C379A000000000000000000000000000000000000000000000000000000000 DUP2 MSTORE PUSH1 0x4 ADD PUSH2 0x5CC SWAP1 PUSH2 0x1F30 JUMP JUMPDEST PUSH1 0x40 MLOAD DUP1 SWAP2 SUB SWAP1 REVERT JUMPDEST PUSH0 PUSH1 0x1 DUP1 SLOAD SWAP1 POP DUP4 DUP6 PUSH2 0x5E8 SWAP2 SWAP1 PUSH2 0x1F7B JUMP JUMPDEST GT PUSH2 0x5FE JUMPI DUP3 DUP5 PUSH2 0x5F9 SWAP2 SWAP1 PUSH2 0x1F7B JUMP JUMPDEST PUSH2 0x605 JUMP JUMPDEST PUSH1 0x1 DUP1 SLOAD SWAP1 POP JUMPDEST SWAP1 POP PUSH0 DUP5 DUP3 PUSH2 0x614 SWAP2 SWAP1 PUSH2 0x1FAE JUMP JUMPDEST PUSH8 0xFFFFFFFFFFFFFFFF DUP2 GT ISZERO PUSH2 0x62D JUMPI PUSH2 0x62C PUSH2 0x1FE1 JUMP JUMPDEST JUMPDEST PUSH1 0x40 MLOAD SWAP1 DUP1 DUP3 MSTORE DUP1 PUSH1 0x20 MUL PUSH1 0x20 ADD DUP3 ADD PUSH1 0x40 MSTORE DUP1 ISZERO PUSH2 0x666 JUMPI DUP2 PUSH1 0x20 ADD JUMPDEST PUSH2 0x653 PUSH2 0x1664 JUMP JUMPDEST DUP2 MSTORE PUSH1 0x20 ADD SWAP1 PUSH1 0x1 SWAP1 SUB SWAP1 DUP2 PUSH2 0x64B JUMPI SWAP1 POP JUMPDEST POP SWAP1 POP PUSH0 DUP6 SWAP1 POP JUMPDEST DUP3 DUP2 LT ISZERO PUSH2 0x824 JUMPI PUSH1 0x1 DUP2 DUP2 SLOAD DUP2 LT PUSH2 0x68A JUMPI PUSH2 0x689 PUSH2 0x200E JUMP JUMPDEST JUMPDEST SWAP1 PUSH0 MSTORE PUSH1 0x20 PUSH0 KECCAK256 SWAP1 PUSH1 0x5 MUL ADD PUSH1 0x40 MLOAD DUP1 PUSH1 0xA0 ADD PUSH1 0x40 MSTORE SWAP1 DUP2 PUSH0 DUP3 ADD PUSH0 SWAP1 SLOAD SWAP1 PUSH2 0x100 EXP SWAP1 DIV PUSH20 0xFFFFFFFFFFFFFFFFFFFFFFFFFFFFFFFFFFFFFFFF AND PUSH20 0xFFFFFFFFFFFFFFFFFFFFFFFFFFFFFFFFFFFFFFFF AND PUSH20 0xFFFFFFFFFFFFFFFFFFFFFFFFFFFFFFFFFFFFFFFF AND DUP2 MSTORE PUSH1 0x20 ADD PUSH1 0x1 DUP3 ADD PUSH0 SWAP1 SLOAD SWAP1 PUSH2 0x100 EXP SWAP1 DIV PUSH20 0xFFFFFFFFFFFFFFFFFFFFFFFFFFFFFFFFFFFFFFFF AND PUSH20 0xFFFFFFFFFFFFFFFFFFFFFFFFFFFFFFFFFFFFFFFF AND PUSH20 0xFFFFFFFFFFFFFFFFFFFFFFFFFFFFFFFFFFFFFFFF AND DUP2 MSTORE PUSH1 0x20 ADD PUSH1 0x2 DUP3 ADD DUP1 SLOAD PUSH2 0x75A SWAP1 PUSH2 0x1EB6 JUMP JUMPDEST DUP1 PUSH1 0x1F ADD PUSH1 0x20 DUP1 SWAP2 DIV MUL PUSH1 0x20 ADD PUSH1 0x40 MLOAD SWAP1 DUP2 ADD PUSH1 0x40 MSTORE DUP1 SWAP3 SWAP2 SWAP1 DUP2 DUP2 MSTORE PUSH1 0x20 ADD DUP3 DUP1 SLOAD PUSH2 0x786 SWAP1 PUSH2 0x1EB6 JUMP JUMPDEST DUP1 ISZERO PUSH2 0x7D1 JUMPI DUP1 PUSH1 0x1F LT PUSH2 0x7A8 JUMPI PUSH2 0x100 DUP1 DUP4 SLOAD DIV MUL DUP4 MSTORE SWAP2 PUSH1 0x20 ADD SWAP2 PUSH2 0x7D1 JUMP JUMPDEST DUP3 ADD SWAP2 SWAP1 PUSH0 MSTORE PUSH1 0x20 PUSH0 KECCAK256 SWAP1 JUMPDEST DUP2 SLOAD DUP2 MSTORE SWAP1 PUSH1 0x1 ADD SWAP1 PUSH1 0x20 ADD DUP1 DUP4 GT PUSH2 0x7B4 JUMPI DUP3 SWAP1 SUB PUSH1 0x1F AND DUP3 ADD SWAP2 JUMPDEST POP POP POP POP POP DUP2 MSTORE PUSH1 0x20 ADD PUSH1 0x3 DUP3 ADD SLOAD DUP2 MSTORE PUSH1 0x20 ADD PUSH1 0x4 DUP3 ADD SLOAD DUP2 MSTORE POP POP DUP3 DUP8 DUP4 PUSH2 0x7FB SWAP2 SWAP1 PUSH2 0x1FAE JUMP JUMPDEST DUP2 MLOAD DUP2 LT PUSH2 0x80C JUMPI PUSH2 0x80B PUSH2 0x200E JUMP JUMPDEST JUMPDEST PUSH1 0x20 MUL PUSH1 0x20 ADD ADD DUP2 SWAP1 MSTORE POP DUP1 DUP1 PUSH1 0x1 ADD SWAP2 POP POP PUSH2 0x66E JUMP JUMPDEST POP DUP1 SWAP3 POP POP POP SWAP3 SWAP2 POP POP JUMP JUMPDEST PUSH32 0x0 PUSH20 0xFFFFFFFFFFFFFFFFFFFFFFFFFFFFFFFFFFFFFFFF AND CALLER PUSH20 0xFFFFFFFFFFFFFFFFFFFFFFFFFFFFFFFFFFFFFFFF AND EQ PUSH2 0x8BE JUMPI PUSH1 0x40 MLOAD PUSH32 0x8C379A000000000000000000000000000000000000000000000000000000000 DUP2 MSTORE PUSH1 0x4 ADD PUSH2 0x8B5 SWAP1 PUSH2 0x2085 JUMP JUMPDEST PUSH1 0x40 MLOAD DUP1 SWAP2 SUB SWAP1 REVERT JUMPDEST PUSH0 PUSH0 PUSH0 DUP4 PUSH20 0xFFFFFFFFFFFFFFFFFFFFFFFFFFFFFFFFFFFFFFFF AND PUSH20 0xFFFFFFFFFFFFFFFFFFFFFFFFFFFFFFFFFFFFFFFF AND DUP2 MSTORE PUSH1 0x20 ADD SWAP1 DUP2 MSTORE PUSH1 0x20 ADD PUSH0 KECCAK256 PUSH0 PUSH2 0x100 EXP DUP2 SLOAD DUP2 PUSH1 0xFF MUL NOT AND SWAP1 DUP4 ISZERO ISZERO MUL OR SWAP1 SSTORE POP PUSH32 0x7A9F1E23D5426B34819D173153D59084CC3578D5A129B80BB27DF683AC6B2278 DUP2 PUSH1 0x40 MLOAD PUSH2 0x940 SWAP2 SWAP1 PUSH2 0x1868 JUMP JUMPDEST PUSH1 0x40 MLOAD DUP1 SWAP2 SUB SWAP1 LOG1 POP JUMP JUMPDEST PUSH2 0x953 PUSH2 0x1664 JUMP JUMPDEST PUSH1 0x1 DUP1 SLOAD SWAP1 POP DUP3 LT PUSH2 0x99A JUMPI PUSH1 0x40 MLOAD PUSH32 0x8C379A000000000000000000000000000000000000000000000000000000000 DUP2 MSTORE PUSH1 0x4 ADD PUSH2 0x991 SWAP1 PUSH2 0x20ED JUMP JUMPDEST PUSH1 0x40 MLOAD DUP1 SWAP2 SUB SWAP1 REVERT JUMPDEST PUSH1 0x1 DUP3 DUP2 SLOAD DUP2 LT PUSH2 0x9AE JUMPI PUSH2 0x9AD PUSH2 0x200E JUMP JUMPDEST JUMPDEST SWAP1 PUSH0 MSTORE PUSH1 0x20 PUSH0 KECCAK256 SWAP1 PUSH1 0x5 MUL ADD PUSH1 0x40 MLOAD DUP1 PUSH1 0xA0 ADD PUSH1 0x40 MSTORE SWAP1 DUP2 PUSH0 DUP3 ADD PUSH0 SWAP1 SLOAD SWAP1 PUSH2 0x100 EXP SWAP1 DIV PUSH20 0xFFFFFFFFFFFFFFFFFFFFFFFFFFFFFFFFFFFFFFFF AND PUSH20 0xFFFFFFFFFFFFFFFFFFFFFFFFFFFFFFFFFFFFFFFF AND PUSH20 0xFFFFFFFFFFFFFFFFFFFFFFFFFFFFFFFFFFFFFFFF AND DUP2 MSTORE PUSH1 0x20 ADD PUSH1 0x1 DUP3 ADD PUSH0 SWAP1 SLOAD SWAP1 PUSH2 0x100 EXP SWAP1 DIV PUSH20 0xFFFFFFFFFFFFFFFFFFFFFFFFFFFFFFFFFFFFFFFF AND PUSH20 0xFFFFFFFFFFFFFFFFFFFFFFFFFFFFFFFFFFFFFFFF AND PUSH20 0xFFFFFFFFFFFFFFFFFFFFFFFFFFFFFFFFFFFFFFFF AND DUP2 MSTORE PUSH1 0x20 ADD PUSH1 0x2 DUP3 ADD DUP1 SLOAD PUSH2 0xA7E SWAP1 PUSH2 0x1EB6 JUMP JUMPDEST DUP1 PUSH1 0x1F ADD PUSH1 0x20 DUP1 SWAP2 DIV MUL PUSH1 0x20 ADD PUSH1 0x40 MLOAD SWAP1 DUP2 ADD PUSH1 0x40 MSTORE DUP1 SWAP3 SWAP2 SWAP1 DUP2 DUP2 MSTORE PUSH1 0x20 ADD DUP3 DUP1 SLOAD PUSH2 0xAAA SWAP1 PUSH2 0x1EB6 JUMP JUMPDEST DUP1 ISZERO PUSH2 0xAF5 JUMPI DUP1 PUSH1 0x1F LT PUSH2 0xACC JUMPI PUSH2 0x100 DUP1 DUP4 SLOAD DIV MUL DUP4 MSTORE SWAP2 PUSH1 0x20 ADD SWAP2 PUSH2 0xAF5 JUMP JUMPDEST DUP3 ADD SWAP2 SWAP1 PUSH0 MSTORE PUSH1 0x20 PUSH0 KECCAK256 SWAP1 JUMPDEST DUP2 SLOAD DUP2 MSTORE SWAP1 PUSH1 0x1 ADD SWAP1 PUSH1 0x20 ADD DUP1 DUP4 GT PUSH2 0xAD8 JUMPI DUP3 SWAP1 SUB PUSH1 0x1F AND DUP3 ADD SWAP2 JUMPDEST POP POP POP POP POP DUP2 MSTORE PUSH1 0x20 ADD PUSH1 0x3 DUP3 ADD SLOAD DUP2 MSTORE PUSH1 0x20 ADD PUSH1 0x4 DUP3 ADD SLOAD DUP2 MSTORE POP POP SWAP1 POP SWAP2 SWAP1 POP JUMP JUMPDEST PUSH1 0x2 PUSH1 0x20 MSTORE DUP3 PUSH0 MSTORE PUSH1 0x40 PUSH0 KECCAK256 PUSH1 0x20 MSTORE DUP2 PUSH0 MSTORE PUSH1 0x40 PUSH0 KECCAK256 DUP2 DUP2 SLOAD DUP2 LT PUSH2 0xB3C JUMPI PUSH0 DUP1 REVERT JUMPDEST SWAP1 PUSH0 MSTORE PUSH1 0x20 PUSH0 KECCAK256 ADD PUSH0 SWAP3 POP SWAP3 POP POP POP SLOAD DUP2 JUMP JUMPDEST PUSH32 0x0 PUSH20 0xFFFFFFFFFFFFFFFFFFFFFFFFFFFFFFFFFFFFFFFF AND CALLER PUSH20 0xFFFFFFFFFFFFFFFFFFFFFFFFFFFFFFFFFFFFFFFF AND EQ PUSH2 0xBDD JUMPI PUSH1 0x40 MLOAD PUSH32 0x8C379A000000000000000000000000000000000000000000000000000000000 DUP2 MSTORE PUSH1 0x4 ADD PUSH2 0xBD4 SWAP1 PUSH2 0x2085 JUMP JUMPDEST PUSH1 0x40 MLOAD DUP1 SWAP2 SUB SWAP1 REVERT JUMPDEST PUSH1 0x1 PUSH0 PUSH0 DUP4 PUSH20 0xFFFFFFFFFFFFFFFFFFFFFFFFFFFFFFFFFFFFFFFF AND PUSH20 0xFFFFFFFFFFFFFFFFFFFFFFFFFFFFFFFFFFFFFFFF AND DUP2 MSTORE PUSH1 0x20 ADD SWAP1 DUP2 MSTORE PUSH1 0x20 ADD PUSH0 KECCAK256 PUSH0 PUSH2 0x100 EXP DUP2 SLOAD DUP2 PUSH1 0xFF MUL NOT AND SWAP1 DUP4 ISZERO ISZERO MUL OR SWAP1 SSTORE POP PUSH32 0xD378AD41C1A753FD1BA9EC0FCD7970526C175B68545B4A02D6D15E7606FE3596 DUP2 PUSH1 0x40 MLOAD PUSH2 0xC60 SWAP2 SWAP1 PUSH2 0x1868 JUMP JUMPDEST PUSH1 0x40 MLOAD DUP1 SWAP2 SUB SWAP1 LOG1 POP JUMP JUMPDEST PUSH0 PUSH20 0xFFFFFFFFFFFFFFFFFFFFFFFFFFFFFFFFFFFFFFFF AND DUP8 PUSH20 0xFFFFFFFFFFFFFFFFFFFFFFFFFFFFFFFFFFFFFFFF AND SUB PUSH2 0xCD9 JUMPI PUSH1 0x40 MLOAD PUSH32 0x8C379A000000000000000000000000000000000000000000000000000000000 DUP2 MSTORE PUSH1 0x4 ADD PUSH2 0xCD0 SWAP1 PUSH2 0x2155 JUMP JUMPDEST PUSH1 0x40 MLOAD DUP1 SWAP2 SUB SWAP1 REVERT JUMPDEST CALLER PUSH20 0xFFFFFFFFFFFFFFFFFFFFFFFFFFFFFFFFFFFFFFFF AND DUP8 PUSH20 0xFFFFFFFFFFFFFFFFFFFFFFFFFFFFFFFFFFFFFFFF AND SUB PUSH2 0xD47 JUMPI PUSH1 0x40 MLOAD PUSH32 0x8C379A000000000000000000000000000000000000000000000000000000000 DUP2 MSTORE PUSH1 0x4 ADD PUSH2 0xD3E SWAP1 PUSH2 0x21BD JUMP JUMPDEST PUSH1 0x40 MLOAD DUP1 SWAP2 SUB SWAP1 REVERT JUMPDEST PUSH0 DUP7 DUP7 SWAP1 POP GT PUSH2 0xD8C JUMPI PUSH1 0x40 MLOAD PUSH32 0x8C379A000000000000000000000000000000000000000000000000000000000 DUP2 MSTORE PUSH1 0x4 ADD PUSH2 0xD83 SWAP1 PUSH2 0x2225 JUMP JUMPDEST PUSH1 0x40 MLOAD DUP1 SWAP2 SUB SWAP1 REVERT JUMPDEST PUSH0 DUP7 DUP7 PUSH1 0x40 MLOAD PUSH2 0xD9D SWAP3 SWAP2 SWAP1 PUSH2 0x227F JUMP JUMPDEST PUSH1 0x40 MLOAD DUP1 SWAP2 SUB SWAP1 KECCAK256 SWAP1 POP PUSH1 0x3 PUSH0 DUP3 DUP2 MSTORE PUSH1 0x20 ADD SWAP1 DUP2 MSTORE PUSH1 0x20 ADD PUSH0 KECCAK256 PUSH0 SWAP1 SLOAD SWAP1 PUSH2 0x100 EXP SWAP1 DIV PUSH1 0xFF AND ISZERO PUSH2 0xE05 JUMPI PUSH1 0x40 MLOAD PUSH32 0x8C379A000000000000000000000000000000000000000000000000000000000 DUP2 MSTORE PUSH1 0x4 ADD PUSH2 0xDFC SWAP1 PUSH2 0x22E1 JUMP JUMPDEST PUSH1 0x40 MLOAD DUP1 SWAP2 SUB SWAP1 REVERT JUMPDEST PUSH0 CALLER DUP10 PUSH1 0x1 DUP9 PUSH2 0xE15 SWAP2 SWAP1 PUSH2 0x1F7B JUMP JUMPDEST DUP9 CHAINID PUSH1 0x40 MLOAD PUSH1 0x20 ADD PUSH2 0xE2B SWAP6 SWAP5 SWAP4 SWAP3 SWAP2 SWAP1 PUSH2 0x2364 JUMP JUMPDEST PUSH1 0x40 MLOAD PUSH1 0x20 DUP2 DUP4 SUB SUB DUP2 MSTORE SWAP1 PUSH1 0x40 MSTORE DUP1 MLOAD SWAP1 PUSH1 0x20 ADD KECCAK256 SWAP1 POP PUSH0 DUP2 PUSH1 0x40 MLOAD PUSH1 0x20 ADD PUSH2 0xE55 SWAP2 SWAP1 PUSH2 0x2436 JUMP JUMPDEST PUSH1 0x40 MLOAD PUSH1 0x20 DUP2 DUP4 SUB SUB DUP2 MSTORE SWAP1 PUSH1 0x40 MSTORE DUP1 MLOAD SWAP1 PUSH1 0x20 ADD KECCAK256 SWAP1 POP PUSH32 0x0 PUSH20 0xFFFFFFFFFFFFFFFFFFFFFFFFFFFFFFFFFFFFFFFF AND PUSH2 0xEB0 DUP3 DUP9 DUP9 DUP9 PUSH2 0x13ED JUMP JUMPDEST PUSH20 0xFFFFFFFFFFFFFFFFFFFFFFFFFFFFFFFFFFFFFFFF AND EQ PUSH2 0xF06 JUMPI PUSH1 0x40 MLOAD PUSH32 0x8C379A000000000000000000000000000000000000000000000000000000000 DUP2 MSTORE PUSH1 0x4 ADD PUSH2 0xEFD SWAP1 PUSH2 0x24A5 JUMP JUMPDEST PUSH1 0x40 MLOAD DUP1 SWAP2 SUB SWAP1 REVERT JUMPDEST PUSH0 PUSH1 0x1 DUP1 SLOAD SWAP1 POP SWAP1 POP PUSH1 0x1 PUSH1 0x40 MLOAD DUP1 PUSH1 0xA0 ADD PUSH1 0x40 MSTORE DUP1 CALLER PUSH20 0xFFFFFFFFFFFFFFFFFFFFFFFFFFFFFFFFFFFFFFFF AND DUP2 MSTORE PUSH1 0x20 ADD DUP14 PUSH20 0xFFFFFFFFFFFFFFFFFFFFFFFFFFFFFFFFFFFFFFFF AND DUP2 MSTORE PUSH1 0x20 ADD DUP13 DUP13 DUP1 DUP1 PUSH1 0x1F ADD PUSH1 0x20 DUP1 SWAP2 DIV MUL PUSH1 0x20 ADD PUSH1 0x40 MLOAD SWAP1 DUP2 ADD PUSH1 0x40 MSTORE DUP1 SWAP4 SWAP3 SWAP2 SWAP1 DUP2 DUP2 MSTORE PUSH1 0x20 ADD DUP4 DUP4 DUP1 DUP3 DUP5 CALLDATACOPY PUSH0 DUP2 DUP5 ADD MSTORE PUSH1 0x1F NOT PUSH1 0x1F DUP3 ADD AND SWAP1 POP DUP1 DUP4 ADD SWAP3 POP POP POP POP POP POP POP DUP2 MSTORE PUSH1 0x20 ADD DUP7 DUP2 MSTORE PUSH1 0x20 ADD TIMESTAMP DUP2 MSTORE POP SWAP1 DUP1 PUSH1 0x1 DUP2 SLOAD ADD DUP1 DUP3 SSTORE DUP1 SWAP2 POP POP PUSH1 0x1 SWAP1 SUB SWAP1 PUSH0 MSTORE PUSH1 0x20 PUSH0 KECCAK256 SWAP1 PUSH1 0x5 MUL ADD PUSH0 SWAP1 SWAP2 SWAP1 SWAP2 SWAP1 SWAP2 POP PUSH0 DUP3 ADD MLOAD DUP2 PUSH0 ADD PUSH0 PUSH2 0x100 EXP DUP2 SLOAD DUP2 PUSH20 0xFFFFFFFFFFFFFFFFFFFFFFFFFFFFFFFFFFFFFFFF MUL NOT AND SWAP1 DUP4 PUSH20 0xFFFFFFFFFFFFFFFFFFFFFFFFFFFFFFFFFFFFFFFF AND MUL OR SWAP1 SSTORE POP PUSH1 0x20 DUP3 ADD MLOAD DUP2 PUSH1 0x1 ADD PUSH0 PUSH2 0x100 EXP DUP2 SLOAD DUP2 PUSH20 0xFFFFFFFFFFFFFFFFFFFFFFFFFFFFFFFFFFFFFFFF MUL NOT AND SWAP1 DUP4 PUSH20 0xFFFFFFFFFFFFFFFFFFFFFFFFFFFFFFFFFFFFFFFF AND MUL OR SWAP1 SSTORE POP PUSH1 0x40 DUP3 ADD MLOAD DUP2 PUSH1 0x2 ADD SWAP1 DUP2 PUSH2 0x106C SWAP2 SWAP1 PUSH2 0x2663 JUMP JUMPDEST POP PUSH1 0x60 DUP3 ADD MLOAD DUP2 PUSH1 0x3 ADD SSTORE PUSH1 0x80 DUP3 ADD MLOAD DUP2 PUSH1 0x4 ADD SSTORE POP POP PUSH1 0x1 PUSH1 0x3 PUSH0 DUP7 DUP2 MSTORE PUSH1 0x20 ADD SWAP1 DUP2 MSTORE PUSH1 0x20 ADD PUSH0 KECCAK256 PUSH0 PUSH2 0x100 EXP DUP2 SLOAD DUP2 PUSH1 0xFF MUL NOT AND SWAP1 DUP4 ISZERO ISZERO MUL OR SWAP1 SSTORE POP PUSH0 DUP12 PUSH20 0xFFFFFFFFFFFFFFFFFFFFFFFFFFFFFFFFFFFFFFFF AND CALLER PUSH20 0xFFFFFFFFFFFFFFFFFFFFFFFFFFFFFFFFFFFFFFFF AND LT PUSH2 0x10E6 JUMPI DUP12 PUSH2 0x10E8 JUMP JUMPDEST CALLER JUMPDEST SWAP1 POP PUSH0 DUP13 PUSH20 0xFFFFFFFFFFFFFFFFFFFFFFFFFFFFFFFFFFFFFFFF AND CALLER PUSH20 0xFFFFFFFFFFFFFFFFFFFFFFFFFFFFFFFFFFFFFFFF AND LT PUSH2 0x1124 JUMPI CALLER PUSH2 0x1126 JUMP JUMPDEST DUP13 JUMPDEST SWAP1 POP PUSH1 0x2 PUSH0 DUP4 PUSH20 0xFFFFFFFFFFFFFFFFFFFFFFFFFFFFFFFFFFFFFFFF AND PUSH20 0xFFFFFFFFFFFFFFFFFFFFFFFFFFFFFFFFFFFFFFFF AND DUP2 MSTORE PUSH1 0x20 ADD SWAP1 DUP2 MSTORE PUSH1 0x20 ADD PUSH0 KECCAK256 PUSH0 DUP3 PUSH20 0xFFFFFFFFFFFFFFFFFFFFFFFFFFFFFFFFFFFFFFFF AND PUSH20 0xFFFFFFFFFFFFFFFFFFFFFFFFFFFFFFFFFFFFFFFF AND DUP2 MSTORE PUSH1 0x20 ADD SWAP1 DUP2 MSTORE PUSH1 0x20 ADD PUSH0 KECCAK256 DUP4 SWAP1 DUP1 PUSH1 0x1 DUP2 SLOAD ADD DUP1 DUP3 SSTORE DUP1 SWAP2 POP POP PUSH1 0x1 SWAP1 SUB SWAP1 PUSH0 MSTORE PUSH1 0x20 PUSH0 KECCAK256 ADD PUSH0 SWAP1 SWAP2 SWAP1 SWAP2 SWAP1 SWAP2 POP SSTORE DUP13 PUSH20 0xFFFFFFFFFFFFFFFFFFFFFFFFFFFFFFFFFFFFFFFF AND CALLER PUSH20 0xFFFFFFFFFFFFFFFFFFFFFFFFFFFFFFFFFFFFFFFF AND DUP5 PUSH32 0xA31DAF30511E6725FB3C47FD2430533BF3EAD03BAB987E3ACC8746C041FFEAFC DUP10 TIMESTAMP PUSH1 0x40 MLOAD PUSH2 0x1224 SWAP3 SWAP2 SWAP1 PUSH2 0x2732 JUMP JUMPDEST PUSH1 0x40 MLOAD DUP1 SWAP2 SUB SWAP1 LOG4 POP POP POP POP POP POP POP POP POP POP POP POP POP JUMP JUMPDEST PUSH32 0x0 PUSH20 0xFFFFFFFFFFFFFFFFFFFFFFFFFFFFFFFFFFFFFFFF AND CALLER PUSH20 0xFFFFFFFFFFFFFFFFFFFFFFFFFFFFFFFFFFFFFFFF AND EQ DUP1 PUSH2 0x12DA JUMPI POP PUSH0 PUSH0 CALLER PUSH20 0xFFFFFFFFFFFFFFFFFFFFFFFFFFFFFFFFFFFFFFFF AND PUSH20 0xFFFFFFFFFFFFFFFFFFFFFFFFFFFFFFFFFFFFFFFF AND DUP2 MSTORE PUSH1 0x20 ADD SWAP1 DUP2 MSTORE PUSH1 0x20 ADD PUSH0 KECCAK256 PUSH0 SWAP1 SLOAD SWAP1 PUSH2 0x100 EXP SWAP1 DIV PUSH1 0xFF AND JUMPDEST PUSH2 0x1319 JUMPI PUSH1 0x40 MLOAD PUSH32 0x8C379A000000000000000000000000000000000000000000000000000000000 DUP2 MSTORE PUSH1 0x4 ADD PUSH2 0x1310 SWAP1 PUSH2 0x27A3 JUMP JUMPDEST PUSH1 0x40 MLOAD DUP1 SWAP2 SUB SWAP1 REVERT JUMPDEST PUSH1 0x1 DUP1 SLOAD SWAP1 POP DUP2 LT PUSH2 0x1360 JUMPI PUSH1 0x40 MLOAD PUSH32 0x8C379A000000000000000000000000000000000000000000000000000000000 DUP2 MSTORE PUSH1 0x4 ADD PUSH2 0x1357 SWAP1 PUSH2 0x280B JUMP JUMPDEST PUSH1 0x40 MLOAD DUP1 SWAP2 SUB SWAP1 REVERT JUMPDEST DUP1 PUSH32 0x41F050218F501B0BBE717EA041E936C84C22520FCED275B84E264991E996A4EA PUSH1 0x40 MLOAD PUSH1 0x40 MLOAD DUP1 SWAP2 SUB SWAP1 LOG2 POP JUMP JUMPDEST PUSH32 0x0 DUP2 JUMP JUMPDEST PUSH0 PUSH1 0x20 MSTORE DUP1 PUSH0 MSTORE PUSH1 0x40 PUSH0 KECCAK256 PUSH0 SWAP2 POP SLOAD SWAP1 PUSH2 0x100 EXP SWAP1 DIV PUSH1 0xFF AND DUP2 JUMP JUMPDEST PUSH1 0x3 PUSH1 0x20 MSTORE DUP1 PUSH0 MSTORE PUSH1 0x40 PUSH0 KECCAK256 PUSH0 SWAP2 POP SLOAD SWAP1 PUSH2 0x100 EXP SWAP1 DIV PUSH1 0xFF AND DUP2 JUMP JUMPDEST PUSH0 PUSH0 PUSH0 PUSH0 PUSH2 0x13FD DUP9 DUP9 DUP9 DUP9 PUSH2 0x141B JUMP JUMPDEST SWAP3 POP SWAP3 POP SWAP3 POP PUSH2 0x140D DUP3 DUP3 PUSH2 0x1502 JUMP JUMPDEST DUP3 SWAP4 POP POP POP POP SWAP5 SWAP4 POP POP POP POP JUMP JUMPDEST PUSH0 PUSH0 PUSH0 PUSH32 0x7FFFFFFFFFFFFFFFFFFFFFFFFFFFFFFF5D576E7357A4501DDFE92F46681B20A0 DUP5 PUSH0 SHR GT ISZERO PUSH2 0x1457 JUMPI PUSH0 PUSH1 0x3 DUP6 SWAP3 POP SWAP3 POP SWAP3 POP PUSH2 0x14F8 JUMP JUMPDEST PUSH0 PUSH1 0x1 DUP9 DUP9 DUP9 DUP9 PUSH1 0x40 MLOAD PUSH0 DUP2 MSTORE PUSH1 0x20 ADD PUSH1 0x40 MSTORE PUSH1 0x40 MLOAD PUSH2 0x147A SWAP5 SWAP4 SWAP3 SWAP2 SWAP1 PUSH2 0x2838 JUMP JUMPDEST PUSH1 0x20 PUSH1 0x40 MLOAD PUSH1 0x20 DUP2 SUB SWAP1 DUP1 DUP5 SUB SWAP1 DUP6 GAS STATICCALL ISZERO DUP1 ISZERO PUSH2 0x149A JUMPI RETURNDATASIZE PUSH0 PUSH0 RETURNDATACOPY RETURNDATASIZE PUSH0 REVERT JUMPDEST POP POP POP PUSH1 0x20 PUSH1 0x40 MLOAD SUB MLOAD SWAP1 POP PUSH0 PUSH20 0xFFFFFFFFFFFFFFFFFFFFFFFFFFFFFFFFFFFFFFFF AND DUP2 PUSH20 0xFFFFFFFFFFFFFFFFFFFFFFFFFFFFFFFFFFFFFFFF AND SUB PUSH2 0x14EB JUMPI PUSH0 PUSH1 0x1 PUSH0 PUSH0 SHL SWAP4 POP SWAP4 POP SWAP4 POP POP PUSH2 0x14F8 JUMP JUMPDEST DUP1 PUSH0 PUSH0 PUSH0 SHL SWAP4 POP SWAP4 POP SWAP4 POP POP JUMPDEST SWAP5 POP SWAP5 POP SWAP5 SWAP2 POP POP JUMP JUMPDEST PUSH0 PUSH1 0x3 DUP2 GT ISZERO PUSH2 0x1515 JUMPI PUSH2 0x1514 PUSH2 0x287B JUMP JUMPDEST JUMPDEST DUP3 PUSH1 0x3 DUP2 GT ISZERO PUSH2 0x1528 JUMPI PUSH2 0x1527 PUSH2 0x287B JUMP JUMPDEST JUMPDEST SUB ISZERO PUSH2 0x1660 JUMPI PUSH1 0x1 PUSH1 0x3 DUP2 GT ISZERO PUSH2 0x1542 JUMPI PUSH2 0x1541 PUSH2 0x287B JUMP JUMPDEST JUMPDEST DUP3 PUSH1 0x3 DUP2 GT ISZERO PUSH2 0x1555 JUMPI PUSH2 0x1554 PUSH2 0x287B JUMP JUMPDEST JUMPDEST SUB PUSH2 0x158C JUMPI PUSH1 0x40 MLOAD PUSH32 0xF645EEDF00000000000000000000000000000000000000000000000000000000 DUP2 MSTORE PUSH1 0x4 ADD PUSH1 0x40 MLOAD DUP1 SWAP2 SUB SWAP1 REVERT JUMPDEST PUSH1 0x2 PUSH1 0x3 DUP2 GT ISZERO PUSH2 0x15A0 JUMPI PUSH2 0x159F PUSH2 0x287B JUMP JUMPDEST JUMPDEST DUP3 PUSH1 0x3 DUP2 GT ISZERO PUSH2 0x15B3 JUMPI PUSH2 0x15B2 PUSH2 0x287B JUMP JUMPDEST JUMPDEST SUB PUSH2 0x15F7 JUMPI DUP1 PUSH0 SHR PUSH1 0x40 MLOAD PUSH32 0xFCE698F700000000000000000000000000000000000000000000000000000000 DUP2 MSTORE PUSH1 0x4 ADD PUSH2 0x15EE SWAP2 SWAP1 PUSH2 0x184F JUMP JUMPDEST PUSH1 0x40 MLOAD DUP1 SWAP2 SUB SWAP1 REVERT JUMPDEST PUSH1 0x3 DUP1 DUP2 GT ISZERO PUSH2 0x160A JUMPI PUSH2 0x1609 PUSH2 0x287B JUMP JUMPDEST JUMPDEST DUP3 PUSH1 0x3 DUP2 GT ISZERO PUSH2 0x161D JUMPI PUSH2 0x161C PUSH2 0x287B JUMP JUMPDEST JUMPDEST SUB PUSH2 0x165F JUMPI DUP1 PUSH1 0x40 MLOAD PUSH32 0xD78BCE0C00000000000000000000000000000000000000000000000000000000 DUP2 MSTORE PUSH1 0x4 ADD PUSH2 0x1656 SWAP2 SWAP1 PUSH2 0x28A8 JUMP JUMPDEST PUSH1 0x40 MLOAD DUP1 SWAP2 SUB SWAP1 REVERT JUMPDEST JUMPDEST POP POP JUMP JUMPDEST PUSH1 0x40 MLOAD DUP1 PUSH1 0xA0 ADD PUSH1 0x40 MSTORE DUP1 PUSH0 PUSH20 0xFFFFFFFFFFFFFFFFFFFFFFFFFFFFFFFFFFFFFFFF AND DUP2 MSTORE PUSH1 0x20 ADD PUSH0 PUSH20 0xFFFFFFFFFFFFFFFFFFFFFFFFFFFFFFFFFFFFFFFF AND DUP2 MSTORE PUSH1 0x20 ADD PUSH1 0x60 DUP2 MSTORE PUSH1 0x20 ADD PUSH0 DUP2 MSTORE PUSH1 0x20 ADD PUSH0 DUP2 MSTORE POP SWAP1 JUMP JUMPDEST PUSH0 PUSH0 REVERT JUMPDEST PUSH0 PUSH0 REVERT JUMPDEST PUSH0 DUP2 SWAP1 POP SWAP2 SWAP1 POP JUMP JUMPDEST PUSH2 0x16D5 DUP2 PUSH2 0x16C3 JUMP JUMPDEST DUP2 EQ PUSH2 0x16DF JUMPI PUSH0 PUSH0 REVERT JUMPDEST POP JUMP JUMPDEST PUSH0 DUP2 CALLDATALOAD SWAP1 POP PUSH2 0x16F0 DUP2 PUSH2 0x16CC JUMP JUMPDEST SWAP3 SWAP2 POP POP JUMP JUMPDEST PUSH0 PUSH1 0x20 DUP3 DUP5 SUB SLT ISZERO PUSH2 0x170B JUMPI PUSH2 0x170A PUSH2 0x16BB JUMP JUMPDEST JUMPDEST PUSH0 PUSH2 0x1718 DUP5 DUP3 DUP6 ADD PUSH2 0x16E2 JUMP JUMPDEST SWAP2 POP POP SWAP3 SWAP2 POP POP JUMP JUMPDEST PUSH0 PUSH20 0xFFFFFFFFFFFFFFFFFFFFFFFFFFFFFFFFFFFFFFFF DUP3 AND SWAP1 POP SWAP2 SWAP1 POP JUMP JUMPDEST PUSH0 PUSH2 0x174A DUP3 PUSH2 0x1721 JUMP JUMPDEST SWAP1 POP SWAP2 SWAP1 POP JUMP JUMPDEST PUSH2 0x175A DUP2 PUSH2 0x1740 JUMP JUMPDEST DUP3 MSTORE POP POP JUMP JUMPDEST PUSH0 DUP2 MLOAD SWAP1 POP SWAP2 SWAP1 POP JUMP JUMPDEST PUSH0 DUP3 DUP3 MSTORE PUSH1 0x20 DUP3 ADD SWAP1 POP SWAP3 SWAP2 POP POP JUMP JUMPDEST DUP3 DUP2 DUP4 MCOPY PUSH0 DUP4 DUP4 ADD MSTORE POP POP POP JUMP JUMPDEST PUSH0 PUSH1 0x1F NOT PUSH1 0x1F DUP4 ADD AND SWAP1 POP SWAP2 SWAP1 POP JUMP JUMPDEST PUSH0 PUSH2 0x17A2 DUP3 PUSH2 0x1760 JUMP JUMPDEST PUSH2 0x17AC DUP2 DUP6 PUSH2 0x176A JUMP JUMPDEST SWAP4 POP PUSH2 0x17BC DUP2 DUP6 PUSH1 0x20 DUP7 ADD PUSH2 0x177A JUMP JUMPDEST PUSH2 0x17C5 DUP2 PUSH2 0x1788 JUMP JUMPDEST DUP5 ADD SWAP2 POP POP SWAP3 SWAP2 POP POP JUMP JUMPDEST PUSH0 DUP2 SWAP1 POP SWAP2 SWAP1 POP JUMP JUMPDEST PUSH2 0x17E2 DUP2 PUSH2 0x17D0 JUMP JUMPDEST DUP3 MSTORE POP POP JUMP JUMPDEST PUSH2 0x17F1 DUP2 PUSH2 0x16C3 JUMP JUMPDEST DUP3 MSTORE POP POP JUMP JUMPDEST PUSH0 PUSH1 0xA0 DUP3 ADD SWAP1 POP PUSH2 0x180A PUSH0 DUP4 ADD DUP9 PUSH2 0x1751 JUMP JUMPDEST PUSH2 0x1817 PUSH1 0x20 DUP4 ADD DUP8 PUSH2 0x1751 JUMP JUMPDEST DUP2 DUP2 SUB PUSH1 0x40 DUP4 ADD MSTORE PUSH2 0x1829 DUP2 DUP7 PUSH2 0x1798 JUMP JUMPDEST SWAP1 POP PUSH2 0x1838 PUSH1 0x60 DUP4 ADD DUP6 PUSH2 0x17D9 JUMP JUMPDEST PUSH2 0x1845 PUSH1 0x80 DUP4 ADD DUP5 PUSH2 0x17E8 JUMP JUMPDEST SWAP7 SWAP6 POP POP POP POP POP POP JUMP JUMPDEST PUSH0 PUSH1 0x20 DUP3 ADD SWAP1 POP PUSH2 0x1862 PUSH0 DUP4 ADD DUP5 PUSH2 0x17E8 JUMP JUMPDEST SWAP3 SWAP2 POP POP JUMP JUMPDEST PUSH0 PUSH1 0x20 DUP3 ADD SWAP1 POP PUSH2 0x187B PUSH0 DUP4 ADD DUP5 PUSH2 0x1751 JUMP JUMPDEST SWAP3 SWAP2 POP POP JUMP JUMPDEST PUSH2 0x188A DUP2 PUSH2 0x1740 JUMP JUMPDEST DUP2 EQ PUSH2 0x1894 JUMPI PUSH0 PUSH0 REVERT JUMPDEST POP JUMP JUMPDEST PUSH0 DUP2 CALLDATALOAD SWAP1 POP PUSH2 0x18A5 DUP2 PUSH2 0x1881 JUMP JUMPDEST SWAP3 SWAP2 POP POP JUMP JUMPDEST PUSH0 PUSH0 PUSH1 0x40 DUP4 DUP6 SUB SLT ISZERO PUSH2 0x18C1 JUMPI PUSH2 0x18C0 PUSH2 0x16BB JUMP JUMPDEST JUMPDEST PUSH0 PUSH2 0x18CE DUP6 DUP3 DUP7 ADD PUSH2 0x1897 JUMP JUMPDEST SWAP3 POP POP PUSH1 0x20 PUSH2 0x18DF DUP6 DUP3 DUP7 ADD PUSH2 0x1897 JUMP JUMPDEST SWAP2 POP POP SWAP3 POP SWAP3 SWAP1 POP JUMP JUMPDEST PUSH0 DUP2 MLOAD SWAP1 POP SWAP2 SWAP1 POP JUMP JUMPDEST PUSH0 DUP3 DUP3 MSTORE PUSH1 0x20 DUP3 ADD SWAP1 POP SWAP3 SWAP2 POP POP JUMP JUMPDEST PUSH0 DUP2 SWAP1 POP PUSH1 0x20 DUP3 ADD SWAP1 POP SWAP2 SWAP1 POP JUMP JUMPDEST PUSH2 0x191B DUP2 PUSH2 0x16C3 JUMP JUMPDEST DUP3 MSTORE POP POP JUMP JUMPDEST PUSH0 PUSH2 0x192C DUP4 DUP4 PUSH2 0x1912 JUMP JUMPDEST PUSH1 0x20 DUP4 ADD SWAP1 POP SWAP3 SWAP2 POP POP JUMP JUMPDEST PUSH0 PUSH1 0x20 DUP3 ADD SWAP1 POP SWAP2 SWAP1 POP JUMP JUMPDEST PUSH0 PUSH2 0x194E DUP3 PUSH2 0x18E9 JUMP JUMPDEST PUSH2 0x1958 DUP2 DUP6 PUSH2 0x18F3 JUMP JUMPDEST SWAP4 POP PUSH2 0x1963 DUP4 PUSH2 0x1903 JUMP JUMPDEST DUP1 PUSH0 JUMPDEST DUP4 DUP2 LT ISZERO PUSH2 0x1993 JUMPI DUP2 MLOAD PUSH2 0x197A DUP9 DUP3 PUSH2 0x1921 JUMP JUMPDEST SWAP8 POP PUSH2 0x1985 DUP4 PUSH2 0x1938 JUMP JUMPDEST SWAP3 POP POP PUSH1 0x1 DUP2 ADD SWAP1 POP PUSH2 0x1966 JUMP JUMPDEST POP DUP6 SWAP4 POP POP POP POP SWAP3 SWAP2 POP POP JUMP JUMPDEST PUSH0 PUSH1 0x20 DUP3 ADD SWAP1 POP DUP2 DUP2 SUB PUSH0 DUP4 ADD MSTORE PUSH2 0x19B8 DUP2 DUP5 PUSH2 0x1944 JUMP JUMPDEST SWAP1 POP SWAP3 SWAP2 POP POP JUMP JUMPDEST PUSH0 PUSH0 PUSH1 0x40 DUP4 DUP6 SUB SLT ISZERO PUSH2 0x19D6 JUMPI PUSH2 0x19D5 PUSH2 0x16BB JUMP JUMPDEST JUMPDEST PUSH0 PUSH2 0x19E3 DUP6 DUP3 DUP7 ADD PUSH2 0x16E2 JUMP JUMPDEST SWAP3 POP POP PUSH1 0x20 PUSH2 0x19F4 DUP6 DUP3 DUP7 ADD PUSH2 0x16E2 JUMP JUMPDEST SWAP2 POP POP SWAP3 POP SWAP3 SWAP1 POP JUMP JUMPDEST PUSH0 DUP2 MLOAD SWAP1 POP SWAP2 SWAP1 POP JUMP JUMPDEST PUSH0 DUP3 DUP3 MSTORE PUSH1 0x20 DUP3 ADD SWAP1 POP SWAP3 SWAP2 POP POP JUMP JUMPDEST PUSH0 DUP2 SWAP1 POP PUSH1 0x20 DUP3 ADD SWAP1 POP SWAP2 SWAP1 POP JUMP JUMPDEST PUSH2 0x1A30 DUP2 PUSH2 0x1740 JUMP JUMPDEST DUP3 MSTORE POP POP JUMP JUMPDEST PUSH0 DUP3 DUP3 MSTORE PUSH1 0x20 DUP3 ADD SWAP1 POP SWAP3 SWAP2 POP POP JUMP JUMPDEST PUSH0 PUSH2 0x1A50 DUP3 PUSH2 0x1760 JUMP JUMPDEST PUSH2 0x1A5A DUP2 DUP6 PUSH2 0x1A36 JUMP JUMPDEST SWAP4 POP PUSH2 0x1A6A DUP2 DUP6 PUSH1 0x20 DUP7 ADD PUSH2 0x177A JUMP JUMPDEST PUSH2 0x1A73 DUP2 PUSH2 0x1788 JUMP JUMPDEST DUP5 ADD SWAP2 POP POP SWAP3 SWAP2 POP POP JUMP JUMPDEST PUSH2 0x1A87 DUP2 PUSH2 0x17D0 JUMP JUMPDEST DUP3 MSTORE POP POP JUMP JUMPDEST PUSH0 PUSH1 0xA0 DUP4 ADD PUSH0 DUP4 ADD MLOAD PUSH2 0x1AA2 PUSH0 DUP7 ADD DUP3 PUSH2 0x1A27 JUMP JUMPDEST POP PUSH1 0x20 DUP4 ADD MLOAD PUSH2 0x1AB5 PUSH1 0x20 DUP7 ADD DUP3 PUSH2 0x1A27 JUMP JUMPDEST POP PUSH1 0x40 DUP4 ADD MLOAD DUP5 DUP3 SUB PUSH1 0x40 DUP7 ADD MSTORE PUSH2 0x1ACD DUP3 DUP3 PUSH2 0x1A46 JUMP JUMPDEST SWAP2 POP POP PUSH1 0x60 DUP4 ADD MLOAD PUSH2 0x1AE2 PUSH1 0x60 DUP7 ADD DUP3 PUSH2 0x1A7E JUMP JUMPDEST POP PUSH1 0x80 DUP4 ADD MLOAD PUSH2 0x1AF5 PUSH1 0x80 DUP7 ADD DUP3 PUSH2 0x1912 JUMP JUMPDEST POP DUP1 SWAP2 POP POP SWAP3 SWAP2 POP POP JUMP JUMPDEST PUSH0 PUSH2 0x1B0B DUP4 DUP4 PUSH2 0x1A8D JUMP JUMPDEST SWAP1 POP SWAP3 SWAP2 POP POP JUMP JUMPDEST PUSH0 PUSH1 0x20 DUP3 ADD SWAP1 POP SWAP2 SWAP1 POP JUMP JUMPDEST PUSH0 PUSH2 0x1B29 DUP3 PUSH2 0x19FE JUMP JUMPDEST PUSH2 0x1B33 DUP2 DUP6 PUSH2 0x1A08 JUMP JUMPDEST SWAP4 POP DUP4 PUSH1 0x20 DUP3 MUL DUP6 ADD PUSH2 0x1B45 DUP6 PUSH2 0x1A18 JUMP JUMPDEST DUP1 PUSH0 JUMPDEST DUP6 DUP2 LT ISZERO PUSH2 0x1B80 JUMPI DUP5 DUP5 SUB DUP10 MSTORE DUP2 MLOAD PUSH2 0x1B61 DUP6 DUP3 PUSH2 0x1B00 JUMP JUMPDEST SWAP5 POP PUSH2 0x1B6C DUP4 PUSH2 0x1B13 JUMP JUMPDEST SWAP3 POP PUSH1 0x20 DUP11 ADD SWAP10 POP POP PUSH1 0x1 DUP2 ADD SWAP1 POP PUSH2 0x1B48 JUMP JUMPDEST POP DUP3 SWAP8 POP DUP8 SWAP6 POP POP POP POP POP POP SWAP3 SWAP2 POP POP JUMP JUMPDEST PUSH0 PUSH1 0x20 DUP3 ADD SWAP1 POP DUP2 DUP2 SUB PUSH0 DUP4 ADD MSTORE PUSH2 0x1BAA DUP2 DUP5 PUSH2 0x1B1F JUMP JUMPDEST SWAP1 POP SWAP3 SWAP2 POP POP JUMP JUMPDEST PUSH0 PUSH1 0x20 DUP3 DUP5 SUB SLT ISZERO PUSH2 0x1BC7 JUMPI PUSH2 0x1BC6 PUSH2 0x16BB JUMP JUMPDEST JUMPDEST PUSH0 PUSH2 0x1BD4 DUP5 DUP3 DUP6 ADD PUSH2 0x1897 JUMP JUMPDEST SWAP2 POP POP SWAP3 SWAP2 POP POP JUMP JUMPDEST PUSH0 PUSH1 0xA0 DUP4 ADD PUSH0 DUP4 ADD MLOAD PUSH2 0x1BF2 PUSH0 DUP7 ADD DUP3 PUSH2 0x1A27 JUMP JUMPDEST POP PUSH1 0x20 DUP4 ADD MLOAD PUSH2 0x1C05 PUSH1 0x20 DUP7 ADD DUP3 PUSH2 0x1A27 JUMP JUMPDEST POP PUSH1 0x40 DUP4 ADD MLOAD DUP5 DUP3 SUB PUSH1 0x40 DUP7 ADD MSTORE PUSH2 0x1C1D DUP3 DUP3 PUSH2 0x1A46 JUMP JUMPDEST SWAP2 POP POP PUSH1 0x60 DUP4 ADD MLOAD PUSH2 0x1C32 PUSH1 0x60 DUP7 ADD DUP3 PUSH2 0x1A7E JUMP JUMPDEST POP PUSH1 0x80 DUP4 ADD MLOAD PUSH2 0x1C45 PUSH1 0x80 DUP7 ADD DUP3 PUSH2 0x1912 JUMP JUMPDEST POP DUP1 SWAP2 POP POP SWAP3 SWAP2 POP POP JUMP JUMPDEST PUSH0 PUSH1 0x20 DUP3 ADD SWAP1 POP DUP2 DUP2 SUB PUSH0 DUP4 ADD MSTORE PUSH2 0x1C68 DUP2 DUP5 PUSH2 0x1BDD JUMP JUMPDEST SWAP1 POP SWAP3 SWAP2 POP POP JUMP JUMPDEST PUSH0 PUSH0 PUSH0 PUSH1 0x60 DUP5 DUP7 SUB SLT ISZERO PUSH2 0x1C87 JUMPI PUSH2 0x1C86 PUSH2 0x16BB JUMP JUMPDEST JUMPDEST PUSH0 PUSH2 0x1C94 DUP7 DUP3 DUP8 ADD PUSH2 0x1897 JUMP JUMPDEST SWAP4 POP POP PUSH1 0x20 PUSH2 0x1CA5 DUP7 DUP3 DUP8 ADD PUSH2 0x1897 JUMP JUMPDEST SWAP3 POP POP PUSH1 0x40 PUSH2 0x1CB6 DUP7 DUP3 DUP8 ADD PUSH2 0x16E2 JUMP JUMPDEST SWAP2 POP POP SWAP3 POP SWAP3 POP SWAP3 JUMP JUMPDEST PUSH0 PUSH0 REVERT JUMPDEST PUSH0 PUSH0 REVERT JUMPDEST PUSH0 PUSH0 REVERT JUMPDEST PUSH0 PUSH0 DUP4 PUSH1 0x1F DUP5 ADD SLT PUSH2 0x1CE1 JUMPI PUSH2 0x1CE0 PUSH2 0x1CC0 JUMP JUMPDEST JUMPDEST DUP3 CALLDATALOAD SWAP1 POP PUSH8 0xFFFFFFFFFFFFFFFF DUP2 GT ISZERO PUSH2 0x1CFE JUMPI PUSH2 0x1CFD PUSH2 0x1CC4 JUMP JUMPDEST JUMPDEST PUSH1 0x20 DUP4 ADD SWAP2 POP DUP4 PUSH1 0x1 DUP3 MUL DUP4 ADD GT ISZERO PUSH2 0x1D1A JUMPI PUSH2 0x1D19 PUSH2 0x1CC8 JUMP JUMPDEST JUMPDEST SWAP3 POP SWAP3 SWAP1 POP JUMP JUMPDEST PUSH0 PUSH1 0xFF DUP3 AND SWAP1 POP SWAP2 SWAP1 POP JUMP JUMPDEST PUSH2 0x1D36 DUP2 PUSH2 0x1D21 JUMP JUMPDEST DUP2 EQ PUSH2 0x1D40 JUMPI PUSH0 PUSH0 REVERT JUMPDEST POP JUMP JUMPDEST PUSH0 DUP2 CALLDATALOAD SWAP1 POP PUSH2 0x1D51 DUP2 PUSH2 0x1D2D JUMP JUMPDEST SWAP3 SWAP2 POP POP JUMP JUMPDEST PUSH2 0x1D60 DUP2 PUSH2 0x17D0 JUMP JUMPDEST DUP2 EQ PUSH2 0x1D6A JUMPI PUSH0 PUSH0 REVERT JUMPDEST POP JUMP JUMPDEST PUSH0 DUP2 CALLDATALOAD SWAP1 POP PUSH2 0x1D7B DUP2 PUSH2 0x1D57 JUMP JUMPDEST SWAP3 SWAP2 POP POP JUMP JUMPDEST PUSH0 PUSH0 PUSH0 PUSH0 PUSH0 PUSH0 PUSH0 PUSH1 0xC0 DUP9 DUP11 SUB SLT ISZERO PUSH2 0x1D9C JUMPI PUSH2 0x1D9B PUSH2 0x16BB JUMP JUMPDEST JUMPDEST PUSH0 PUSH2 0x1DA9 DUP11 DUP3 DUP12 ADD PUSH2 0x1897 JUMP JUMPDEST SWAP8 POP POP PUSH1 0x20 DUP9 ADD CALLDATALOAD PUSH8 0xFFFFFFFFFFFFFFFF DUP2 GT ISZERO PUSH2 0x1DCA JUMPI PUSH2 0x1DC9 PUSH2 0x16BF JUMP JUMPDEST JUMPDEST PUSH2 0x1DD6 DUP11 DUP3 DUP12 ADD PUSH2 0x1CCC JUMP JUMPDEST SWAP7 POP SWAP7 POP POP PUSH1 0x40 PUSH2 0x1DE9 DUP11 DUP3 DUP12 ADD PUSH2 0x16E2 JUMP JUMPDEST SWAP5 POP POP PUSH1 0x60 PUSH2 0x1DFA DUP11 DUP3 DUP12 ADD PUSH2 0x1D43 JUMP JUMPDEST SWAP4 POP POP PUSH1 0x80 PUSH2 0x1E0B DUP11 DUP3 DUP12 ADD PUSH2 0x1D6D JUMP JUMPDEST SWAP3 POP POP PUSH1 0xA0 PUSH2 0x1E1C DUP11 DUP3 DUP12 ADD PUSH2 0x1D6D JUMP JUMPDEST SWAP2 POP POP SWAP3 SWAP6 SWAP9 SWAP2 SWAP5 SWAP8 POP SWAP3 SWAP6 POP JUMP JUMPDEST PUSH0 DUP2 ISZERO ISZERO SWAP1 POP SWAP2 SWAP1 POP JUMP JUMPDEST PUSH2 0x1E3F DUP2 PUSH2 0x1E2B JUMP JUMPDEST DUP3 MSTORE POP POP JUMP JUMPDEST PUSH0 PUSH1 0x20 DUP3 ADD SWAP1 POP PUSH2 0x1E58 PUSH0 DUP4 ADD DUP5 PUSH2 0x1E36 JUMP JUMPDEST SWAP3 SWAP2 POP POP JUMP JUMPDEST PUSH0 PUSH1 0x20 DUP3 DUP5 SUB SLT ISZERO PUSH2 0x1E73 JUMPI PUSH2 0x1E72 PUSH2 0x16BB JUMP JUMPDEST JUMPDEST PUSH0 PUSH2 0x1E80 DUP5 DUP3 DUP6 ADD PUSH2 0x1D6D JUMP JUMPDEST SWAP2 POP POP SWAP3 SWAP2 POP POP JUMP JUMPDEST PUSH32 0x4E487B7100000000000000000000000000000000000000000000000000000000 PUSH0 MSTORE PUSH1 0x22 PUSH1 0x4 MSTORE PUSH1 0x24 PUSH0 REVERT JUMPDEST PUSH0 PUSH1 0x2 DUP3 DIV SWAP1 POP PUSH1 0x1 DUP3 AND DUP1 PUSH2 0x1ECD JUMPI PUSH1 0x7F DUP3 AND SWAP2 POP JUMPDEST PUSH1 0x20 DUP3 LT DUP2 SUB PUSH2 0x1EE0 JUMPI PUSH2 0x1EDF PUSH2 0x1E89 JUMP JUMPDEST JUMPDEST POP SWAP2 SWAP1 POP JUMP JUMPDEST PUSH32 0x5374617274206F7574206F6620626F756E647300000000000000000000000000 PUSH0 DUP3 ADD MSTORE POP JUMP JUMPDEST PUSH0 PUSH2 0x1F1A PUSH1 0x13 DUP4 PUSH2 0x176A JUMP JUMPDEST SWAP2 POP PUSH2 0x1F25 DUP3 PUSH2 0x1EE6 JUMP JUMPDEST PUSH1 0x20 DUP3 ADD SWAP1 POP SWAP2 SWAP1 POP JUMP JUMPDEST PUSH0 PUSH1 0x20 DUP3 ADD SWAP1 POP DUP2 DUP2 SUB PUSH0 DUP4 ADD MSTORE PUSH2 0x1F47 DUP2 PUSH2 0x1F0E JUMP JUMPDEST SWAP1 POP SWAP2 SWAP1 POP JUMP JUMPDEST PUSH32 0x4E487B7100000000000000000000000000000000000000000000000000000000 PUSH0 MSTORE PUSH1 0x11 PUSH1 0x4 MSTORE PUSH1 0x24 PUSH0 REVERT JUMPDEST PUSH0 PUSH2 0x1F85 DUP3 PUSH2 0x16C3 JUMP JUMPDEST SWAP2 POP PUSH2 0x1F90 DUP4 PUSH2 0x16C3 JUMP JUMPDEST SWAP3 POP DUP3 DUP3 ADD SWAP1 POP DUP1 DUP3 GT ISZERO PUSH2 0x1FA8 JUMPI PUSH2 0x1FA7 PUSH2 0x1F4E JUMP JUMPDEST JUMPDEST SWAP3 SWAP2 POP POP JUMP JUMPDEST PUSH0 PUSH2 0x1FB8 DUP3 PUSH2 0x16C3 JUMP JUMPDEST SWAP2 POP PUSH2 0x1FC3 DUP4 PUSH2 0x16C3 JUMP JUMPDEST SWAP3 POP DUP3 DUP3 SUB SWAP1 POP DUP2 DUP2 GT ISZERO PUSH2 0x1FDB JUMPI PUSH2 0x1FDA PUSH2 0x1F4E JUMP JUMPDEST JUMPDEST SWAP3 SWAP2 POP POP JUMP JUMPDEST PUSH32 0x4E487B7100000000000000000000000000000000000000000000000000000000 PUSH0 MSTORE PUSH1 0x41 PUSH1 0x4 MSTORE PUSH1 0x24 PUSH0 REVERT JUMPDEST PUSH32 0x4E487B7100000000000000000000000000000000000000000000000000000000 PUSH0 MSTORE PUSH1 0x32 PUSH1 0x4 MSTORE PUSH1 0x24 PUSH0 REVERT JUMPDEST PUSH32 0x4E6F742061646D696E0000000000000000000000000000000000000000000000 PUSH0 DUP3 ADD MSTORE POP JUMP JUMPDEST PUSH0 PUSH2 0x206F PUSH1 0x9 DUP4 PUSH2 0x176A JUMP JUMPDEST SWAP2 POP PUSH2 0x207A DUP3 PUSH2 0x203B JUMP JUMPDEST PUSH1 0x20 DUP3 ADD SWAP1 POP SWAP2 SWAP1 POP JUMP JUMPDEST PUSH0 PUSH1 0x20 DUP3 ADD SWAP1 POP DUP2 DUP2 SUB PUSH0 DUP4 ADD MSTORE PUSH2 0x209C DUP2 PUSH2 0x2063 JUMP JUMPDEST SWAP1 POP SWAP2 SWAP1 POP JUMP JUMPDEST PUSH32 0x496E76616C696420494400000000000000000000000000000000000000000000 PUSH0 DUP3 ADD MSTORE POP JUMP JUMPDEST PUSH0 PUSH2 0x20D7 PUSH1 0xA DUP4 PUSH2 0x176A JUMP JUMPDEST SWAP2 POP PUSH2 0x20E2 DUP3 PUSH2 0x20A3 JUMP JUMPDEST PUSH1 0x20 DUP3 ADD SWAP1 POP SWAP2 SWAP1 POP JUMP JUMPDEST PUSH0 PUSH1 0x20 DUP3 ADD SWAP1 POP DUP2 DUP2 SUB PUSH0 DUP4 ADD MSTORE PUSH2 0x2104 DUP2 PUSH2 0x20CB JUMP JUMPDEST SWAP1 POP SWAP2 SWAP1 POP JUMP JUMPDEST PUSH32 0x496E76616C696420726563697069656E74000000000000000000000000000000 PUSH0 DUP3 ADD MSTORE POP JUMP JUMPDEST PUSH0 PUSH2 0x213F PUSH1 0x11 DUP4 PUSH2 0x176A JUMP JUMPDEST SWAP2 POP PUSH2 0x214A DUP3 PUSH2 0x210B JUMP JUMPDEST PUSH1 0x20 DUP3 ADD SWAP1 POP SWAP2 SWAP1 POP JUMP JUMPDEST PUSH0 PUSH1 0x20 DUP3 ADD SWAP1 POP DUP2 DUP2 SUB PUSH0 DUP4 ADD MSTORE PUSH2 0x216C DUP2 PUSH2 0x2133 JUMP JUMPDEST SWAP1 POP SWAP2 SWAP1 POP JUMP JUMPDEST PUSH32 0x43616E6E6F742073656E6420746F2073656C6600000000000000000000000000 PUSH0 DUP3 ADD MSTORE POP JUMP JUMPDEST PUSH0 PUSH2 0x21A7 PUSH1 0x13 DUP4 PUSH2 0x176A JUMP JUMPDEST SWAP2 POP PUSH2 0x21B2 DUP3 PUSH2 0x2173 JUMP JUMPDEST PUSH1 0x20 DUP3 ADD SWAP1 POP SWAP2 SWAP1 POP JUMP JUMPDEST PUSH0 PUSH1 0x20 DUP3 ADD SWAP1 POP DUP2 DUP2 SUB PUSH0 DUP4 ADD MSTORE PUSH2 0x21D4 DUP2 PUSH2 0x219B JUMP JUMPDEST SWAP1 POP SWAP2 SWAP1 POP JUMP JUMPDEST PUSH32 0x456D707479206D65737361676500000000000000000000000000000000000000 PUSH0 DUP3 ADD MSTORE POP JUMP JUMPDEST PUSH0 PUSH2 0x220F PUSH1 0xD DUP4 PUSH2 0x176A JUMP JUMPDEST SWAP2 POP PUSH2 0x221A DUP3 PUSH2 0x21DB JUMP JUMPDEST PUSH1 0x20 DUP3 ADD SWAP1 POP SWAP2 SWAP1 POP JUMP JUMPDEST PUSH0 PUSH1 0x20 DUP3 ADD SWAP1 POP DUP2 DUP2 SUB PUSH0 DUP4 ADD MSTORE PUSH2 0x223C DUP2 PUSH2 0x2203 JUMP JUMPDEST SWAP1 POP SWAP2 SWAP1 POP JUMP JUMPDEST PUSH0 DUP2 SWAP1 POP SWAP3 SWAP2 POP POP JUMP JUMPDEST DUP3 DUP2 DUP4 CALLDATACOPY PUSH0 DUP4 DUP4 ADD MSTORE POP POP POP JUMP JUMPDEST PUSH0 PUSH2 0x2266 DUP4 DUP6 PUSH2 0x2243 JUMP JUMPDEST SWAP4 POP PUSH2 0x2273 DUP4 DUP6 DUP5 PUSH2 0x224D JUMP JUMPDEST DUP3 DUP5 ADD SWAP1 POP SWAP4 SWAP3 POP POP POP JUMP JUMPDEST PUSH0 PUSH2 0x228B DUP3 DUP5 DUP7 PUSH2 0x225B JUMP JUMPDEST SWAP2 POP DUP2 SWAP1 POP SWAP4 SWAP3 POP POP POP JUMP JUMPDEST PUSH32 0x4475706C6963617465206D657373616765000000000000000000000000000000 PUSH0 DUP3 ADD MSTORE POP JUMP JUMPDEST PUSH0 PUSH2 0x22CB PUSH1 0x11 DUP4 PUSH2 0x176A JUMP JUMPDEST SWAP2 POP PUSH2 0x22D6 DUP3 PUSH2 0x2297 JUMP JUMPDEST PUSH1 0x20 DUP3 ADD SWAP1 POP SWAP2 SWAP1 POP JUMP JUMPDEST PUSH0 PUSH1 0x20 DUP3 ADD SWAP1 POP DUP2 DUP2 SUB PUSH0 DUP4 ADD MSTORE PUSH2 0x22F8 DUP2 PUSH2 0x22BF JUMP JUMPDEST SWAP1 POP SWAP2 SWAP1 POP JUMP JUMPDEST PUSH0 DUP2 PUSH1 0x60 SHL SWAP1 POP SWAP2 SWAP1 POP JUMP JUMPDEST PUSH0 PUSH2 0x2315 DUP3 PUSH2 0x22FF JUMP JUMPDEST SWAP1 POP SWAP2 SWAP1 POP JUMP JUMPDEST PUSH0 PUSH2 0x2326 DUP3 PUSH2 0x230B JUMP JUMPDEST SWAP1 POP SWAP2 SWAP1 POP JUMP JUMPDEST PUSH2 0x233E PUSH2 0x2339 DUP3 PUSH2 0x1740 JUMP JUMPDEST PUSH2 0x231C JUMP JUMPDEST DUP3 MSTORE POP POP JUMP JUMPDEST PUSH0 DUP2 SWAP1 POP SWAP2 SWAP1 POP JUMP JUMPDEST PUSH2 0x235E PUSH2 0x2359 DUP3 PUSH2 0x16C3 JUMP JUMPDEST PUSH2 0x2344 JUMP JUMPDEST DUP3 MSTORE POP POP JUMP JUMPDEST PUSH0 PUSH2 0x236F DUP3 DUP9 PUSH2 0x232D JUMP JUMPDEST PUSH1 0x14 DUP3 ADD SWAP2 POP PUSH2 0x237F DUP3 DUP8 PUSH2 0x232D JUMP JUMPDEST PUSH1 0x14 DUP3 ADD SWAP2 POP PUSH2 0x238F DUP3 DUP7 PUSH2 0x234D JUMP JUMPDEST PUSH1 0x20 DUP3 ADD SWAP2 POP PUSH2 0x239F DUP3 DUP6 PUSH2 0x234D JUMP JUMPDEST PUSH1 0x20 DUP3 ADD SWAP2 POP PUSH2 0x23AF DUP3 DUP5 PUSH2 0x234D JUMP JUMPDEST PUSH1 0x20 DUP3 ADD SWAP2 POP DUP2 SWAP1 POP SWAP7 SWAP6 POP POP POP POP POP POP JUMP JUMPDEST PUSH0 DUP2 SWAP1 POP SWAP3 SWAP2 POP POP JUMP JUMPDEST PUSH32 0x19457468657265756D205369676E6564204D6573736167653A0A333200000000 PUSH0 DUP3 ADD MSTORE POP JUMP JUMPDEST PUSH0 PUSH2 0x2400 PUSH1 0x1C DUP4 PUSH2 0x23C2 JUMP JUMPDEST SWAP2 POP PUSH2 0x240B DUP3 PUSH2 0x23CC JUMP JUMPDEST PUSH1 0x1C DUP3 ADD SWAP1 POP SWAP2 SWAP1 POP JUMP JUMPDEST PUSH0 DUP2 SWAP1 POP SWAP2 SWAP1 POP JUMP JUMPDEST PUSH2 0x2430 PUSH2 0x242B DUP3 PUSH2 0x17D0 JUMP JUMPDEST PUSH2 0x2416 JUMP JUMPDEST DUP3 MSTORE POP POP JUMP JUMPDEST PUSH0 PUSH2 0x2440 DUP3 PUSH2 0x23F4 JUMP JUMPDEST SWAP2 POP PUSH2 0x244C DUP3 DUP5 PUSH2 0x241F JUMP JUMPDEST PUSH1 0x20 DUP3 ADD SWAP2 POP DUP2 SWAP1 POP SWAP3 SWAP2 POP POP JUMP JUMPDEST PUSH32 0x496E76616C6964207369676E6174757265000000000000000000000000000000 PUSH0 DUP3 ADD MSTORE POP JUMP JUMPDEST PUSH0 PUSH2 0x248F PUSH1 0x11 DUP4 PUSH2 0x176A JUMP JUMPDEST SWAP2 POP PUSH2 0x249A DUP3 PUSH2 0x245B JUMP JUMPDEST PUSH1 0x20 DUP3 ADD SWAP1 POP SWAP2 SWAP1 POP JUMP JUMPDEST PUSH0 PUSH1 0x20 DUP3 ADD SWAP1 POP DUP2 DUP2 SUB PUSH0 DUP4 ADD MSTORE PUSH2 0x24BC DUP2 PUSH2 0x2483 JUMP JUMPDEST SWAP1 POP SWAP2 SWAP1 POP JUMP JUMPDEST PUSH0 DUP2 SWAP1 POP DUP2 PUSH0 MSTORE PUSH1 0x20 PUSH0 KECCAK256 SWAP1 POP SWAP2 SWAP1 POP JUMP JUMPDEST PUSH0 PUSH1 0x20 PUSH1 0x1F DUP4 ADD DIV SWAP1 POP SWAP2 SWAP1 POP JUMP JUMPDEST PUSH0 DUP3 DUP3 SHL SWAP1 POP SWAP3 SWAP2 POP POP JUMP JUMPDEST PUSH0 PUSH1 0x8 DUP4 MUL PUSH2 0x251F PUSH32 0xFFFFFFFFFFFFFFFFFFFFFFFFFFFFFFFFFFFFFFFFFFFFFFFFFFFFFFFFFFFFFFFF DUP3 PUSH2 0x24E4 JUMP JUMPDEST PUSH2 0x2529 DUP7 DUP4 PUSH2 0x24E4 JUMP JUMPDEST SWAP6 POP DUP1 NOT DUP5 AND SWAP4 POP DUP1 DUP7 AND DUP5 OR SWAP3 POP POP POP SWAP4 SWAP3 POP POP POP JUMP JUMPDEST PUSH0 DUP2 SWAP1 POP SWAP2 SWAP1 POP JUMP JUMPDEST PUSH0 PUSH2 0x2564 PUSH2 0x255F PUSH2 0x255A DUP5 PUSH2 0x16C3 JUMP JUMPDEST PUSH2 0x2541 JUMP JUMPDEST PUSH2 0x16C3 JUMP JUMPDEST SWAP1 POP SWAP2 SWAP1 POP JUMP JUMPDEST PUSH0 DUP2 SWAP1 POP SWAP2 SWAP1 POP JUMP JUMPDEST PUSH2 0x257D DUP4 PUSH2 0x254A JUMP JUMPDEST PUSH2 0x2591 PUSH2 0x2589 DUP3 PUSH2 0x256B JUMP JUMPDEST DUP5 DUP5 SLOAD PUSH2 0x24F0 JUMP JUMPDEST DUP3 SSTORE POP POP POP POP JUMP JUMPDEST PUSH0 PUSH0 SWAP1 POP SWAP1 JUMP JUMPDEST PUSH2 0x25A8 PUSH2 0x2599 JUMP JUMPDEST PUSH2 0x25B3 DUP2 DUP5 DUP5 PUSH2 0x2574 JUMP JUMPDEST POP POP POP JUMP JUMPDEST JUMPDEST DUP2 DUP2 LT ISZERO PUSH2 0x25D6 JUMPI PUSH2 0x25CB PUSH0 DUP3 PUSH2 0x25A0 JUMP JUMPDEST PUSH1 0x1 DUP2 ADD SWAP1 POP PUSH2 0x25B9 JUMP JUMPDEST POP POP JUMP JUMPDEST PUSH1 0x1F DUP3 GT ISZERO PUSH2 0x261B JUMPI PUSH2 0x25EC DUP2 PUSH2 0x24C3 JUMP JUMPDEST PUSH2 0x25F5 DUP5 PUSH2 0x24D5 JUMP JUMPDEST DUP2 ADD PUSH1 0x20 DUP6 LT ISZERO PUSH2 0x2604 JUMPI DUP2 SWAP1 POP JUMPDEST PUSH2 0x2618 PUSH2 0x2610 DUP6 PUSH2 0x24D5 JUMP JUMPDEST DUP4 ADD DUP3 PUSH2 0x25B8 JUMP JUMPDEST POP POP JUMPDEST POP POP POP JUMP JUMPDEST PUSH0 DUP3 DUP3 SHR SWAP1 POP SWAP3 SWAP2 POP POP JUMP JUMPDEST PUSH0 PUSH2 0x263B PUSH0 NOT DUP5 PUSH1 0x8 MUL PUSH2 0x2620 JUMP JUMPDEST NOT DUP1 DUP4 AND SWAP2 POP POP SWAP3 SWAP2 POP POP JUMP JUMPDEST PUSH0 PUSH2 0x2653 DUP4 DUP4 PUSH2 0x262C JUMP JUMPDEST SWAP2 POP DUP3 PUSH1 0x2 MUL DUP3 OR SWAP1 POP SWAP3 SWAP2 POP POP JUMP JUMPDEST PUSH2 0x266C DUP3 PUSH2 0x1760 JUMP JUMPDEST PUSH8 0xFFFFFFFFFFFFFFFF DUP2 GT ISZERO PUSH2 0x2685 JUMPI PUSH2 0x2684 PUSH2 0x1FE1 JUMP JUMPDEST JUMPDEST PUSH2 0x268F DUP3 SLOAD PUSH2 0x1EB6 JUMP JUMPDEST PUSH2 0x269A DUP3 DUP3 DUP6 PUSH2 0x25DA JUMP JUMPDEST PUSH0 PUSH1 0x20 SWAP1 POP PUSH1 0x1F DUP4 GT PUSH1 0x1 DUP2 EQ PUSH2 0x26CB JUMPI PUSH0 DUP5 ISZERO PUSH2 0x26B9 JUMPI DUP3 DUP8 ADD MLOAD SWAP1 POP JUMPDEST PUSH2 0x26C3 DUP6 DUP3 PUSH2 0x2648 JUMP JUMPDEST DUP7 SSTORE POP PUSH2 0x272A JUMP JUMPDEST PUSH1 0x1F NOT DUP5 AND PUSH2 0x26D9 DUP7 PUSH2 0x24C3 JUMP JUMPDEST PUSH0 JUMPDEST DUP3 DUP2 LT ISZERO PUSH2 0x2700 JUMPI DUP5 DUP10 ADD MLOAD DUP3 SSTORE PUSH1 0x1 DUP3 ADD SWAP2 POP PUSH1 0x20 DUP6 ADD SWAP5 POP PUSH1 0x20 DUP2 ADD SWAP1 POP PUSH2 0x26DB JUMP JUMPDEST DUP7 DUP4 LT ISZERO PUSH2 0x271D JUMPI DUP5 DUP10 ADD MLOAD PUSH2 0x2719 PUSH1 0x1F DUP10 AND DUP3 PUSH2 0x262C JUMP JUMPDEST DUP4 SSTORE POP JUMPDEST PUSH1 0x1 PUSH1 0x2 DUP9 MUL ADD DUP9 SSTORE POP POP POP JUMPDEST POP POP POP POP POP POP JUMP JUMPDEST PUSH0 PUSH1 0x40 DUP3 ADD SWAP1 POP PUSH2 0x2745 PUSH0 DUP4 ADD DUP6 PUSH2 0x17D9 JUMP JUMPDEST PUSH2 0x2752 PUSH1 0x20 DUP4 ADD DUP5 PUSH2 0x17E8 JUMP JUMPDEST SWAP4 SWAP3 POP POP POP JUMP JUMPDEST PUSH32 0x4E6F74206D6F64657261746F7200000000000000000000000000000000000000 PUSH0 DUP3 ADD MSTORE POP JUMP JUMPDEST PUSH0 PUSH2 0x278D PUSH1 0xD DUP4 PUSH2 0x176A JUMP JUMPDEST SWAP2 POP PUSH2 0x2798 DUP3 PUSH2 0x2759 JUMP JUMPDEST PUSH1 0x20 DUP3 ADD SWAP1 POP SWAP2 SWAP1 POP JUMP JUMPDEST PUSH0 PUSH1 0x20 DUP3 ADD SWAP1 POP DUP2 DUP2 SUB PUSH0 DUP4 ADD MSTORE PUSH2 0x27BA DUP2 PUSH2 0x2781 JUMP JUMPDEST SWAP1 POP SWAP2 SWAP1 POP JUMP JUMPDEST PUSH32 0x496E76616C6964206D6573736167650000000000000000000000000000000000 PUSH0 DUP3 ADD MSTORE POP JUMP JUMPDEST PUSH0 PUSH2 0x27F5 PUSH1 0xF DUP4 PUSH2 0x176A JUMP JUMPDEST SWAP2 POP PUSH2 0x2800 DUP3 PUSH2 0x27C1 JUMP JUMPDEST PUSH1 0x20 DUP3 ADD SWAP1 POP SWAP2 SWAP1 POP JUMP JUMPDEST PUSH0 PUSH1 0x20 DUP3 ADD SWAP1 POP DUP2 DUP2 SUB PUSH0 DUP4 ADD MSTORE PUSH2 0x2822 DUP2 PUSH2 0x27E9 JUMP JUMPDEST SWAP1 POP SWAP2 SWAP1 POP JUMP JUMPDEST PUSH2 0x2832 DUP2 PUSH2 0x1D21 JUMP JUMPDEST DUP3 MSTORE POP POP JUMP JUMPDEST PUSH0 PUSH1 0x80 DUP3 ADD SWAP1 POP PUSH2 0x284B PUSH0 DUP4 ADD DUP8 PUSH2 0x17D9 JUMP JUMPDEST PUSH2 0x2858 PUSH1 0x20 DUP4 ADD DUP7 PUSH2 0x2829 JUMP JUMPDEST PUSH2 0x2865 PUSH1 0x40 DUP4 ADD DUP6 PUSH2 0x17D9 JUMP JUMPDEST PUSH2 0x2872 PUSH1 0x60 DUP4 ADD DUP5 PUSH2 0x17D9 JUMP JUMPDEST SWAP6 SWAP5 POP POP POP POP POP JUMP JUMPDEST PUSH32 0x4E487B7100000000000000000000000000000000000000000000000000000000 PUSH0 MSTORE PUSH1 0x21 PUSH1 0x4 MSTORE PUSH1 0x24 PUSH0 REVERT JUMPDEST PUSH0 PUSH1 0x20 DUP3 ADD SWAP1 POP PUSH2 0x28BB PUSH0 DUP4 ADD DUP5 PUSH2 0x17D9 JUMP JUMPDEST SWAP3 SWAP2 POP POP JUMP INVALID LOG2 PUSH5 0x6970667358 0x22 SLT KECCAK256 JUMPF 0x10B0 0xA8 0x24 PUSH12 0xB4B8E5077FD200BB68E3A12A SHR JUMPF 0x3AA PUSH5 0x599F9FAFC7 0xBF 0xC7 0x28 DIV PUSH5 0x736F6C6343 STOP ADDMOD 0x1F STOP CALLER "
		},
		"gasEstimates": {
			"creation": {
				"codeDepositCost": "2097400",
				"executionCost": "infinite",
				"totalCost": "infinite"
			},
			"external": {
				"ADMIN()": "infinite",
				"DATA_SIGNER()": "infinite",
				"addModerator(address)": "infinite",
				"conversationMessages(address,address,uint256)": "infinite",
				"getConversation(address,address)": "infinite",
				"getMessage(uint256)": "infinite",
				"getMessagesRange(uint256,uint256)": "infinite",
				"getTotalMessages()": "2486",
				"isModerator(address)": "2898",
				"messages(uint256)": "infinite",
				"removeModerator(address)": "infinite",
				"revokeMessage(uint256)": "infinite",
				"seenMessageHashes(bytes32)": "2873",
				"sendMessage(address,string,uint256,uint8,bytes32,bytes32)": "infinite"
			}
		},
		"methodIdentifiers": {
			"ADMIN()": "2a0acc6a",
			"DATA_SIGNER()": "cc001879",
			"addModerator(address)": "b532e4cb",
			"conversationMessages(address,address,uint256)": "9ada4cb9",
			"getConversation(address,address)": "375eed27",
			"getMessage(uint256)": "86f79edb",
			"getMessagesRange(uint256,uint256)": "7a924047",
			"getTotalMessages()": "147e9108",
			"isModerator(address)": "fa6f3936",
			"messages(uint256)": "0d80fefd",
			"removeModerator(address)": "869d785f",
			"revokeMessage(uint256)": "c334b623",
			"seenMessageHashes(bytes32)": "fe269cc3",
			"sendMessage(address,string,uint256,uint8,bytes32,bytes32)": "be9938fb"
		}
	},
	"abi": [
		{
			"inputs": [
				{
					"internalType": "address",
					"name": "dataSigner",
					"type": "address"
				}
			],
			"stateMutability": "nonpayable",
			"type": "constructor"
		},
		{
			"inputs": [],
			"name": "ECDSAInvalidSignature",
			"type": "error"
		},
		{
			"inputs": [
				{
					"internalType": "uint256",
					"name": "length",
					"type": "uint256"
				}
			],
			"name": "ECDSAInvalidSignatureLength",
			"type": "error"
		},
		{
			"inputs": [
				{
					"internalType": "bytes32",
					"name": "s",
					"type": "bytes32"
				}
			],
			"name": "ECDSAInvalidSignatureS",
			"type": "error"
		},
		{
			"anonymous": false,
			"inputs": [
				{
					"indexed": true,
					"internalType": "uint256",
					"name": "messageId",
					"type": "uint256"
				}
			],
			"name": "MessageRevoked",
			"type": "event"
		},
		{
			"anonymous": false,
			"inputs": [
				{
					"indexed": true,
					"internalType": "uint256",
					"name": "messageId",
					"type": "uint256"
				},
				{
					"indexed": true,
					"internalType": "address",
					"name": "sender",
					"type": "address"
				},
				{
					"indexed": true,
					"internalType": "address",
					"name": "recipient",
					"type": "address"
				},
				{
					"indexed": false,
					"internalType": "bytes32",
					"name": "messageHash",
					"type": "bytes32"
				},
				{
					"indexed": false,
					"internalType": "uint256",
					"name": "timestamp",
					"type": "uint256"
				}
			],
			"name": "MessageSent",
			"type": "event"
		},
		{
			"anonymous": false,
			"inputs": [
				{
					"indexed": false,
					"internalType": "address",
					"name": "moderator",
					"type": "address"
				}
			],
			"name": "ModeratorAdded",
			"type": "event"
		},
		{
			"anonymous": false,
			"inputs": [
				{
					"indexed": false,
					"internalType": "address",
					"name": "moderator",
					"type": "address"
				}
			],
			"name": "ModeratorRemoved",
			"type": "event"
		},
		{
			"inputs": [],
			"name": "ADMIN",
			"outputs": [
				{
					"internalType": "address",
					"name": "",
					"type": "address"
				}
			],
			"stateMutability": "view",
			"type": "function"
		},
		{
			"inputs": [],
			"name": "DATA_SIGNER",
			"outputs": [
				{
					"internalType": "address",
					"name": "",
					"type": "address"
				}
			],
			"stateMutability": "view",
			"type": "function"
		},
		{
			"inputs": [
				{
					"internalType": "address",
					"name": "mod",
					"type": "address"
				}
			],
			"name": "addModerator",
			"outputs": [],
			"stateMutability": "nonpayable",
			"type": "function"
		},
		{
			"inputs": [
				{
					"internalType": "address",
					"name": "",
					"type": "address"
				},
				{
					"internalType": "address",
					"name": "",
					"type": "address"
				},
				{
					"internalType": "uint256",
					"name": "",
					"type": "uint256"
				}
			],
			"name": "conversationMessages",
			"outputs": [
				{
					"internalType": "uint256",
					"name": "",
					"type": "uint256"
				}
			],
			"stateMutability": "view",
			"type": "function"
		},
		{
			"inputs": [
				{
					"internalType": "address",
					"name": "userA",
					"type": "address"
				},
				{
					"internalType": "address",
					"name": "userB",
					"type": "address"
				}
			],
			"name": "getConversation",
			"outputs": [
				{
					"internalType": "uint256[]",
					"name": "",
					"type": "uint256[]"
				}
			],
			"stateMutability": "view",
			"type": "function"
		},
		{
			"inputs": [
				{
					"internalType": "uint256",
					"name": "messageId",
					"type": "uint256"
				}
			],
			"name": "getMessage",
			"outputs": [
				{
					"components": [
						{
							"internalType": "address",
							"name": "sender",
							"type": "address"
						},
						{
							"internalType": "address",
							"name": "recipient",
							"type": "address"
						},
						{
							"internalType": "string",
							"name": "encryptedMessage",
							"type": "string"
						},
						{
							"internalType": "bytes32",
							"name": "messageHash",
							"type": "bytes32"
						},
						{
							"internalType": "uint256",
							"name": "timestamp",
							"type": "uint256"
						}
					],
					"internalType": "struct QshieldMessenger.MessageEntry",
					"name": "",
					"type": "tuple"
				}
			],
			"stateMutability": "view",
			"type": "function"
		},
		{
			"inputs": [
				{
					"internalType": "uint256",
					"name": "start",
					"type": "uint256"
				},
				{
					"internalType": "uint256",
					"name": "count",
					"type": "uint256"
				}
			],
			"name": "getMessagesRange",
			"outputs": [
				{
					"components": [
						{
							"internalType": "address",
							"name": "sender",
							"type": "address"
						},
						{
							"internalType": "address",
							"name": "recipient",
							"type": "address"
						},
						{
							"internalType": "string",
							"name": "encryptedMessage",
							"type": "string"
						},
						{
							"internalType": "bytes32",
							"name": "messageHash",
							"type": "bytes32"
						},
						{
							"internalType": "uint256",
							"name": "timestamp",
							"type": "uint256"
						}
					],
					"internalType": "struct QshieldMessenger.MessageEntry[]",
					"name": "",
					"type": "tuple[]"
				}
			],
			"stateMutability": "view",
			"type": "function"
		},
		{
			"inputs": [],
			"name": "getTotalMessages",
			"outputs": [
				{
					"internalType": "uint256",
					"name": "",
					"type": "uint256"
				}
			],
			"stateMutability": "view",
			"type": "function"
		},
		{
			"inputs": [
				{
					"internalType": "address",
					"name": "",
					"type": "address"
				}
			],
			"name": "isModerator",
			"outputs": [
				{
					"internalType": "bool",
					"name": "",
					"type": "bool"
				}
			],
			"stateMutability": "view",
			"type": "function"
		},
		{
			"inputs": [
				{
					"internalType": "uint256",
					"name": "",
					"type": "uint256"
				}
			],
			"name": "messages",
			"outputs": [
				{
					"internalType": "address",
					"name": "sender",
					"type": "address"
				},
				{
					"internalType": "address",
					"name": "recipient",
					"type": "address"
				},
				{
					"internalType": "string",
					"name": "encryptedMessage",
					"type": "string"
				},
				{
					"internalType": "bytes32",
					"name": "messageHash",
					"type": "bytes32"
				},
				{
					"internalType": "uint256",
					"name": "timestamp",
					"type": "uint256"
				}
			],
			"stateMutability": "view",
			"type": "function"
		},
		{
			"inputs": [
				{
					"internalType": "address",
					"name": "mod",
					"type": "address"
				}
			],
			"name": "removeModerator",
			"outputs": [],
			"stateMutability": "nonpayable",
			"type": "function"
		},
		{
			"inputs": [
				{
					"internalType": "uint256",
					"name": "messageId",
					"type": "uint256"
				}
			],
			"name": "revokeMessage",
			"outputs": [],
			"stateMutability": "nonpayable",
			"type": "function"
		},
		{
			"inputs": [
				{
					"internalType": "bytes32",
					"name": "",
					"type": "bytes32"
				}
			],
			"name": "seenMessageHashes",
			"outputs": [
				{
					"internalType": "bool",
					"name": "",
					"type": "bool"
				}
			],
			"stateMutability": "view",
			"type": "function"
		},
		{
			"inputs": [
				{
					"internalType": "address",
					"name": "recipient",
					"type": "address"
				},
				{
					"internalType": "string",
					"name": "encryptedMessage",
					"type": "string"
				},
				{
					"internalType": "uint256",
					"name": "nonce",
					"type": "uint256"
				},
				{
					"internalType": "uint8",
					"name": "v",
					"type": "uint8"
				},
				{
					"internalType": "bytes32",
					"name": "r",
					"type": "bytes32"
				},
				{
					"internalType": "bytes32",
					"name": "s",
					"type": "bytes32"
				}
			],
			"name": "sendMessage",
			"outputs": [],
			"stateMutability": "nonpayable",
			"type": "function"
		}
	]
}